:020000040800F2
:1000000000500020B93200082132000823320008D5
:1000100025320008273200082932000800000000BD
:100020000000000000000000000000004115000872
:100030002B32000800000000D1150008151600083A
:1000400001330008013300080133000801330008C0
:10005000013300080133000801330008B12700080C
:1000600001330008013300080133000801330008A0
:100070000133000801330008013300080133000890
:100080000133000801330008452B00080133000844
:100090000133000801330008013300080133000870
:1000A000013300082D320008013300080133000835
:1000B0000133000801330008013300080133000850
:1000C0000133000801330008013300080133000840
:1000D00001330008292F000801330008013300080C
:1000E0002528000801330008013300080000000043
:1000F0000000000000000000000000000000000000
:0C01000000000000000000005FF808F1A3
:1001100010B5054C237833B9044B13B10448AFF341
:1001200000800123237010BDE401002000000000C6
:10013000683D000808B5034B1BB103490348AFF302
:10014000008008BD00000000E8010020683D0008B4
:10015000034613F8012B002AFBD1181A0138704707
:1001600053B94AB9002908BF00281CBF4FF0FF311E
:100170004FF0FF3000F07AB9ADF1080C6DE904CE14
:1001800000F006F8DDF804E0DDE9022304B0704772
:100190002DE9F0478C460E460446089D002B50D1B1
:1001A0008A4217466CD9B2FA82FEBEF1000F0BD01C
:1001B000CEF1200C01FA0EF620FA0CFC02FA0EF732
:1001C0004CEA060C00FA0EF43A0CBCFBF2F9BBB296
:1001D00002FB19CC09FB03FA4FEA144848EA0C4623
:1001E000B2450AD9F61909F1FF3180F02581B245EF
:1001F00040F22281A9F102093E44A6EB0A06B6FBB1
:10020000F2F002FB106600FB03F3A4B244EA0644DA
:10021000A34209D9E41900F1FF3280F00B81A34217
:1002200040F2088102383C440021E41A40EA0940C7
:10023000002D62D0002324FA0EF42C606B60BDE820
:10024000F0878B4207D9002D55D0002185E8410069
:100250000846BDE8F087B3FA83F1002940F08F80AB
:10026000B34202D3824200F2FC80841A66EB03069A
:100270000120B446002D40D085E81010BDE8F0877D
:1002800012B90127B7FBF2F7B7FA87FEBEF1000FEC
:1002900035D10121F61B4FEA174C1FFA87F8B6FB40
:1002A000FCF20CFB126608FB02F0230C43EA064644
:1002B000B04207D9F61902F1FF3302D2B04200F280
:1002C000D2801A46361AB6FBFCF00CFB106608FB0F
:1002D00000F8A3B243EA0644A04507D9E41900F1A7
:1002E000FF3302D2A04500F2B9801846A4EB0804FF
:1002F00040EA02409CE729462846BDE8F08707FA15
:100300000EF7CEF1200326FA03F24FEA174CB2FBA8
:10031000FCF11FFA87F80CFB112206FA0EF620FA00
:1003200003F301FB08F933431E0C46EA0246B145CC
:1003300000FA0EF409D9F61901F1FF3280F08C8031
:10034000B14540F2898002393E44A6EB0906B6FB6E
:10035000FCF00CFB106200FB08F99EB246EA024674
:10036000B14507D9F61900F1FF3371D2B1456FD904
:1003700002383E44A6EB090640EA01418FE7C1F18D
:10038000200722FA07F88B4048EA030326FA07F40D
:100390004FEA134EB4FBFEF91FFA83FC0EFB19441F
:1003A0008E4020FA07F809FB0CFA48EA06084FEAE3
:1003B000184646EA0444A24502FA01F200FA01F6A0
:1003C00008D9E41809F1FF3044D2A24542D9A9F175
:1003D00002091C44A4EB0A04B4FBFEF00EFB10441B
:1003E00000FB0CFC1FFA88F848EA0444A44507D92E
:1003F000E41800F1FF3E29D2A44527D902381C4455
:1004000040EA0940A0FB0289A4EB0C0CCC45C24693
:10041000CE4615D312D055B1B6EB0A036CEB0E06DF
:1004200006FA07F7CB401F43CE402F606E600021D5
:10043000BDE8F0871046F7E68946DEE64645EAD293
:10044000B8EB020A69EB030E0138E4E77046D7E720
:1004500018468FE78146BDE7114676E702383C44EF
:1004600044E7084606E7023A3E442BE7704700BFE0
:100470004FF400723021014802F079BF6813002068
:1004800008B502F06BFDBDE8084000F0D7BA02F0F5
:1004900059BD000038B54FF4007230210E4802F00B
:1004A00066FF00240C4D00F0EFFA10B9B4F5007FA0
:1004B0000BD10A49084802F087FF58B10A220021EF
:1004C000053003F01DF8C0B238BD00F0CFFA285552
:1004D0000134E8E7642038BD68150020133E0008A9
:1004E00070B54FF4007204463021124802F03FFF0D
:1004F0000025104E00F0C8FA10B9B5F5007F11D1F3
:10050000ACB10C48FFF724FE05462046FFF720FE5D
:1005100085420CD32146074802F056FF003018BF31
:10052000012070BD00F0A2FA70550135E2E700200D
:1005300070BD00BF6815002038B5054602F0B2F85E
:1005400000F1140402F0AEF8844201D8002038BD56
:100550002846FFF7C5FF0028F4D0012038BD000071
:1005600038B5124C054623780BB1002038BD0D215B
:100570000F4802F0A7FC642002F092F8FFF778FF22
:100580002A460C490C4802F0FBFE00F089FA0A48A2
:10059000FFF7DEFD0146084802F094FC0748FFF72C
:1005A000CBFF0028E1D00120207038BD00020020E0
:1005B000DA3D0008E83D000868130020103E0008FE
:1005C00038B50D46044608B9002038BD0029FBD0D7
:1005D000FFF74EFF2B4622460D490E4802F0D0FE93
:1005E00000F05EFA0B48FFF7B3FD0146094802F040
:1005F00069FC0948FFF7A0FF0028E5D0082107485B
:1006000002F060FC4FF47A7002F04AF8012038BD25
:10061000B83D000868130020103E0008D13D0008D6
:1006200010B50446FFF724FF22460D490D4802F09D
:10063000A7FE00F035FA0B48FFF78AFD014609488E
:1006400002F040FC0848FFF777FF40B10821074857
:1006500002F038FC4FF47A7002F022F8012010BD4D
:10066000A93D000868130020103E0008D13D000895
:100670000220FFF7D5BF0000F8B5174604460D4627
:10068000FFF7F6FE154B1A78F7B1AB1C1449154865
:1006900002F076FE1348FFF75BFD0146114802F0B9
:1006A00011FC1148FFF748FFB0B1A4B12646331B37
:1006B0009D420BDC1FB102210C4802F003FC6420B8
:1006C00001F0EEFF0120F8BD2B46DFE716F8010B25
:1006D00002F0F0FBEBE72046F8BD00BF68170020F2
:1006E000943D000868130020A73D0008E53D000880
:1006F000F8B5174604460D46FFF7BAFE164B1A78B2
:100700000FB3AB1C1549164802F03AFE1448FFF728
:100710001FFD0146124802F0D5FBC82001F0C0FFC2
:100720001048FFF709FFB0B1A4B12646331B9D4224
:100730000BDC1FB102210C4802F0C4FB642001F065
:10074000AFFF0120F8BD2B46DCE716F8010B02F0E5
:10075000B1FBEBE72046F8BD68170020943D000888
:1007600068130020A73D0008E53D0008014B187004
:10077000704700BF681700200048704768150020C8
:1007800001F0AEBF10B502F01FF820B102F022F860
:100790000324204610BD02F023F858B102F032F8CD
:1007A000044602F029F884420CBF0224012402F01E
:1007B0001DF8EEE70446FAE702F034B9F8B50A2668
:1007C0000024002540F6FF7702F0A4F902F0CAF9F0
:1007D000381A241845EBE075013EF5D10A220023B2
:1007E00020462946FFF7BCFC80B2F8BD02F014BADF
:1007F000024B188059809A80704700BF0202002087
:10080000012806D002D3022806D07047044B198075
:100810007047034B59807047014B9980704700BF68
:1008200002020020012807D003D3022807D00020AD
:100830007047044B18887047024B58887047014B2B
:10084000988870470202002070B540F6FF75114E7F
:1008500004463088A84228BF2846604390FBF5F044
:1008600080B202F067FA7088A84228BF2846604329
:1008700090FBF5F080B202F063FAB088A84228BF7E
:100880002846604390FBF5F0BDE8704080B202F06E
:100890005DBA00BF0202002070B500248AB00122B8
:1008A000402120480294CDF80B40FFF721FF40F291
:1008B0008F121D4904A802F063FD0122162104A82D
:1008C000FFF7DAFE2046FFF7ADFF05460120FFF7F0
:1008D000A9FF06460220FFF7A5FF40F6FF72C0EB16
:1008E000002090FBF2F0C6EB0626C5EB052596FB33
:1008F000F2F3009095FBF2F20C4902A802F040FDE1
:1009000022464FF491710A48FFF7F2FE2246062173
:1009100002A8FFF7B1FE012267210648FFF7E8FEB3
:100920000AB070BDF63F0008243E00083B3E0008B8
:10093000523E0008753F00087FB5FFF71DFF2049B4
:1009400002F042FD0646002838D00024ADF80840E9
:10095000ADF80A40ADF80C40FFF70EFF351AFFF76F
:100960000BFF0B352544435D8DF80430FFF704FF82
:10097000284443781022002101A88DF8053002F0A8
:10098000BFFD02AB18530234062CE5D1FF23BDF89E
:100990000C20BDF80A10BDF80800C2EB0232C1EB12
:1009A0000131C0EB003092FBF3F291FBF3F190FBCD
:1009B000F3F092B289B280B2FFF71AFF04B070BDB3
:1009C000483E000808B5FFF7B7FFBDE80840FFF74D
:1009D00063BF10B50446FFF7CFFE214602F0F4FCDA
:1009E000003018BF012010BD2DE9F0410E4617461A
:1009F0000546FFF74FFD0446FFF7B8FE042C19D853
:100A00000024BC4206DB0122BDE8F04118210A485F
:100A1000FFF76EBE65B15EB155F824004FEA840859
:100A2000FFF7D7FF20B156F80830BDE8F04118476E
:100A30000134E6E7BDE8F081DD3F00080023024A0B
:100A40001380024A138070476A1700206C19002037
:100A5000044A05491388C8540133C3F308031380BB
:100A6000704700BF6C1900206C170020044A05492C
:100A70001388C85C0133C3F308031380704700BFB9
:100A80006A1700206C170020034B1888034B1B8843
:100A9000C31A5842584170476C1900206A17002049
:100AA0000023024A1380024A138070476C19002009
:100AB0006A170020074A08B51368032043F01003A3
:100AC000136000F015F8002002F06EFB02F044FB0A
:100AD000002008BD00200240034A044B11681B7827
:100AE0000B441360704700BF7019002008000020FD
:100AF000074A0002D36800F4E06023F4E0631B04BB
:100B00001B0C43F0BF6343F400330343D3607047CF
:100B100000ED00E0174B30B5DC68C4F30224C4F1EB
:100B20000703251D042B28BF0423062D4FF00105C4
:100B300098BF002405FA03F303F1FF3388BF033C99
:100B40001940A14005FA04F4013C2240002842EA81
:100B500001024FEA0212AFBF00F16040064B00F005
:100B60000F00D2B2A5BFD2B200F561401A5480F88E
:100B7000002330BD00ED00E014ED00E00123420948
:100B800000F01F0003FA00F0014B43F82200704709
:100B900000E100E0044B054A5B68C3F3C223D35C69
:100BA000034A1068D8407047001002409640000881
:100BB000100000200F2303600B4B5A6802F0030261
:100BC00042605A6802F0F00282605A6802F4E06201
:100BD000C2605B68DB0803F4E0630361034B1B68DE
:100BE00003F007030B607047001002400020024032
:100BF000704703680020DA6842F00102DA601A6880
:100C000042F001021A6070477047704770477047A2
:100C1000036810B51A69044691070ED5DA68920781
:100C20000BD56FF002021A6101229B6902779B07C4
:100C300077D0FFF7EAFF0023237723681A6950076C
:100C400010D5DA6851070DD56FF004021A6102223F
:100C50009B69227713F4407F204668D0FFF7D5FFC9
:100C60000023237723681A6912070FD5DA68100763
:100C70000CD56FF008021A610422DB69227799070C
:100C800020465AD0FFF7C1FF0023237723681A6953
:100C9000D20610D5DA68D0060DD56FF010021A61B1
:100CA0000822DB69227713F4407F20464BD0FFF700
:100CB000ACFF0023237723681A69D10708D5DA68C7
:100CC000D20705D56FF0010220461A6102F03AFA08
:100CD00023681A69100608D5DA68110605D56FF081
:100CE000800220461A6100F088F823681A695206CB
:100CF00008D5DA68500605D56FF0400220461A6123
:100D0000FFF785FF23681A69910622D5DA689206F3
:100D10001FD56FF020022046BDE810401A6100F098
:100D20006BB8FFF771FF2046FFF770FF83E7FFF70F
:100D30006BFF2046FFF76AFF92E7FFF765FF20464B
:100D4000FFF764FFA0E7FFF75FFF2046FFF75EFFB6
:100D5000AFE710BD1A4A036890420AD0B0F1804F45
:100D600007D0A2F59432904203D002F580629042FF
:100D700015D14A6823F070031343114A90420AD0F8
:100D8000B0F1804F07D0A2F59432904203D002F523
:100D90008062904203D1CA6823F4407313434A69C6
:100DA00023F08003134303608B68C3620B68836284
:100DB000034B984204BF0B690363012343617047EF
:100DC000002C014010B50446A0B190F83D3003F06E
:100DD000FF021BB980F83C20FFF70AFF02232068BE
:100DE00084F83D30211DFFF7B5FF0123002084F872
:100DF0003D3010BD012010BD70477047094B9A6807
:100E000003F580639B681343DB0708D443680A68D3
:100E100023F4702302B11343436001207047002084
:100E2000704700BF002401408368DB070DD443688E
:100E30004A6823F480731343436083680A6823F489
:100E4000006313438360012070470020704783686C
:100E500010B5DB071BD443684A6823F4684312B11A
:100E60008C6813432343436083680C6823F4602336
:100E700023F481732343CC68096923430B438360C4
:100E8000C36A23F470031343C362012010BD002022
:100E900010BD0000017910B502460368002942D058
:100EA000002B48D0407901280ED003D3022825D04A
:100EB000002011E02249486820EA030048600868E1
:100EC00018430860012007E01D490C6824EA030468
:100ED0000C604C681C434C609279002A2ED0022A88
:100EE00014D0032A1BD0012A27D1154AD16821EA40
:100EF0000301D16091680B43936010BD10490868ED
:100F000018430860486818434860DBE70C4A91685A
:100F100021EA03019160D1680B43D36010BD084AF8
:100F200091681943F6E7DB43054A116819401160DF
:100F300051680B405360012010BD002010BD00BF60
:100F4000000401402DE9F04F0D68C5F30F2595FA17
:100F5000A5F24FF00F09B2FA82F24FF003084FF0FA
:100F6000040C40F2011E35FA02F302D10120BDE863
:100F7000F08F012393402B4263D0072A83BF4FF0A9
:100F80000114A2F1080304FA03F30EFA02F388BF76
:100F900043F080631E0E93FAA3FABAFA8AFA93FA20
:100FA000A3FBBBFA8BFB84594FEA8A0A09FA0AFAB7
:100FB00024EA0A0A4C684FEA8B0B04FA0BFB4AEA54
:100FC0000B048451C4684FEA132A9AFAAAFBBBFAAD
:100FD0008BFB24EA0A0A0C6904FA0BF44AEA0404BB
:100FE000C4604C6824F00804012C2AD193FAA3FAB7
:100FF000BAFA8AFA93FAA3F4B4FA84F487594FEA56
:10100000840B4FEA8A0A8C6808FA0AFA27EA0A0A65
:1010100004FA0BF44AEA0404845193FAA3FBBBFAE2
:101020008BFB93FAA3F3B3FA83F3CF684FEA8B0BEE
:101030000CFA0BFB9B0024EA0B0407FA03F31C4396
:10104000845101328FE70000034B044A5B68C3F30D
:101050000313D35CD840704700100240864000085C
:10106000034B044A5B68C3F30223D35CD840704748
:101070000010024096400008034B044A5B68C3F32B
:10108000C223D35CD840704700100240964000084D
:10109000094B5A6802F4803262B15868074AC0F3BB
:1010A00040400130B2FBF0F05B68C3F3834302338E
:1010B000584370470248F7E70010024000127A00D8
:1010C00000093D00044B5B6803F00C03082B01D1C1
:1010D000FFF7DEBF014870470010024000127A009F
:1010E00008B50146FFF7EEFF0860FFF7ADFF486067
:1010F000FFF7B6FF88604868FFF7BEFFC86008BD0D
:101100001A4A036890420AD0B0F1804F07D0A2F586
:101110009432904203D002F58062904215D14A6821
:1011200023F070031343114A90420AD0B0F1804F6C
:1011300007D0A2F59432904203D002F5806290422B
:1011400003D1CA6823F44073134303608B68C362FE
:101150000B888362054B984204BF0B7C0363436991
:1011600043F0010343610120704700BF002C0140A0
:10117000102930B55FD003D801292CD0002030BD14
:10118000B1F5807F00F08980B1F5805FF6D1036A08
:10119000156823F480530362036A4468C16923F429
:1011A000005321F4E64141EA0521156943EA05337C
:1011B000556823F4805343EA0533504DA84204BFD9
:1011C000956924F48044D26808BF44EA85144460D9
:1011D000C16102642CE0036A156823F00103036215
:1011E000036A4168846923F0020324F073042C43EA
:1011F00015692B43556823F001032B433F4DA8424B
:1012000012D1556923F0080343EA8503956823F05A
:10121000040343EA8503956921F480712943D56964
:1012200021F4007141EA4501D26841608461426362
:101230000362012030BD036A156823F010030362C6
:10124000036A4168846923F0200324F4E64444EAF5
:101250000524156943EA0513556823F0100343EA92
:101260000513264DA84213D1556923F0800343EAA4
:101270008513956823F0400343EA8513956921F4AB
:10128000806141EA8501D56921F4006141EAC50127
:10129000D268416084618263CAE7036A156823F4F7
:1012A00080730362036A4168C46923F4007324F005
:1012B00073042C43156943EA0523556823F48073AE
:1012C00043EA05230D4DA84213D1556923F4006369
:1012D00043EA8523956823F4806343EA852395696F
:1012E00021F4805141EA0511D56921F4005141EA08
:1012F0004511D2684160C461C26399E7002C014086
:1013000030B5C36885B09B0404460D4602D5002065
:1013100005B030BD4B68C968C2680B43296922F427
:10132000B0520B4322F00C021343C3600369AA6856
:1013300023F440531343036143696A6923F4407300
:10134000134343616846FFF7CBFE134B9C4219D110
:1013500003990029DBD02A68002AD8D019234B43EF
:101360009200B3FBF2F36422B3FBF2F102FB113300
:101370001B013233B3FBF2F303EB01139BB2A36007
:101380000120C5E7054B9C4201D10299E1E7044BDE
:101390009C42BCD1F9E700BF003801400044004046
:1013A000004800404FF47A73B0FBF3F00022034B87
:1013B000013858609A6005221A60704710E000E01A
:1013C000084B82B01B68411C0193019B054B18BF61
:1013D000013008B902B070471A68D20348BF00F163
:1013E000FF30F6E710E000E0014B1860704700BFE7
:1013F0001000002008B500F00DFE002008BD30B53B
:10140000B0F9084085B0842C08BF0024028A18BFB8
:1014100003340B4690E8220003A80190009428466C
:1014200000F028FD012814BF0020039805B030BD4E
:1014300008B5002808BF012000F03AFF002008BDD1
:1014400000F1080343604FF0FF32C36003610023E3
:1014500082600360704700230361704743689A68A5
:101460004B608A609A685160996003680861013333
:10147000036070470A6830B5531C0AD103695A6883
:101480004A6091608B6059600368086101330360B2
:1014900030BD00F108035C682568AA42EFD32346FB
:1014A000F9E74168826803698A6082685160596817
:1014B000884208BF5A60002202611868013818602B
:1014C000704700000A4B1B68013308D04FF05003EF
:1014D00083F31188BFF36F8FBFF34F8FFEE74FF099
:1014E000500383F31188BFF36F8FBFF34F8FFEE775
:1014F0000C00002006480068006880F3088862B687
:1015000061B6BFF34F8FBFF36F8F00DF00BF0000E6
:1015100008ED00E04FF0807340F8043C054B21F0EB
:10152000010140F8081C40F80C3C40F8202C4038E1
:10153000704700BFC5140008000000000000000054
:10154000074B19680868B0E8F00F80F30988BFF30B
:101550006F8F4FF0000080F311884EF00D0E704732
:10156000281200204FF0500383F31188BFF36F8FD0
:10157000BFF34F8F0A4A13680133012B13600DD15B
:10158000084B1B6813F0FF0F08D04FF0500383F394
:101590001188BFF36F8FBFF34F8FFEE7704700BF17
:1015A0000C00002004ED00E0084A136843B94FF036
:1015B000500383F31188BFF36F8FBFF34F8FFEE7A4
:1015C000013B13600BB983F3118870470C000020B6
:1015D000EFF30980BFF36F8F0D4B1A6820E9F00F0E
:1015E00010602DE908404FF0500080F3118800F0A2
:1015F000BDFE4FF0000080F31188BDE80840196877
:101600000868B0E8F00F80F30988BFF36F8F704768
:101610002812002008B54FF0500383F31188BFF360
:101620006F8FBFF34F8F00F039FD18B14FF080522C
:10163000024B1A60002383F3118808BD04ED00E01B
:101640004FF47A72054B1B68B3FBF2F3044A013B7B
:1016500013600722034B1A60704700BF1000002080
:1016600014E000E010E000E013B51F4B00211A78F1
:10167000D2B20192FF221A701B781C4ADBB28DF89D
:1016800003309DF8033003F0500313700722184B0A
:101690001A609DF80300541E00061CD401B11A60A4
:1016A0001A68120202F4E0621A60019B0E4ADBB271
:1016B0001370104B1A6842F470021A601A6842F0F4
:1016C00070421A60FFF7BCFF00220B4B1A60FFF755
:1016D00011FFFFF7F7FE9DF8032001215200D2B25F
:1016E0008DF803202246D4E700E400E00802002041
:1016F0000C02002020ED00E00C00002010B50F4B84
:101700001A68824218D35C681919884201BF41687F
:10171000184609195960446801198A4207D10849D5
:1017200009688A421FBF51681268091941609842CE
:10173000026018BF186010BD1346E1E720120020B8
:10174000100200202DE9F041044600F09FFC3E49C4
:101750003E4D0B680BBB3E4A56071DBFD01D20F007
:10176000070002F580534FF480531CBF02461B1A3A
:1017700000201344374E083B23F0070370603260AB
:10178000586018600B60981A1360334B50601860F3
:10179000324B18604FF000432B602F68274216D160
:1017A000002C40D004F1080358071CBF23F00703A6
:1017B000083363B1294A16689046B34207D8254AD0
:1017C00015686868834204D809688D4207D10024EF
:1017D00029E02C68002CF7D02A462546F1E7296835
:1017E00014681160C21A102A0FD9E818410708D0EE
:1017F0004FF0500383F31188BFF36F8FBFF34F8F08
:10180000FEE742606B60FFF779FF6B681249F61ADA
:101810001F4300230868C8F80060864238BF0E6086
:1018200008346F602B6000F0CBFC630708D04FF0EA
:10183000500383F31188BFF36F8FBFF34F8FFEE721
:101840002046BDE8F08100BF1002002014120020E5
:1018500014020020201200201C1200201812002068
:1018600010B5044670B3184A50F8043C126813428D
:1018700008D14FF0500383F31188BFF36F8FBFF38C
:101880004F8FFEE750F8081C41B14FF0500383F32F
:101890001188BFF36F8FBFF34F8FFEE723EA020378
:1018A00040F8043C00F0F2FB084A54F8043C11688C
:1018B000A4F108000B441360FFF720FFBDE81040BF
:1018C00000F07EBC10BD00BF1412002018120020D2
:1018D00070B51546026C0446866B42B905689DB921
:1018E000406800F081FE65600136A66370BD6DB989
:1018F000806801F031FDA368226C13446268A36024
:10190000934201D32368A3600020EDE7C06801F093
:1019100023FD236CE2685B4221681A448A42E2603C
:101920003EBF62689B18E360022DEDD10EB1013E0F
:10193000EAE73046D8E703461A6C10B4084662B1AD
:10194000D9685C681144A142D96028BF196810BCED
:1019500028BFD960D96801F0FFBC10BC704770B5D2
:101960000446FFF7FFFD94F8455004F124066DB2DC
:10197000002D14DCFF2384F84530FFF715FEFFF738
:10198000F1FD94F8445004F110066DB2002D12DC04
:10199000FF2384F84430BDE87040FFF705BE636A5A
:1019A000002BE7D0304600F035FD08B100F0BEFD59
:1019B000013D6DB2DCE72369002BE9D0304600F031
:1019C00029FD08B100F0B2FD013D6DB2DEE7000077
:1019D00038B50D46044640B94FF0500383F31188E3
:1019E000BFF36F8FBFF34F8FFEE7FFF7BBFD206C98
:1019F000E36B22684343D1181B1A13446160E36010
:101A00000021FF23A163A26084F8443084F84530AC
:101A100095B9236963B104F1100000F0FBFC38B103
:101A20004FF08052094B1A60BFF34F8FBFF36F8F97
:101A3000FFF7BAFD012038BD04F11000FFF700FDEB
:101A400004F12400FFF7FCFCF2E700BF04ED00E026
:101A500070B50D46064640B94FF0500383F3118828
:101A6000BFF36F8FBFF34F8FFEE748434830FFF758
:101A700069FE044638B145B92060E663256401215A
:101A80002046FFF7A5FF204670BD00F14803036024
:101A9000F3E700002DE9FF47894601921F460446FF
:101AA00040B94FF0500383F31188BFF36F8FBFF33A
:101AB0004F8FFEE7002940F08880036C002B00F078
:101AC00084804FF0500383F31188BFF36F8FBFF30F
:101AD0004F8FFEE7019E002E00F082804FF05003F2
:101AE00083F31188BFF36F8FBFF34F8FFEE7019D24
:101AF0001DB9FFF759FD002058E016B902A800F003
:101B0000CBFCFFF751FD00F0C1FAFFF72BFD94F875
:101B10004430FF2B08BF84F8448094F84530FF2BF5
:101B200008BF84F84580FFF73FFD01A902A800F037
:101B3000C3FC002843D1FFF715FDA66BE56BFFF74B
:101B400033FDAE4235D1019904F1100000F048FC9C
:101B50002046FFF704FF00F033FB38B94FF0805305
:101B6000CAF80030BFF34F8FBFF36F8F0126FFF726
:101B7000F9FCA26BE36B9A4201D3022FB7D13A462C
:101B800049462046FFF7A4FE636A1BB104F1240016
:101B900000F040FC38B14FF08052184B1A60BFF390
:101BA0004F8FBFF36F8FFFF7FFFC012004B0BDE83C
:101BB000F0872046FFF7D3FE00F002FBD6E7204671
:101BC000FFF7CDFE00F0FCFA95E7022F02D1E36BA0
:101BD000012B0AD100F0B0FC00283FF47BAF0026B7
:101BE0004FF00008DFF814A0C1E74FF0500383F373
:101BF0001188BFF36F8FBFF34F8FFEE704ED00E056
:101C00002DE9FF47884601929946044640B94FF0B6
:101C1000500383F31188BFF36F8FBFF34F8FFEE73D
:101C2000002940F0A580036C002B00F0A1804FF04C
:101C3000500383F31188BFF36F8FBFF34F8FFEE71D
:101C4000019E002E00F09A804FF0500383F311881C
:101C5000BFF36F8FBFF34F8FFEE7636AE660002B21
:101C60006DD004F124005FE0019D1DB9FFF79CFCDD
:101C7000284667E016B902A800F00EFCFFF794FCB6
:101C800000F004FAFFF76EFC94F84430FF2B08BF15
:101C900084F8447094F84530FF2B08BF84F84570F1
:101CA000FFF782FC01A902A800F006FC002852D12F
:101CB000FFF758FCA56BFFF777FC002D45D1236893
:101CC00033B9FFF74FFC606800F046FCFFF76CFC8F
:101CD000019904F1240000F083FB2046FFF73FFE4A
:101CE00000F06EFA38B94FF08053CAF80030BFF3F5
:101CF0004F8FBFF36F8F0126FFF734FCA56B002DCC
:101D0000B2D041462046E668FFF715FEB9F1000F54
:101D1000A3D12368013DA56313B900F0B5FC606051
:101D2000236963B104F1100000F074FB38B14FF087
:101D30008052144B1A60BFF34F8FBFF36F8FFFF7C2
:101D400033FC012004B0BDE8F0872046FFF707FE12
:101D500000F036FACFE72046FFF701FE00F030FA38
:101D6000FFF700FCA56BFFF71FFC002DC3D17FE739
:101D700000F0E2FB00283FF463AF00260027DFF805
:101D800004A0B9E704ED00E010B5044640B94FF0F7
:101D9000500383F31188BFF36F8FBFF34F8FFEE7BC
:101DA000FFF7E0FBA46BFFF7FFFB204610BD000030
:101DB000064A13681968064B19B94FF0FF321A60CA
:101DC00070471268D268D2685268F8E72C12002077
:101DD00004130020F8B51B4B1B4E1D6804463068E9
:101DE0000F460430FFF75DFB334640B901203168F0
:101DF000164EC96A3268884022EA00023260621CCC
:101E000007D137B1196812480431BDE8F840FFF72F
:101E100025BB2C441A68A542546007D90D4A1068A6
:101E20001968BDE8F8400431FFF724BB0A4A10687E
:101E300019680431FFF71EFB084B1A68944238BF3B
:101E40001C60F8BD4C13002028120020D412002082
:101E500024130020301200202C1200200413002034
:101E60004FF0500383F31188BFF36F8FBFF34F8F91
:101E7000FEE700002DE9F84F4FEA820A80465046FF
:101E80000F4699460B9EFFF75DFC0546002800F0C3
:101E900096805420FFF756FC0446002800F08C8002
:101EA000AAF1040A056355447B1E25F0070A00F1D8
:101EB00034020F37597802F8011B13F8011F09B1DA
:101EC000BB42F7D10A9D4FF0000B062D28BF062517
:101ED000271DE5626564384684F843B0C4F848B00D
:101EE000FFF7B9FAC5F1070504F11800FFF7B3FAD7
:101EF000C4F84CB02461A561646284F850B04A46CD
:101F000041465046FFF706FB206006B13460FFF7FC
:101F100029FB324B324E1A68DFF8F08001321A602A
:101F20003568002D4ED134601B68012B1DD108EBA4
:101F300005001435FFF784FA8C2DF8D1DFF8D09026
:101F4000284D4846FFF77CFA2846FFF779FA2648DD
:101F5000FFF776FA2548FFF773FA2548FFF770FA7E
:101F6000244BC3F80090244B1D600125234A2449CB
:101F70001368086801331360E26A05FA02F3034349
:101F800014200B6000FB02803946FFF767FAFFF769
:101F90000BFB1C4B1B6863B13368DA6AE36A9A4235
:101FA00007D24FF08052184B1A60BFF34F8FBFF328
:101FB0006F8F2846BDE8F88F2846FFF751FC4FF099
:101FC000FF35F6E70F4B1B68002BCED13368DA6A7A
:101FD000E36A9A4298BF3460C7E700BFC01200208E
:101FE00028120020EC1200200C13002038130020CF
:101FF000241300202C12002030120020D0120020C8
:10200000D41200202013002004ED00E03412002040
:10201000D812002013B50024164B0094019380229F
:10202000234615491548FFF725FF012814D14FF025
:10203000500383F31188BFF36F8FBFF34F8F4FF0BF
:10204000FF320F4B1A600F4B18600F4B1C6002B031
:10205000BDE81040FFF708BB013008D14FF0500336
:1020600083F31188BFF36F8FBFF34F8FFEE702B08A
:1020700010BD00BF0013002058400008F9220008DE
:1020800004130020201300204C130020024A136880
:1020900001331360704700BFCC1200202DE9F84FC8
:1020A0003C4B1B68002B53D13B4B1C6801341C601C
:1020B000BCB93A4B1A68126842B14FF0500383F32F
:1020C0001188BFF36F8FBFF34F8FFEE7344A196853
:1020D000106818601160334A136801331360FFF70A
:1020E00067FE314D4FF0000B2B68304F9C423ED3C2
:1020F000DFF8A880DFF8C490D8F80020126872BB1F
:102100004FF0FF322A6032E006F1040A5046FFF732
:10211000C8F9B16A19B106F11800FFF7C2F9012236
:102120004FF0140EF06AD9F8003002FA00F11943AA
:102130001F4BC9F800100EFB00305146FFF78EF917
:102140003868F16AC26A914228BF4FF0010BD3E7A9
:10215000184A4FF0000B13680133136011E0D8F8F0
:102160000020D268D66871688C42CDD229603A6866
:102170000F4BD16A14224A439A58022A28BF4FF0C3
:10218000010B0D4A1268002A18BF4FF0010B584688
:10219000BDE8F88FCC1200204C1300202C12002038
:1021A0003012002008130020041300202812002001
:1021B00034120020C812002050130020D412002036
:1021C0002DE9F843314C236843B94FF0500383F3B2
:1021D0001188BFF36F8FBFF34F8FFEE7FFF7C2F990
:1021E0002368013B236024682CB10024FFF7DCF94D
:1021F0002046BDE8F883264B1B68002BF5D0DFF89E
:10220000A890244FDFF8A480D9F80030E3B90CB1CE
:10221000FFF7CEFD204D2C6844B101271F4EFFF77C
:102220003DFF00B13760013CF9D12C601B4B1B68AE
:10223000002BDAD04FF08052194B1A60BFF34F8F4A
:10224000BFF36F8F0124D1E7D9F80C300125DC688A
:10225000261D04F11800FFF724F93046FFF721F995
:102260001420E26A396805FA02F30B4300FB02808E
:1022700031463B60FFF7F2F80A4BE26A1B68DB6A03
:102280009A4224BF054B1D60BEE700BFCC12002060
:10229000C0120020D4120020C812002050130020C9
:1022A00004ED00E0281200200C130020341200205E
:1022B00008B540B94FF080520D4B1A60BFF34F8FF5
:1022C000BFF36F8F08BD0B4B196841B14FF050033E
:1022D00083F31188BFF36F8FBFF34F8FFEE7FFF7D4
:1022E000D5FEFFF777FDFFF76BFF0028E2D008BDB2
:1022F00004ED00E0CC12002008B5174E174C2368FF
:1023000063B9174B1B68012BF8D94FF08052154B5E
:102310001A60BFF34F8FBFF36F8FEFE7FFF7B6FE83
:102320003568FFF74DFF002DE9D0FFF71BF9F36883
:10233000DD68281DFFF7B5F80B4A1368013B1360F1
:102340002368013B2360FFF72FF9286BFFF788FA1A
:102350002846FFF785FAD2E738130020C412002080
:102360003412002004ED00E0C0120020174B10B51D
:102370001A68174B12B101221A6010BD1A60154B72
:102380001B68B3FA83F31422DBB2C3F11F035A4371
:1023900011498C58881844B94FF0500383F31188C1
:1023A000BFF36F8FBFF34F8FFEE744680832646856
:1023B0000A44944208BF6268446008BF4260142225
:1023C00002FB03135B68DA68044BD5E7CC120020EC
:1023D00050130020D41200203412002028120020B4
:1023E00010B50C4640B94FF0500383F31188BFF38A
:1023F0006F8FBFF34F8FFEE7054B19681831FFF75A
:1024000039F82046BDE810400121FFF7E3BC00BFCA
:102410002812002038B5C368DC6844B94FF0500377
:1024200083F31188BFF36F8FBFF34F8FFEE704F183
:1024300018052846FFF735F8114B1B68E3B9251D31
:102440002846FFF72EF801230E49E26A08689340F8
:10245000034314200B6029460B4B00FB0230FEF7B0
:10246000FDFF0A4BE26A1B68DB6A9A4285BF0120C6
:10247000074B0020186038BD29460648EFE700BF2B
:10248000CC120020D4120020341200202812002088
:10249000501300200C13002008B508B9FFF7E0FC2A
:1024A000034B1B680360034B1B68436008BD00BF00
:1024B000081300204C13002038B50D46044640B9DF
:1024C0004FF0500383F31188BFF36F8FBFF34F8F2B
:1024D000FEE741B94FF0500383F31188BFF36F8FCC
:1024E000BFF34F8FFEE7FFF73DF80E4B19682B68DF
:1024F0005A1C10D00C4A206812689042626801D0C1
:1025000091420DD2881A83420AD95B1A13442B6078
:102510002046FFF7C1FF0024FFF746F8204638BDEC
:102520000124F9E74C130020081300200122014B7D
:102530001A60704750130020054B1B6833B1054BE0
:102540001B68002B0CBF0220002070470120704741
:1025500020130020CC1200202DE9F0410446002871
:1025600039D01E4DC36A2A68D26A934233D21427E7
:1025700082691B4E002AA8BF2A6807FB0363A2BF1B
:10258000D26AC2F10702826142699A4220D100F107
:1025900004084046FEF785FF124A48B9E06A4743FF
:1025A000F3592BB901211368814023EA0103136019
:1025B0002B681168D86A012383400B4313601423EE
:1025C000E062414603FB0060BDE8F041FEF746BF14
:1025D0002B68DB6AC362BDE8F08100BF28120020CF
:1025E00034120020D4120020F8B5044608B90020A7
:1025F000F8BD224B1B68984208D04FF0500383F37C
:102600001188BFF36F8FBFF34F8FFEE7836C43B921
:102610004FF0500383F31188BFF36F8FBFF34F8FD9
:10262000FEE7C16A426C013B91428364DFD0002B1C
:10263000DDD1051D2846FEF734FF114E114A50B971
:102640001421E76A794373582BB901201368B84005
:1026500023EA00031360636CC3F10701E362A16125
:102660000124116804FA03F008431060142029467D
:1026700000FB0360FEF7F2FE2046F8BD28120020A2
:1026800034120020D4120020044B1A681AB11968C1
:102690008A6C01328A641868704700BF28120020D3
:1026A000FEF78EBE014B9868704700BF10E000E057
:1026B00000F00700C0F10702031D042A28BF04220E
:1026C000062B4FF0010398BF002003FA02F303F139
:1026D000FF3388BF033803F0080303FA00F07047A4
:1026E00070B501240025022688B001A80295019644
:1026F0008DF808408DF80A40FEF7CCFB4FF480635C
:1027000001A801938DF808408DF809508DF80A60F2
:10271000FEF7C0FB2149F0238A6893FAA3F3B3FACA
:1027200083F322F0F00204FA03F313438B600B6986
:102730004FF4706292FAA2F2B2FA82F223F470635A
:1027400094401C4314220C6103A8294600F00FFE9C
:10275000134B144C039308230493032303A9124837
:102760000593FEF7EFFBE068C0F30220FFF7A0FF40
:1027700080230E490001C0B281F807030B60E068B6
:10278000C0F30220FFF794FF4FF480730001C0B242
:1027900081F828034B6008B070BD00BF0000014005
:1027A0000E020C0400ED00E0000C014000E100E02E
:1027B0000222034B5A610122024B1A70704700BF7C
:1027C0000004014054130020014B1878704700BFEB
:1027D000541300200022014B1A707047541300203C
:1027E000014B1878704700BF571300200022014B9F
:1027F0001A70704757130020014B1878704700BFBC
:1028000055130020014B1878704700BF5613002065
:10281000034B9B689BB243FA00F000F00100704745
:10282000000C01404FF4806208B50B4B0A205A613E
:1028300001220A4B1A70FFF7EBFF003018BF01208E
:10284000074B18700B20FFF7E3FF003018BF012083
:10285000044B187008BD00BF00040140571300204E
:10286000551300205613002008B500220421022031
:10287000FFF7EEF8014B186008BD00BF7419002087
:1028800010B4054C002320800448A1706422214626
:10289000006810BCFFF7FEB87819002074190020FA
:1028A000002307B508481A4669460068FFF7A8F9EB
:1028B0000020009B9AB262F30F001B0C63F31F40D1
:1028C00003B05DF804FB00BF7419002008B5044B89
:1028D0001868FFF759FA003018BF012008BD00BF83
:1028E0007419002008B5FDF74BFF00250E4CFDF7CD
:1028F00049FF022814D0032807D001280CD14FF635
:1029000018402178FFF7BCFF06E023780133DBB2E3
:10291000042B94BF237025700520FEF789FDE6E7A0
:1029200021784FF47A70EDE758130020002307B5A3
:1029300080220193009303490348FFF79BFA03B0F9
:102940005DF804FB5D400008E528000808B500F0CC
:102950006FFAFDF795FD154D154E164CFDF788FEE7
:1029600058B129463046FDF72BFE30B15020FDF717
:10297000F7FD10B100F08AFA0DE0237801332370DF
:10298000FDF785FD4FF47A70FFF78AFE2378042B5C
:10299000E4DD00F083FA084D084C20460222294667
:1029A000FEF722F80A20FEF743FDF6E7654000082F
:1029B0006E400008591300201C3E00080000002053
:1029C00007B50023012205498DE80C000448802248
:1029D000FFF750FA03B05DF804FB00BF6E4000083B
:1029E0004D29000810B54FF0007393FAA3F2B2FA24
:1029F00082F20B4CD3404FF0F87090FAA0F1B1FA8C
:102A000081F290FAA0F04FF44001D140072202FA7F
:102A100001F154F8232022EA010244F8232010BDDA
:102A20000C24014030B5002491B02146142206A8A0
:102A300004940594019400F09AFC214614220BA8FA
:102A400000F095FC2D4B2E4D9A690BA942F40072B3
:102A50009A619A692B4802F400720392039A9A6968
:102A600042F004029A619B6903F004030293029B03
:102A700041F210030B93FEF765FA04A9284604946B
:102A80000594FEF7D1F910A941F83C4D2846FEF710
:102A9000B5F94FF4602306A92846069307940894D5
:102AA00009940A94FEF7D3F94FF4407393FAA3F311
:102AB0004FF40072B3FA83F31349DA4051F822302D
:102AC00023F01F0343F0040341F82230FFF78AFF8D
:102AD0004FF480220D4BDB680D4B83F812431A60D4
:102AE0006B6843F020036B60AB68DB075EBFAB68CD
:102AF00043F00103AB6011B030BD00BF00100240D5
:102B000000240140000801402C24014000ED00E0B9
:102B100000E100E010B50A4CA368DA070FD5FFF713
:102B200061FFA368012043F00103A360FEF748FCA6
:102B3000A36843F00403A360A3685B07FCD410BD43
:102B400000240140054B1A68920705D56FF0020278
:102B50001A60DA6C024B1A80704700BF00240140F3
:102B60005A130020014B1888704700BF5A130020E9
:102B7000022108B500220846FEF76AFF014B1860E3
:102B800008BD00BF7C19002007B502A921F8020D7D
:102B90000448002364220068FEF77CFF03B05DF860
:102BA00004FB00BF7C190020002307B505481A4626
:102BB0000DF106010068FFF723F8BDF8060003B029
:102BC0005DF804FB7C19002008B5044B1868FFF77A
:102BD000DBF8003018BF012008BD00BF7C190020C1
:102BE00008B5FDF7E9FDFDF7E9FDFFF7CDFF64202E
:102BF000FEF71EFCF7E70000002307B580220193D3
:102C0000009303490348FFF735F903B05DF804FB6F
:102C100072400008E12B0008F0B5142495B022465C
:102C2000002102A83E4E00F0A2FB202200210CA8A9
:102C300000F09DFB2246002107A800F098FBF369F5
:102C4000384C43F00403F361F36902A903F0040371
:102C50000193019B40F6FF7320460493FEF750FA60
:102C60002368002543F08003236060230D950C93B7
:102C70000E95E36A0CAA012120460F931095119539
:102C800012951395FEF774FAA3690CAA23F00403B6
:102C9000A361102120460D950E95FEF769FAA369F0
:102CA000214F23F48063A3610CAA4FF48071204666
:102CB0000D950E95FEF75CFA7B6807A923F00403D7
:102CC0007B606368194823F070036360A36823F096
:102CD0008003A360B36943F00803B361B3690A9545
:102CE00003F008030093009B114B079309230893FB
:102CF00003230993FEF726F9236A43F4887343F00C
:102D000001032362236843F001032360636943F0F6
:102D1000010363616563A563E56315B0F0BD00BFA2
:102D2000001002400008004018080040000C01405C
:102D3000C1C00104014B5863704700BF0008004048
:102D4000014B9863704700BF00080040014BD863F7
:102D5000704700BF00080040F7B5FDF747FD40F69B
:102D6000FF76FFF7B3FDF8B1FFF79AFD019007B2C8
:102D70000020FDF757FD04B20120FDF753FD05B219
:102D80000220FDF74FFD9DF9063000B2013B032BF9
:102D90000AD8DFE803F002161C220020E11981F3B3
:102DA0000C0189B2FDF72CFDFFF70EFF10B1FFF704
:102DB000FBFE06463046FDF747FD0A20FEF738FBCE
:102DC000CFE7E91981F30C0189B20120EAE7C119C3
:102DD00081F30C0189B20220E4E740F6FF73C219C7
:102DE00022EAE272E9199A4221EAE17104EB070052
:102DF000A8BF1A4620EAE0709942A8BF1946984237
:102E0000A8BF184692B289B280B2FDF7F1FCCBE7B9
:102E1000002307B580220193009303490348FFF77D
:102E200029F803B05DF804FB76400008592D00082E
:102E3000134B00B59A6989B042F004029A619A690D
:102E4000002102F004020292029A9A6903A842F059
:102E500008029A619B69142203F008030193019B05
:102E600000F085FA074B03A903930123049303237E
:102E700005480593FEF766F809B05DF804FB00BF4E
:102E80000010024020002004000C01404FF40052CA
:102E9000014B1A61704700BF000C014008B5044C9B
:102EA000E368C82083F40053E360FEF789FAF7E78C
:102EB000000C0140024B58601A685206FCD570475E
:102EC0000038014070B50446074D4618B44200D1A1
:102ED00070BD14F8013B02206B60FEF771FA2B689D
:102EE0005B06FCD5F2E700BF0038014007B5054B93
:102EF0005B68DBB201930198C0B2FDF7A9FD03B096
:102F00005DF804FB003801402022054B82B0C3F875
:102F10008420044B1B680193019B02B0704700BFE3
:102F200000E100E000380140054B1A68920604D524
:102F3000DB689B0601D5FFF7D9BFFFF7E5BF00BFF0
:102F40000038014038B54FF48075034C642065614A
:102F5000FEF736FA256138BD000801402DE9F04141
:102F60008EB01822002108A800F001FA14220021D6
:102F700003A800F0FCF9344B01279A694FF00308CD
:102F800042F480429A619A69304E02F48042029281
:102F9000029A9A6903A942F004029A619B69304639
:102FA00003F004030193019B294BCDF81480039394
:102FB000092307970493FDF7C5FF264B03A9039345
:102FC0000423304600250493CDF814800797FDF7BD
:102FD000B9FF2022204B214CDB68214B0DEB020175
:102FE00083F825535A604FF4E13308930C232046AD
:102FF0000C9309950A950B950D95FEF781F92369B8
:1030000003A923F4904323616369304623F02A0324
:103010006361E36843F40053E360E36843F0200333
:10302000E36063693B4363610E4B04970393CDF800
:10303000148006950797FDF785FF4FF48073336181
:103040000EB0BDE8F08100BF001002400008014052
:10305000020002040400040400ED00E00038014016
:1030600000E100E00100010408B50120FEF7E0F9ED
:10307000FBE7000030B50D4D87B001AC0FCD0FC49C
:103080002B68002101A82360FEF7B9F9084B1860EE
:10309000FFF7EAFBFFF76CFDFFF7BAFEFFF790FCC6
:1030A000FFF7AAFDFFF742FC07B030BD803D0008E6
:1030B0008019002008B51A4B1A6822F007021A601E
:1030C0001B68184B1A6822F0F80242F080021A605E
:1030D0001A6842F001021A601A689207FCD55A6811
:1030E00022F0F0025A605A6822F4E0625A605A688C
:1030F00022F460525A605A6822F003025A605A68F9
:1031000012F00C0FFBD10848FEF74CF9074A0648AD
:10311000136843F004031360BDE80840FEF764B988
:10312000002002400010024000127A0010E000E08F
:1031300008B5FDF7BFFCFFF7BDFFFFF79BFFFEF7EC
:1031400059F9FEE70268034B9A4201D1FDF7C4BC6E
:10315000704700BF002C0140114B07B59A690F2141
:1031600042F001029A619A696FF0010002F00102D7
:103170000092009ADA6942F08052DA61DB6900223B
:1031800003F080530193019BFDF7C4FC054A53688B
:1031900023F0E06343F00073536003B05DF804FB79
:1031A000001002400000014010B5014688B0002226
:1031B0001920FDF7AFFC1920FDF7E0FC144B01A925
:1031C0009A6903A842F400629A619B69114C03F466
:1031D00000630293029BFDF7EDFCFDF7DBFC0E4B59
:1031E000236040F2E733E3600C4BB0FBF3F00023C5
:1031F0000138606020462361A360FDF7E3FD20B93C
:103200002046FDF7F6FC08B010BD0120FBE700BF2B
:103210000010024084190020002C014040420F00A1
:103220007047FEE7FEE7FEE7FEE770470148FDF75F
:10323000EFBC00BF8419002008B50A4B024619688C
:1032400009B9094919606946186802448A4206D9D1
:1032500000F058F80C2303604FF0FF3008BD1A60EF
:1032600008BD00BF5C130020C81900200F4B1A686E
:1032700042F001021A6059680D4A0A405A601A6801
:1032800022F0847222F480321A601A6822F48022BA
:103290001A605A6822F4FE025A604FF41F029A60C4
:1032A0004FF00062034B9A60704700BF001002406D
:1032B0000000FFF800ED00E0002103E00B4B5B583D
:1032C000435004310A480B4B42189A42F6D30A4A3B
:1032D00002E0002342F8043B084B9A42F9D3FFF77F
:1032E000C5FF00F015F8FFF723FF7047EC41000819
:1032F00000000020E4010020E4010020C8190020A3
:10330000FEE70000014B1868704700BF1400002062
:1033100070B500250C4E0D4CA41BA410A54209D17C
:1033200000F022FD00250A4E0A4CA41BA410A54261
:1033300005D170BD56F8253098470135EEE756F8AF
:10334000253098470135F2E7E4410008E4410008E0
:10335000E4410008E841000810B5431E0A449142C8
:1033600000D110BD11F8014B03F8014FF7E70346F8
:103370000244934200D1704703F8011BF9E70000B3
:103380000EB44FF4027100B59CB0ADF814106FF09C
:103390000041049107914FF6FF711DAB029006901A
:1033A000084853F8042BADF81610006802A90193E1
:1033B00000F02CF90022029B1A701CB05DF804EB9F
:1033C00003B0704714000020F0B5037833B1034612
:1033D00018465E1C1B7833B91846F0BD0B78002BDD
:1033E00018BF0020F0BD4D1E441E15F8012F002A05
:1033F000F3D014F8017F33469742F6D0E8E72DE981
:10340000F84F8046894692461F468B465D460A988D
:1034100015F8014B00F08AF82044467816F00806AB
:103420000BD12D2C0BD101262C780BF1020567B1A5
:10343000102F14D1302C0AD011E0AB46E6E72B2C2C
:1034400004BF2C780BF10205F1E7302C27D12B7843
:1034500003F0DF03582B4BD110276C780235002E78
:103460000CBF6FF000414FF000410022B1FBF7FEAE
:10347000104607FB1E1CA4F13003092B11D81C4673
:10348000A7421DDD531C07D0864516D301D1A445A4
:1034900013DB012200FB074015F8014BEBE70A277D
:1034A000DDE7A4F14103192B01D8373CE8E7A4F18B
:1034B0006103192B04D8573CE2E74FF0FF32EBE7EA
:1034C000531C08D122230846C8F80030BAF1000F77
:1034D00007D1BDE8F88F06B14042BAF1000F0CD019
:1034E00022B1013DCAF80050BDE8F88F4D46F9E71A
:1034F0003024002FB3D10827B1E7BDE8F88F0000D2
:10350000084B37B51C68084D236A002B08BF2B46B3
:10351000009313460A4601462046FFF770FF03B0AA
:1035200030BD00BF1400002078000020D0F8EC006F
:10353000704782B001B901A942B14BB113780B6059
:103540001278101C18BF012002B070471046FBE72C
:103550006FF00100F8E72DE9F0478E6882469E4241
:103560000C469146984635D88A8912F4906F31D02E
:103570000223256809696F1A656905EB450595FB06
:10358000F3F508F101033B449D4238BF1D46530546
:1035900031D5294600F048FB064650B90C23CAF83D
:1035A0000030A3894FF0FF3043F04003A381BDE812
:1035B000F0873A462169FFF7CFFEA38923F4906391
:1035C00043F08003A38126613E4426604646656140
:1035D000ED1BA560464528BF464649463246206851
:1035E00000F0BBFAA36800209B1BA36023681E4465
:1035F0002660BDE8F0872A4600F074FB06460028E6
:10360000E1D12169504600F0C3FAC7E72DE9F04F38
:103610009DB003938B8980461C060D4616460FD538
:103620000B696BB9402100F0FFFA2860286128B9C6
:103630000C23C8F800304FF0FF30C4E040236B612A
:103640000023099320238DF8293030234FF0010BFC
:103650008DF82A3037463C4614F8013B002B3CD10C
:10366000B7EB060A0BD05346324629464046FFF7D1
:1036700072FF013000F0A280099B534409933B780C
:10368000002B00F09B8000234FF0FF320493079340
:10369000059206938DF853301A93052221785048ED
:1036A00000F04DFA671C049BD8B9D90644BF20220C
:1036B0008DF853201A0744BF2B228DF8532022780F
:1036C0002A2A16D000210A20079A27463B7801347F
:1036D000303B092B50D9C9B111E0252BC0D027466A
:1036E000B9E73F4A3C46801A0BFA00F018430490B1
:1036F000D3E7039A111D12680391002A01DB079298
:1037000004E0524243F00203079204933B782E2BCD
:103710000DD17B78791C2A2B32D1039B02371A1DDD
:103720001B680392002BB8BF4FF0FF3305932D4C5D
:1037300003223978204600F002FA38B14023001BFA
:1037400003FA00F0049B01370343049339780622FF
:1037500025487E1C8DF8281000F0F1F9002835D09E
:10376000224BFBB9039B073323F007030833039372
:10377000099B4B4409936DE700FB02320121A4E74A
:1037800000230A24184605930F463A780131303A4F
:10379000092A03D9002BCAD00590C8E704FB0020F2
:1037A0000123F1E703AB00932A46114B04A94046DD
:1037B000AFF30080B0F1FF3F8146D9D1AB895B0602
:1037C0003FF539AF09981DB0BDE8F08F03AB00930A
:1037D0002A46074B04A9404600F084F8EAE700BFF8
:1037E000A8400008AE400008B240000800000000F9
:1037F000573500082DE9F04791461F468A680B6946
:1038000006469342B8BF1346C9F8003091F84320EA
:103810000C46DDF8208012B10133C9F8003023686E
:10382000990642BFD9F800300233C9F80030256844
:1038300015F0060507D104F1190AE368D9F800204C
:103840009B1A9D422ADB94F843302268003318BF4C
:10385000012392062FD404F1430239463046C04773
:10386000013022D02368E56803F00603042B18BF5B
:103870000025D9F800204FF0000908BFAD1AA36851
:10388000226908BF25EAE5759342C4BF9B1AED186B
:103890001A344D451BD10020BDE8F0870123524664
:1038A00039463046C047013003D14FF0FF30BDE804
:1038B000F0870135C1E73020E11881F843005A1C38
:1038C00094F845102244023382F84310C3E70123E1
:1038D000224639463046C0470130E6D009F1010999
:1038E000D7E700002DE9F04317460A7E85B06E2A1F
:1038F000984606460C460C9B01F1430E00F0BC8036
:103900001AD8632A2ED00AD8002A00F0C880582A74
:1039100000F08A8004F1420584F842202AE0642AFB
:1039200001D0692AF6D121681A6811F0800F23D0DE
:10393000111D1960136827E0732A00F0B48008D8BD
:103940006F2A2AD0702AE5D10A6842F020020A6064
:1039500003E0752A21D0782ADCD178226F4984F8D7
:10396000452064E01A6801F14205111D19601368D1
:1039700084F842300123A3E011F0400F02F104016A
:103980001960D7D0B2F90030002B03DA2D225B4248
:1039900084F8432062490A2217E02068196810F071
:1039A000800F03D0081D18600B6806E010F0400F70
:1039B00001F104001860F7D00B886F2A14BF0A22A7
:1039C00008225749002084F843006568002DA5604F
:1039D000C0F29C80206820F004002060002B3FD1C2
:1039E000002D40F095807546082A0BD12368DA0730
:1039F00008D5236962689A42DEBF302305F8013C8E
:103A000005F1FF35AEEB05032361CDF800803B46A1
:103A100003AA21463046FFF7EDFE013055D14FF0A5
:103A2000FF3005B0BDE8F08381F845203C492268AD
:103A3000186812F0800F00F104051D6001D00368C2
:103A400002E05506FBD50388D00744BF42F02002B0
:103A500022601BB9226822F0200222601022B1E706
:103A60007546B3FBF2F002FB1033CB5C05F8013D69
:103A700003460028F5D1B7E708681A6810F0800FF0
:103A8000496904D0101D18601368196007E010F030
:103A9000400F02F1040018601368F6D0198000236B
:103AA00075462361B1E71A68111D19601568002178
:103AB0006268284600F043F808B1401B6060636804
:103AC0002361002384F843309FE723692A4639465F
:103AD0003046C0470130A2D023689B0707D5002598
:103AE00004F11909E368039A9B1A9D4205DBE0681B
:103AF000039B9842B8BF184693E701234A463946CC
:103B00003046C04701308AD00135EBE7002BA7D102
:103B10000B7804F1420584F8423065E7CA4000089A
:103B2000B940000849B1FF2A8BBF8A230A7003609D
:103B3000012088BF4FF0FF3070470846704710B52E
:103B4000C9B202449042034601D1002010BD1C7846
:103B500001308C42F6D1184610BD884210B501EBF9
:103B6000020303D8421E99420CD110BD9842F9D2EB
:103B70008118D21AD34200D110BD13F8014D01F8BB
:103B8000014DF7E711F8014B02F8014FEBE7000098
:103B900038B50546002943D051F8043C0C1F002BD2
:103BA000B8BFE41800F0D4F81E4A1368104633B9C1
:103BB000636014602846BDE8384000F0CAB8A342EC
:103BC0000BD921686218934201BF1A685B685218CA
:103BD000226063600460EDE713465A680AB1A242AE
:103BE000FAD919685818A0420BD120680144581816
:103BF00082421960DED110685268014419605A602F
:103C0000D8E702D90C232B60D4E7206821188A4218
:103C100001BF116852680918216062605C60C9E7E1
:103C200038BD00BF6013002070B5CD1C25F0030522
:103C300008350C2D38BF0C25002D064601DBA942A6
:103C400003D90C233360002070BD00F081F8234AB3
:103C50001468214691B9224C23681BB9304600F004
:103C600067F820602946304600F062F8431C26D1F0
:103C70000C233046336000F06CF8E4E70B685B1B04
:103C80001AD40B2B0FD90B60CC18CD50304600F056
:103C900060F804F10B00231D20F00700C31A1BD0AD
:103CA0005A42E25070BD8C420BBF63684B68136090
:103CB000636018BF0C46E9E70C464968CAE7C41CB4
:103CC00024F00304A04205D0211A304600F030F859
:103CD0000130CDD02560D9E770BD00BF6013002052
:103CE00064130020F8B5074614460E4621B9114664
:103CF000BDE8F840FFF798BF22B9FFF749FF254616
:103D00002846F8BD00F026F884420FD921463846EF
:103D1000FFF78AFF05460028F2D031462246FFF71A
:103D20001BFB31463846FFF733FFE9E73546E7E747
:103D300038B50023054C054608462360FFF77CFA9A
:103D4000431C02D1236803B12B6038BDC419002085
:103D50007047704751F8040C0028A0F10400BCBF64
:103D60000B58C01870470000F8B500BFF8BC08BC7D
:103D70009E467047F8B500BFF8BC08BC9E46704729
:103D80007A400008693000080000000000000000D0
:103D90008000000041542B43495053454E443D257B
:103DA000642C25640D0A003E0041542B43574D4FAF
:103DB00044453D25640D0A0041542B43575341505F
:103DC0003D222573222C222573222C352C330D0AFB
:103DD0000041542B5253540D0A0041542B43495077
:103DE0004D55583D310D0A0041542B434950534520
:103DF000525645523D312C25640D0A0041542B4347
:103E000049505345525645523D302C25640D0A0009
:103E10004F4B002B4950442C00000000990800082B
:103E2000C5090008436F6E74656E742D4C656E672E
:103E300074683A20253034640D0A00253032782524
:103E400030327825303278003F7069636B65723D9F
:103E500025003C68746D6C3E3C686561643E3C7452
:103E600069746C653E455350383236363C2F746960
:103E7000746C653E3C2F686561643E3C626F64799A
:103E80003E3C7363726970743E6C657420666C614D
:103E900067203D20747275653B66756E6374696F4B
:103EA0006E20736574466C616728297B666C616758
:103EB000203D2066616C73653B7D3B66756E637467
:103EC000696F6E2072656C6F616428297B636F6E09
:103ED000736F6C652E6C6F6728666C6167293B6930
:103EE0006628666C6167297B646F63756D656E74A7
:103EF0002E6C6F636174696F6E2E72656C6F616496
:103F00002874727565293B7D7D3B73657454696DBA
:103F1000656F75742872656C6F61642C2035303064
:103F200030293B3C2F7363726970743E3C703E4392
:103F3000686F6F736520796F757220636F6C6F7235
:103F40003A3C2F703E3C666F726D206D6574686FF1
:103F5000643D22676574223E3C696E7075742074FE
:103F60007970653D22636F6C6F72222076616C758B
:103F7000653D222300222069643D22637022206F68
:103F80006E636C69636B3D22736574466C61672870
:103F90002922206E616D653D227069636B65722216
:103FA000202F3E3C696E70757420747970653D22D7
:103FB0007375626D6974222076616C75653D22535C
:103FC000454E4422202F3E3C2F666F726D3E3C2FA3
:103FD000626F64793E3C2F68746D6C3E00485454A7
:103FE000502F312E3120343034204E6F7420466FE4
:103FF000756E640D0A00485454502F312E31203212
:104000003030204F4B0D0A436F6E6E656374696FDD
:104010006E3A204B6565702D416C6976650D0A43DB
:104020006F6E74656E742D547970653A207465787E
:10403000742F68746D6C00474554202F5049434BD2
:1040400045522000474554202F5049434B45523F8D
:104050007069636B65723D0049444C4500456E6371
:104060006F6465720031323334353637380045536A
:1040700050004C4452004C65640064656661756C88
:10408000745461736B000000000000000000010226
:1040900003040607080900000000010203044300AE
:1040A000504F534958002E00232D302B2000686CB0
:1040B0004C0065666745464700303132333435364B
:1040C0003738394142434445460030313233343584
:1040D000363738396162636465660000202020202D
:1040E00020202020202828282828202020202020A8
:1040F0002020202020202020202020208810101088
:1041000010101010101010101010101004040404DF
:104110000404040404041010101010101041414154
:1041200041414101010101010101010101010101BF
:104130000101010101010110101010101042424252
:10414000424242020202020202020202020202028F
:1041500002020202020202101010102000000000F1
:10416000000000000000000000000000000000004F
:10417000000000000000000000000000000000003F
:10418000000000000000000000000000000000002F
:10419000000000000000000000000000000000001F
:1041A000000000000000000000000000000000000F
:1041B00000000000000000000000000000000000FF
:1041C00000000000000000000000000000000000EF
:0C41D000000000000000000000000000E3
:0841DC00B4BFFF7F01000000E9
:0441E4003501000899
:0441E80011010008B9
:1041EC00374000084440000801000000AAAAAAAA0F
:1041FC0000A24A041800002000000000000000008B
:10420C0000000000000000000000000000000000A2
:10421C000000000000000000000000000000000092
:10422C000000000000000000000000000000000082
:10423C000000000000000000000000000000000072
:10424C000000000000000000000000000000000062
:10425C00000000000000000043000000000000000F
:10426C000000000000000000000000000000000042
:10427C0000000000000000004300000000000000EF
:10428C000000000000000000000000000000000022
:10429C0000000000000000004300000000000000CF
:1042AC000000000000000000000000000000000002
:1042BC0000000000000000004300000000000000AF
:1042CC0000000000000000000000000000000000E2
:1042DC00000000000000000043000000000000008F
:1042EC0000000000000000000000000000000000C2
:1042FC00000000000000000043000000000000006F
:10430C0000000000000000000000000000000000A1
:10431C00000000000000000043000000000000004E
:10432C000000000000000000000000000000000081
:10433C000000000000000000253B00083335000899
:10434C0000000000DB400008A6400008E73D000824
:10435C00E73D0008E73D0008E73D0008E73D0008A1
:10436C00E73D0008E73D0008E73D0008E73D000891
:10437C00FFFFFFFFFFFFFFFFFFFFFFFFFFFF00003F
:10438C0001004153434949000000000000000000B7
:10439C000000000000000000000000000000000011
:1043AC000000415343494900000000000000000098
:1043BC0000000000000000000000000000000000F1
:0443CC0000000000ED
:04000005080032B904
:00000001FF
