:020000040800F2
:10000000005000209D61000899600008A56000086C
:10001000AB600008B1600008B76000080000000095
:100020000000000000000000000000001127000890
:10003000BD60000800000000C12800080929000870
:10004000E5610008E5610008E5610008E561000878
:10005000E5610008E5610008E561000869480008FD
:10006000E5610008E5610008E5610008E561000858
:10007000E5610008E5610008E5610008E561000848
:10008000E5610008E561000895500008E561000899
:10009000E5610008E5610008E5610008E561000828
:1000A000E5610008C9600008E5610008E561000835
:1000B000E5610008E5610008E5610008E561000808
:1000C000E5610008E5610008E5610008E5610008F8
:1000D000E56100089D5B0008E5610008E561000836
:1000E00081480008E5610008E561000800000000A3
:1000F0000000000000000000000000000000000000
:0C01000000000000000000005FF808F1A3
:1001100010B5054C237833B9044B13B10448AFF341
:1001200000800123237010BDEC01002000000000BE
:100130005C6C000808B5034B1BB103490348AFF3DF
:10014000008008BD00000000F00100205C6C000889
:10015000034613F8012B002AFBD1181A0138704707
:1001600080B584B000AF78600B467B8004F044FA21
:1001700002467B881344BB6004F03EFAF8600EE050
:10018000FB680133FB60786800F098F90346002BA8
:1001900001D0012308E000BF012002F0AAF9BA68EB
:1001A000FB689A42ECD8002318461037BD4680BD44
:1001B00080B500AF05F01EFD00F0BCFD00BF80BDA6
:1001C00080B500AF05F002FD4FF4FA610248FFF779
:1001D000C7FF0346002B80BD746C000880B500AFDC
:1001E00040F201420021024806F033F800BF80BD12
:1001F0000024002080B500AF40F2014200210248F7
:1002000006F027F800BF80BD0428002080B582B02A
:1002100000AF7860FFF7E2FF7B68012B02D07B68BC
:10022000032B0DD1402200211A4806F012F840227B
:100230000021194806F00DF80C21184805F062FC61
:100240007A681749174806F00DF800F0D7FD1548F1
:10025000FFF77EFF03461946124805F053FC1421B0
:100260001148FFF77DFF0346002B0ED008210F48F1
:1002700005F048FC4FF4FA610D48FFF771FF0346A3
:10028000002B01D0012301E000BF002318460837EE
:10029000BD4680BD70230020C02300207C6C000878
:1002A0008C6C0008002400209C6C0008A06C0008E6
:1002B000746C000880B500AF0220FFF7A7FF03466B
:1002C000184680BD80B500AF0320FFF79FFF0346AF
:1002D000184680BD80B582B000AF786039607B6819
:1002E000002B2AD03B68002B27D0FFF777FF3B6815
:1002F0007A681449144805F0B5FF00F07FFD1248F4
:10030000FFF726FF034619460F4805F0FBFB1421B3
:100310000E48FFF725FF0346002B0ED008210C489E
:1003200005F0F0FB4FF4FA610A48FFF719FF0346A6
:10033000002B01D0012301E000BF0023184608373D
:10034000BD4680BDAC6C0008002400209C6C0008F9
:10035000A06C0008746C000880B582B000AF7860B3
:1003600039607B68002B1ED03B68002B1BD0FFF749
:1003700035FF3B687A680E490E4805F073FF00F0C0
:100380003DFD0C48FFF7E4FE03461946094805F019
:10039000B9FB42F210710848FFF7E2FE0346002B5A
:1003A00001D0012300E0002318460837BD4680BD78
:1003B000C86C0008002400209C6C000880B582B046
:1003C00000AF0346FB801B4B1B78002B2DD10D216A
:1003D000194805F097FB64211848FFF7C1FE034652
:1003E00083F00103DBB2002B01D000231EE0FFF7F6
:1003F000F5FEFB881A461249124805F033FF00F05B
:10040000FDFC1048FFF7A4FE034619460D4805F011
:1004100079FB14210948FFF7A3FE0346002B04D003
:10042000044B01221A70012300E00023184608370C
:10043000BD4680BD08020020F86C00089C6C0008D6
:10044000086D00080024002090B585B000AFFFF7CC
:10045000D1FE0023FB600BE0FC68631CFB6000F036
:100460009BFC03461A46134B1A55012002F041F833
:1004700000F0B0FC0346002B03D1FB68B3F5806F9E
:10048000EADB0D490B4805F019FFB860BB68002B8B
:100490000BD0BB680533BB600A220021B86805F0A9
:1004A000A9FF0346FB71FB7900E06423184614376B
:1004B000BD4690BD04280020306D000890B585B081
:1004C00000AF7860FFF796FE0023FB8112E0FC8905
:1004D00000F062FC03461A461A4B1A55FB89194A6A
:1004E000D35C002B03D1FB89164A3021D154FB8900
:1004F0000133FB8100F06EFC0346002B03D1FB8926
:10050000B3F5806FE3D30F4B002283F800247B68A0
:10051000002B12D00B48FFF71BFE04467868FFF74C
:1005200017FE03469C4208D37968064805F0C6FECC
:100530000346002B01D0012300E0002318461437A6
:10054000BD4690BD0428002080B584B000AF78601F
:100550000B467B8013467B70FFF740FE214B1B78D8
:100560001A467B78002B02D07B88023300E07B8820
:100570001D491E4805F076FE1C48FFF7E9FD0346BD
:1005800019461A4805F0BEFAC8211948FFF7E8FDD8
:100590000346002B1BD07B68002B18D00023FB6088
:1005A00009E0FB687A6813441B78184605F092FA54
:1005B000FB680133FB607A88FB689A42F1DC7B7848
:1005C000002B06D002210B4805F09CFA01E0002325
:1005D00003E0642004F002F8002318461037BD46FB
:1005E00080BD00BF052C0020386D000800240020CD
:1005F0004C6D0008506D000880B483B000AF034616
:10060000FB71044AFB79137000BF0C37BD4680BCF8
:10061000704700BF052C002080B400AF024B184685
:10062000BD4680BC704700BF04280020F0B583B0F1
:1006300000AF78600C4A7B68104603F14004024624
:100640001946D1F800E04E688D68C968C2F800E02C
:1006500056609560D16010331030A342EFD100BFD7
:100660000C37BD46F0BD00BF7023002080B400AF42
:10067000024B1846BD4680BC704700BF7023002067
:10068000F0B583B000AF78600C4A7B68104603F188
:10069000400402461946D1F800E04E688D68C968EA
:1006A000C2F800E056609560D16010331030A3426C
:1006B000EFD100BF0C37BD46F0BD00BFC023002006
:1006C00080B400AF024B1846BD4680BC704700BFE7
:1006D000C023002080B500AF04F05CF800BF80BDEF
:1006E00090B583B000AF0023FB7104F0F1F803462E
:1006F000002B05D00323FB7104F0F4F8FB7915E01F
:1007000004F0FCF80346002B0DD004F017F9034663
:100710001C4604F009F903469C4202D10223FB71F6
:1007200001E00123FB7104F0F3F8FB7918460C3764
:10073000BD4690BD80B500AF04F00AFC00BF80BD8F
:1007400080B584B000AF0023FB6000237B810023D1
:100750007B6015E004F07AFC04F0B4FC03467B8176
:100760007B89B3F5805F02D94FF480537B817B890D
:10077000FA68D31A03F58053FB607B6801337B6012
:100780007B68092BE6DDFB68044AA2FB0323DB0838
:100790007B817B8918461037BD4680BDCDCCCCCC43
:1007A00080B500AF04F00AFE00BF80BD80B483B006
:1007B00000AF0346FB80FB88B3F5805F02D94FF49E
:1007C000805300E0FB8818460C37BD4680BC70475C
:1007D00080B582B000AF0346FB800B46BB8013465A
:1007E0007B80FB881846FFF7E1FF03461A460B4B58
:1007F0001A80BB881846FFF7D9FF03461A46074BF5
:100800005A807B881846FFF7D1FF03461A46034BF0
:100810009A8000BF0837BD4680BD00BF0C02002093
:1008200080B582B000AF03460A46FB711346BB8019
:10083000FB79012B0DD0022B14D0002B00D01AE035
:10084000BB881846FFF7B2FF03461A460C4B1A80C6
:1008500011E0BB881846FFF7A9FF03461A46084B6C
:100860005A8008E0BB881846FFF7A0FF03461A46E7
:10087000034B9A8000BF00BF0837BD4680BD00BF54
:100880000C02002080B483B000AF0346FB71FB79FB
:10089000012B09D0022B0AD0002B02D000BF00236D
:1008A00007E0064B1B8804E0044B5B8801E0034B28
:1008B0009B8818460C37BD4680BC70470C02002050
:1008C00080B485B000AF03460A46FB801346BB8068
:1008D000FB88BA8802FB03F3002B01DA03F6FF73EF
:1008E0001B13FB81FB8918461437BD4680BC70473B
:1008F00080B582B000AF0346FB80124B1B88FA889C
:1009000011461846FFF7DCFF0346184604F0FAFDCF
:100910000C4B5B88FA8811461846FFF7D1FF034657
:10092000184604F0FFFD074B9B88FA8811461846CD
:10093000FFF7C6FF0346184604F004FE00BF083761
:10094000BD4680BD0C02002080B588B000AF0122FA
:1009500040210E48FFF7F8FD40F21623FB613B1DD6
:10096000FA690B49184605F07DFC3B1D0122162152
:100970001846FFF7E9FD012240F216210548FFF76E
:10098000E3FD00BF2037BD4680BD00BFE071000819
:100990009C6D0008C86F000880B5A4B000AF07F1D7
:1009A000440340220021184605F053FC3B1D402221
:1009B0000021184605F04DFCFFF72EFE03463B498B
:1009C000184605F07BFCC7F88400D7F88430002B6C
:1009D00028D0D7F884300533C7F884300023C7F80F
:1009E0008C3019E0D7F88C30D7F8842013441B786A
:1009F000262B16D0D7F88C30D7F8842013441978DA
:100A000007F14402D7F88C3013440A461A70D7F81D
:100A10008C300133C7F88C30D7F88C303F2BE1DDB8
:100A200000E000BF07F144031846FFF7FFFDFFF7A2
:100A3000F3FD03461E49184605F040FCC7F8840044
:100A4000D7F88430002B2BD0D7F884300633C7F882
:100A500084300023C7F8883018E0D7F88830D7F8FA
:100A6000842013441B78262B15D0D7F88830D7F86C
:100A70008420134419783A1DD7F8883013440A4665
:100A80001A70D7F888300133C7F88830D7F8883023
:100A90003F2BE2DD00E000BF3B1D1846FFF7F0FDF5
:100AA000FFF752FF00BF9037BD4680BDB46D000810
:100AB000BC6D0008B0B58CB002AF002387F82230BF
:100AC000012240212C48FFF73FFD40F27D137B625D
:100AD0003B1D7A6A2949184605F0C4FB3B1D0122DB
:100AE00016211846FFF730FD0020FFF7CBFE034626
:100AF0001A4613461B029B1A002B01DA03F6FF73FA
:100B00001B131C460120FFF7BDFE03461A46134681
:100B10001B029B1A002B01DA03F6FF731B131D4601
:100B20000220FFF7AFFE03461A4613461B029B1A2C
:100B3000002B01DA03F6FF731B1307F11C0000936F
:100B40002B4622460E4905F08DFB00224FF488719A
:100B50000C48FFF7F9FC07F11C0300220621184698
:100B6000FFF7F2FC012267210748FFF7EDFC00BF09
:100B70002837BD46B0BD00BFE07100089C6D00087D
:100B8000C46D00084C6E0008606F000890B589B015
:100B900000AFFFF741FD03463549184605F08EFBCF
:100BA00078617B69002B5FD00023BB730023BB807F
:100BB0000023FB8000233B810023FB610023BB61FA
:100BC0002EE07C69FFF728FD0346E31A03F10B02D0
:100BD000FB6913443B61FFF71FFD02463B69134469
:100BE0001B783B73FFF718FD02463B690133134442
:100BF0001B787B7307F10C0310220021184605F0C7
:100C0000F9FB03469AB2BB695B0007F120010B4474
:100C100023F81C2CFB690233FB61BB690133BB6108
:100C2000FB69052BCDDDBB881B03124A82FB031237
:100C30001A44D211DB17D31A98B2FB881B030D4A52
:100C400082FB03121A44D211DB17D31A99B23B89E3
:100C50001B03084A82FB03421A44D211DB17D31A42
:100C60009BB21A46FFF7B4FD00BF2437BD4690BDC6
:100C7000D46D00088180808080B500AFFFF786FFCB
:100C8000FFF718FF00BF80BD80B582B000AF78606D
:100C9000FFF7C2FC03467968184605F00FFB0346D0
:100CA000002B01D0012301E000BF002318460837C4
:100CB000BD4680BD80B586B000AFF860B960134610
:100CC000FB71FFF7C1FB0346FB74FB7C1846FFF783
:100CD00093FCFB7C042B28D8FB68002B20D0BB683E
:100CE000002B1DD000237B6116E07B699B00FA6816
:100CF00013441B681846FFF7C7FF0346002B08D0B4
:100D00007B699B00BA6813441B68984700F076F82B
:100D10000BE07B6901337B61FA797B699A42E4DC01
:100D2000012218210248FFF70FFC1837BD4680BD8D
:100D30002472000880B400AF054B00221A80044BD7
:100D40001A88044B1A8000BFBD4680BC704700BFA4
:100D5000082C00200C30002080B483B000AF034684
:100D6000FB710B4B1B885A1C91B2094A1180194622
:100D7000084AFB795354064B1B88C3F309039AB204
:100D8000034B1A8000BF0C37BD4680BC704700BFC4
:100D90000C3000200C2C002080B483B000AF0B4B33
:100DA0001B885A1C91B2094A11801A46084B9B5C59
:100DB000FB71064B1B88C3F309039AB2034B1A80DD
:100DC000FB7918460C37BD4680BC7047082C0020C4
:100DD0000C2C002080B400AF064B1A88064B1B88F1
:100DE0009A4201D1012300E000231846BD4680BC91
:100DF000704700BF0C300020082C002080B400AFEA
:100E0000054B00221A80044B1A88044B1A8000BF3D
:100E1000BD4680BC704700BF0C300020082C00206D
:100E200080B500AF084A084B1B6843F010031360FD
:100E3000032000F0C1F8002005F0D8F805F09EF876
:100E40000023184680BD00BF0020024080B400AFE0
:100E5000054B1B781A46054B1B681344034A136065
:100E600000BFBD4680BC704710000020103000203D
:100E700080B485B000AF78607B6803F00703FB6047
:100E80000C4BDB68BB60BA684FF6FF031340BB60D6
:100E9000FB681A02BB68134343F0BF6343F400339B
:100EA000BB60044ABB68D36000BF1437BD4680BC3A
:100EB000704700BF00ED00E080B400AF044BDB687A
:100EC0001B0A03F007031846BD4680BC704700BFED
:100ED00000ED00E080B483B000AF0346FB71084929
:100EE00097F907305B09FA7902F01F02012000FA36
:100EF00002F241F8232000BF0C37BD4680BC70478A
:100F000000E100E080B483B000AF03463960FB71BC
:100F100097F90730002B0BDA0D49FB7903F00F032B
:100F2000043B3A68D2B21201D2B20B441A7609E0FD
:100F3000084997F907303A68D2B21201D2B20B448D
:100F400083F8002300BF0C37BD4680BC704700BF4C
:100F500000ED00E000E100E080B489B000AFF8608F
:100F6000B9607A60FB6803F00703FB61FB69C3F1BA
:100F70000703042B28BF0423BB61FB690433062B42
:100F800002D9FB69033B00E000237B610122BB69BE
:100F900002FA03F35A1EBB681A407B699A4001218A
:100FA0007B6901FA03F3591E7B680B401343184613
:100FB0002437BD4680BC704780B582B000AF7860F2
:100FC0007868FFF755FF00BF0837BD4680BD80B584
:100FD00086B000AF0346B9607A60FB7300237B6183
:100FE000FFF76AFF78617A68B9687869FFF7B4FF3C
:100FF000024697F90F3011461846FFF783FF00BFEE
:101000001837BD4680BD80B582B000AF0346FB7186
:1010100097F907301846FFF75DFF00BF0837BD4658
:1010200080BD000080B400AF024B1B681846BD466F
:1010300080BC70471800002080B500AFFFF7F2FFBA
:101040000146054B5B68DB0A03F00703034AD35CE8
:1010500021FA03F3184680BD0010024060720008B8
:1010600080B483B000AF786039607B680F221A606B
:10107000114B5B6803F003027B685A600E4B5B68A0
:1010800003F0F0027B689A600B4B5B6803F4E0624C
:101090007B68DA60084B5B68DB0803F4E0627B681E
:1010A0001A61064B1B6803F007023B681A6000BF19
:1010B0000C37BD4680BC7047001002400020024043
:1010C00080B582B000AF78607B68002B01D101232E
:1010D0001DE07B6893F83D30DBB2002B06D17B68C6
:1010E000002283F83C20786800F015F87B68022223
:1010F00083F83D207B681A687B68043319461046E4
:1011000000F058F97B68012283F83D20002318463F
:101110000837BD4680BD80B483B000AF786000BFA3
:101120000C37BD4680BC704780B483B000AF786098
:101130007B681B687A681268D26842F00102DA6044
:101140007B681B687A681268126842F001021A60B4
:10115000002318460C37BD4680BC704780B582B06E
:1011600000AF78607B681B681B6903F00203022BE9
:1011700022D17B681B68DB6803F00203022B1BD1C2
:101180007B681B686FF002021A617B6801221A7784
:101190007B681B689B6903F00303002B03D078680E
:1011A00000F0EDF805E0786800F0E0F8786800F00D
:1011B000EFF87B6800221A777B681B681B6903F0D5
:1011C0000403042B22D17B681B68DB6803F0040353
:1011D000042B1BD17B681B686FF004021A617B68CB
:1011E00002221A777B681B689B6903F44073002B0B
:1011F00003D0786800F0C3F805E0786800F0B6F82E
:10120000786800F0C5F87B6800221A777B681B6855
:101210001B6903F00803082B22D17B681B68DB687D
:1012200003F00803082B1BD17B681B686FF00802D2
:101230001A617B6804221A777B681B68DB6903F0FC
:101240000303002B03D0786800F099F805E0786874
:1012500000F08CF8786800F09BF87B6800221A7721
:101260007B681B681B6903F01003102B22D17B687D
:101270001B68DB6803F01003102B1BD17B681B6815
:101280006FF010021A617B6808221A777B681B686E
:10129000DB6903F44073002B03D0786800F06FF82B
:1012A00005E0786800F062F8786800F071F87B6813
:1012B00000221A777B681B681B6903F00103012B6E
:1012C0000ED17B681B68DB6803F00103012B07D19B
:1012D0007B681B686FF001021A61786804F036FEC3
:1012E0007B681B681B6903F08003802B0ED17B6831
:1012F0001B68DB6803F08003802B07D17B681B68C9
:101300006FF080021A61786800F0C3F87B681B6890
:101310001B6903F04003402B0ED17B681B68DB6820
:1013200003F04003402B07D17B681B686FF040023D
:101330001A61786800F035F87B681B681B6903F058
:101340002003202B0ED17B681B68DB6803F0200391
:10135000202B07D17B681B686FF020021A61786828
:1013600000F08EF800BF0837BD4680BD80B483B062
:1013700000AF786000BF0C37BD4680BC704780B4BA
:1013800083B000AF786000BF0C37BD4680BC7047AB
:1013900080B483B000AF786000BF0C37BD4680BC1E
:1013A000704780B483B000AF786000BF0C37BD4693
:1013B00080BC704780B485B000AF7860396000238E
:1013C000FB607B681B68FB607B682A4A93420BD0FA
:1013D0007B68B3F1804F07D07B68274A934203D0E4
:1013E0007B68264A934208D1FB6823F07003FB60B8
:1013F0003B685B68FA681343FB607B681D4A934255
:101400000BD07B68B3F1804F07D07B681A4A9342B8
:1014100003D07B68194A934208D1FB6823F44073D8
:10142000FB603B68DB68FA681343FB60FB6823F0F2
:101430008003FB603B685B69FA681343FB607B6871
:10144000FA681A603B689A687B68DA623B681A68D7
:101450007B689A627B68074A934203D13B681A69AA
:101460007B681A637B6801225A6100BF1437BD464E
:1014700080BC7047002C0140000400400008004080
:1014800080B483B000AF786000BF0C37BD4680BC2D
:10149000704780B483B000AF786000BF0C37BD46A2
:1014A00080BC704780B483B000AF786039607B68DF
:1014B000DB6A23F470023B681A437B68DA6200BF80
:1014C0000C37BD4680BC704780B483B000AF7860F5
:1014D0007B689B6803F00103012B0CBF01230023F1
:1014E000DBB218460C37BD4680BC704790B585B05E
:1014F00000AF786039600123FB731348FFF7E4FF06
:1015000004461248FFF7E0FF03462343002B14D1A3
:101510003B681B68002B09D07B685B6823F4702252
:101520003B681B681A437B685A6008E07B685B680D
:1015300023F470227B685A6001E00023FB73FB7B7D
:1015400018461437BD4690BD0024014000280140D4
:1015500080B584B000AF786039600123FB73786890
:10156000FFF7B2FF0346002B12D17B685B6823F4C0
:1015700080723B685B681A437B685A607B689B6833
:1015800023F400623B681B681A437B689A6001E0A1
:101590000023FB73FB7B18461037BD4680BD80B52A
:1015A00084B000AF786039600123FB737868FFF77F
:1015B0008BFF0346002B31D13B685B68002B0CD0BE
:1015C0007B685B6823F468423B6859683B689B68AA
:1015D0000B431A437B685A6008E07B685B6823F41E
:1015E00068423B685B681A437B685A607B689B680B
:1015F00023F4602323F481733A6811683A68D2684F
:1016000011433A6812690A431A437B689A603B683F
:101610005B6819467868FFF745FF01E00023FB731C
:10162000FB7B18461037BD4680BD000080B483B0F8
:1016300000AF78600549054B1A687B6813430B605F
:1016400000BF0C37BD4680BC704700BF000401409E
:1016500080B483B000AF78600549054B1A687B6899
:10166000DB4313400B6000BF0C37BD4680BC7047A6
:101670000004014080B483B000AF78600549054B99
:101680005A687B6813434B6000BF0C37BD4680BC73
:10169000704700BF0004014080B483B000AF7860A1
:1016A0000549054B5A687B68DB4313404B6000BF1C
:1016B0000C37BD4680BC70470004014080B483B045
:1016C00000AF78600549054B9A687B6813438B60CF
:1016D00000BF0C37BD4680BC704700BF000401400E
:1016E00080B483B000AF78600549054B9A687B6889
:1016F000DB4313408B6000BF0C37BD4680BC704796
:101700000004014080B483B000AF78600549054B08
:10171000DA687B681343CB6000BF0C37BD4680BCE2
:10172000704700BF0004014080B483B000AF786010
:101730000549054BDA687B68DB431340CB6000BF8B
:101740000C37BD4680BC70470004014080B584B0B2
:1017500000AF78600123FB737B681B79002B60D09E
:101760007B681B68002B66D07B685B79012B0ED0F1
:10177000022B17D0002B20D17B681B681846FFF77F
:101780008BFF7B681B681846FFF750FF18E07B68EB
:101790001B681846FFF75CFF7B681B681846FFF75D
:1017A00069FF0DE07B681B681846FFF73FFF7B6809
:1017B0001B681846FFF75EFF02E00023FB7300BFC3
:1017C0007B689B79002B36D07B689B79022B0ED0EF
:1017D000032B17D0012B20D17B681B681846FFF71D
:1017E000A3FF7B681B681846FFF768FF23E07B6850
:1017F0001B681846FFF774FF7B681B681846FFF7E5
:1018000081FF18E07B681B681846FFF757FF7B686D
:101810001B681846FFF776FF0DE00023FB7300BF3F
:1018200009E07B681B681846FFF712FF7B681B689E
:101830001846FFF731FFFB7B18461037BD4680BDC9
:1018400090B488B000AFF860B9607A60FB681A465F
:10185000BB681B0E13441C462268BB687B617B6916
:1018600093FAA3F33B613B69B3FA83F39B000F2127
:1018700001FA03F3DB431A40BB68FB61FB6993FA8F
:10188000A3F3BB61BB69B3FA83F39B00796801FAE8
:1018900003F31343236000BF2037BD4690BC70475D
:1018A00090B488B000AFF860B9607A60FB681A46FF
:1018B000BB681B0E13441C462268BB687B617B69B6
:1018C00093FAA3F33B613B69B3FA83F39B000321D3
:1018D00001FA03F3DB431A40BB68FB61FB6993FA2F
:1018E000A3F3BB61BB69B3FA83F39B00796801FA88
:1018F00003F31343236000BF2037BD4690BC7047FD
:1019000090B488B000AFF860B9607A60FB681A469E
:10191000BB681B0E13441C462268BB687B617B6955
:1019200093FAA3F33B613B69B3FA83F39B00042171
:1019300001FA03F3DB431A40BB68FB61FB6993FACE
:10194000A3F3BB61BB69B3FA83F39B00796801FA27
:1019500003F31343236000BF2037BD4690BC70479C
:1019600080B487B000AFF860B9607A60FB68DA686D
:10197000BB681B0ADB431A40BB681B0A7B617B699F
:1019800093FAA3F33B613B69B3FA83F3796801FAF5
:1019900003F31A43FB68DA6000BF1C37BD4680BC06
:1019A000704780B588B000AF786039603B681B68CD
:1019B0001B021B0C7B617B693B613B6993FAA3F3C0
:1019C000FB60FB68B3FA83F3FB6140E00122FB6933
:1019D0009A407B691340002B36D0FB69072B06D851
:1019E00040F20112FB6902FA03F3BB6108E0FB69F4
:1019F000083B4FF0011202FA03F343F08063BB612E
:101A00003B685B681A46B9697868FFF719FF3B685D
:101A10001B691A46B9697868FFF7A2FF3B685B68E3
:101A2000012B03D03B685B68092B0DD13B689B6899
:101A30001A46B9697868FFF733FF3B68DB681A46D6
:101A4000B9697868FFF75CFFFB690133FB617A696C
:101A5000FB6922FA03F3002BB8D101231846203783
:101A6000BD4680BD80B400AF034B5B6803F00C0340
:101A70001846BD4680BC70470010024080B400AFDD
:101A8000034B5B6803F0F0031846BD4680BC70470B
:101A90000010024080B400AF034B5B6803F4E063C6
:101AA0001846BD4680BC70470010024080B400AFAD
:101AB000034B5B6803F460531846BD4680BC704717
:101AC0000010024080B400AF034B5B6803F4803326
:101AD0001846BD4680BC70470010024080B400AF7D
:101AE000034B5B6803F470131846BD4680BC704717
:101AF0000010024080B400AF044B5B685B0C03F045
:101B000001031846BD4680BC704700BF001002406C
:101B100080B582B000AF786000F020F802467B68A4
:101B20001A607B681B68184600F03AF802467B682A
:101B30005A607B685B68184600F048F802467B688C
:101B40009A607B685B68184600F054F802467B6830
:101B5000DA6000BF0837BD4680BD000080B582B0A6
:101B600000AF00237B60FFF77DFF0346042B06D008
:101B7000082B07D0002B09D1084B7B6009E0074BED
:101B80007B6006E000F04AF8786002E0034B7B607F
:101B900000BF7B6818460837BD4680BD00127A003A
:101BA00080B582B000AF7860FFF768FF03461B097D
:101BB00003F00F03044AD35C1A467B68D3401846EF
:101BC0000837BD4680BD00BF5072000880B582B0A6
:101BD00000AF7860FFF75EFF03461B0A044AD35C40
:101BE0001A467B68D34018460837BD4680BD00BF03
:101BF0006072000880B582B000AF7860FFF756FFD2
:101C00000346DB0A044AD35C1A467B68D340184675
:101C10000837BD4680BD00BF6072000880B582B045
:101C200000AF00237B6000233B60FFF74BFF386071
:101C30003B68002B03D0B3F5803F03D00BE00D4B86
:101C40007B600BE0FFF756FF034601330A4AB2FB05
:101C5000F3F37B6002E0074B7B6000BFFFF73EFFC2
:101C600003469B0C02337A6802FB03F318460837DD
:101C7000BD4680BD00093D0000127A0080B483B0EB
:101C800000AF786039607B683A689A6200BF0C37B1
:101C9000BD4680BC704780B483B000AF78603960C7
:101CA0007B683A68DA6200BF0C37BD4680BC70477B
:101CB00080B483B000AF786039607B683A681A639B
:101CC00000BF0C37BD4680BC704780B483B000AF06
:101CD000786039607B683A685A6300BF0C37BD464C
:101CE00080BC704780B483B000AF786039607B6897
:101CF0003A689A6300BF0C37BD4680BC704780B419
:101D000083B000AF786039607B683A68DA6300BFFF
:101D10000C37BD4680BC704780B483B000AF78609C
:101D200039607B683A681A6400BF0C37BD4680BCD6
:101D3000704780B483B000AF78607B685B6943F024
:101D400001027B685A6100BF0C37BD4680BC7047FA
:101D500080B584B000AF786039600023FB607B6899
:101D60001B68FB607B68274A93420BD07B68B3F10A
:101D7000804F07D07B68244A934203D07B68234A74
:101D8000934206D1FB6823F070023B685B68134303
:101D9000FB607B681B4A93420BD07B68B3F1804F9A
:101DA00007D07B68184A934203D07B68174A934256
:101DB00006D1FB6823F440723B68DB681343FB6089
:101DC0007B68FA681A603B689B6819467868FFF779
:101DD00062FF3B681B8819467868FFF74FFF7B68F6
:101DE000084A934205D13B681B7C19467868FFF787
:101DF0005FFF7868FFF79DFF012318461037BD4647
:101E000080BD00BF002C01400004004000080040DD
:101E100080B586B000AFF860B9607A600023FB75CA
:101E2000BB68102B12D0102B02D8012B07D022E058
:101E3000B3F5807F11D0B3F5805F15D01BE07968D2
:101E4000F86800F01DF80346FB7514E07968F8683F
:101E500000F082F80346FB750DE07968F86800F041
:101E6000EBF80346FB7506E07968F86800F054F972
:101E70000346FB7500BFFB7D18461837BD4680BD85
:101E800080B586B000AF786039600023FB60002326
:101E90007B6100233B617B681B6A23F001027B6846
:101EA0001A627B681B6A7B617B685B683B617B684D
:101EB0009B69FB60FB6823F00303FB60FB6823F076
:101EC00070023B681B681343FB607B6923F00202CE
:101ED0003B681B6913437B617B6923F001023B680C
:101EE0005B6813437B617B681A4A93421ED17B690E
:101EF00023F008023B685B699B0013437B617B69AD
:101F000023F004023B689B689B0013437B613B69A1
:101F100023F480723B689B6913433B613B6923F464
:101F200000723B68DB695B0013433B617B683A6985
:101F30005A607B68FA689A613B68DB681946786882
:101F4000FFF7C3FE7B687A691A62012318461837C7
:101F5000BD4680BD002C014080B586B000AF7860E2
:101F600039600023FB6000237B6100233B617B68B9
:101F70001B6A23F010027B681A627B681B6A7B6114
:101F80007B685B683B617B689B69FB60FB6823F453
:101F90004073FB60FB6823F4E0423B681B681B0254
:101FA0001343FB607B6923F020023B681B691B0124
:101FB00013437B617B6923F010023B685B681B0164
:101FC00013437B617B681B4A93421FD17B6923F0DB
:101FD00080023B685B699B0113437B617B6923F053
:101FE00040023B689B689B0113437B613B6923F480
:101FF00080623B689B699B0013433B613B6923F410
:1020000000623B68DB69DB0013433B617B683A6934
:102010005A607B68FA689A613B68DB6819467868A1
:10202000FFF760FE7B687A691A6201231846183749
:10203000BD4680BD002C014080B586B000AF786001
:1020400039600023FB6000237B6100233B617B68D8
:102050001B6A23F480727B681A627B681B6A7B614F
:102060007B685B683B617B68DB69FB60FB6823F036
:102070000303FB60FB6823F070023B681B6813439B
:10208000FB607B6923F400723B681B691B021343EE
:102090007B617B6923F480723B685B681B0213439E
:1020A0007B617B681B4A93421FD17B6923F40062EA
:1020B0003B685B699B0213437B617B6923F480620D
:1020C0003B689B689B0213437B613B6923F480520E
:1020D0003B689B691B0113433B613B6923F400523E
:1020E0003B68DB695B0113433B617B683A695A607B
:1020F0007B68FA68DA613B68DB6819467868FFF745
:10210000FEFD7B687A691A62012318461837BD46BE
:1021100080BD00BF002C014080B586B000AF786064
:10212000396000233B610023FB6000237B617B68F7
:102130001B6A23F480527B681A627B681B6AFB600F
:102140007B685B687B617B68DB693B613B6923F48F
:1021500040733B613B6923F4E0423B681B681B0210
:1021600013433B61FB6823F400523B681B691B036C
:102170001343FB60FB6823F480523B685B681B03DE
:102180001343FB607B680F4A934207D17B6923F4BA
:1021900080423B689B699B0113437B617B687A6942
:1021A0005A607B683A69DA613B68DB68194678688F
:1021B000FFF7B2FD7B68FA681A62012318461837E8
:1021C000BD4680BD002C014080B483B000AF786074
:1021D0007B68DB6803F40053B3F5005F0CBF012399
:1021E0000023DBB218460C37BD4680BC704780B474
:1021F00083B000AF786039607B681B6923F440527C
:102200003B681A437B681A6100BF0C37BD4680BC2F
:10221000704780B483B000AF786039607B685B69D9
:1022200023F440723B681A437B685A6100BF0C3745
:10223000BD4680BC7047000080B485B000AFF86038
:10224000B9607A60BA6813469B0013449A001A4436
:102250007B689B00B2FBF3F3254AA2FB03235B09D7
:102260009BB21B0199B2BA6813469B0013449A00B3
:102270001A447B689B00B2FBF3F21D4BA3FB0203E5
:102280005B09642000FB03F3D31A1B013233184AA5
:10229000A2FB03235B099BB203F0F0039BB20B4448
:1022A00099B2BA6813469B0013449A001A447B689B
:1022B0009B00B2FBF3F20E4BA3FB02035B0964200D
:1022C00000FB03F3D31A1B013233094AA2FB032399
:1022D0005B099BB203F00F039BB20B449BB21A46FF
:1022E000FB689A6000BF1437BD4680BC704700BFD2
:1022F0001F85EB5180B588B000AF7860396000234E
:10230000FB770023BB617868FFF75EFF0346002B75
:1023100045D17B68DB6823F4B05323F00C033A68A3
:1023200051683A68D26811433A6812690A431A43FD
:102330007B68DA603B689B6819467868FFF757FF4F
:102340003B685B6919467868FFF763FF07F108038C
:102350001846FFF7DDFB7B68134A934202D17B6985
:10236000BB610CE07B68114A934202D13B69BB61BF
:1023700005E07B680E4A934201D13B69BB61BB69B2
:10238000002B0CD03B681B68002B08D00123FB7787
:102390003B681B681A46B9697868FFF74DFFFB7FF9
:1023A00018462037BD4680BD00380140004400403B
:1023B0000048004080B483B000AF786039600949BC
:1023C0007A683B68B2FBF3F3013B4B60054B00229C
:1023D0009A60044B05221A6000BF0C37BD4680BCD2
:1023E000704700BF10E000E080B582B000AF7860B9
:1023F0004FF47A717868FFF7DDFF00BF0837BD46FC
:1024000080BD000080B485B000AF78600E4B1B68C3
:10241000FB60FB687B68B3F1FF3F0CD07B68013346
:102420007B6008E0084B1B6803F48033002B02D06C
:102430007B68013B7B607B68002BF3D100BF1437C6
:10244000BD4680BC704700BF10E000E080B483B0A0
:1024500000AF7860034A7B68136000BF0C37BD464D
:1024600080BC70471800002080B485B000AF0346E0
:10247000FB800023FB60B7F90630842B05D0B7F949
:102480000620FB6813440333FB60FB6818461437CF
:10249000BD4680BC704780B500AF01F005FA00234F
:1024A000184680BDF0B587B002AF786039607B68B0
:1024B0005C687B681D687B681B699EB27B68B3F9AA
:1024C00008301846FFF7D0FF024607F10C030193CE
:1024D00000923B6832462946204601F07FF80346C9
:1024E000012B01D0002300E0FB6818461437BD46DD
:1024F000F0BD80B584B000AF78607B68FB60FB689E
:10250000002B01D0FB6800E00123184601F098F988
:10251000002318461037BD4680BD80B483B000AF9D
:1025200078607B6803F108027B685A607B684FF033
:10253000FF329A607B6803F108027B68DA607B688F
:1025400003F108027B681A617B6800221A6000BFF1
:102550000C37BD4680BC704780B483B000AF786054
:102560007B6800221A6100BF0C37BD4680BC7047F3
:1025700080B485B000AF786039607B685B68FB60D1
:102580003B68FA685A60FB689A683B689A60FB6827
:102590009B683A685A60FB683A689A603B687A6858
:1025A0001A617B681B685A1C7B681A6000BF14376D
:1025B000BD4680BC704780B485B000AF786039609C
:1025C0003B681B68BB60BB68B3F1FF3F03D17B680E
:1025D0001B69FB600CE07B680833FB6002E0FB6872
:1025E0005B68FB60FB685B681A68BB689A42F6D957
:1025F000FB685A683B685A603B685B683A689A6057
:102600003B68FA689A60FB683A685A603B687A6887
:102610001A617B681B685A1C7B681A6000BF1437FC
:10262000BD4680BC704780B485B000AF78607B68E1
:102630001B69FB607B685B687A6892689A607B685C
:102640009B687A6852685A60FB685A687B689A424D
:1026500003D17B689A68FB685A607B6800221A6124
:10266000FB681B685A1EFB681A60FB681B681846EB
:102670001437BD4680BC704780B485B000AFF860A9
:10268000B9607A60FB68043BFB60FB684FF08072C6
:102690001A60FB68043BFB60BB6823F00102FB6827
:1026A0001A60FB68043BFB60084AFB681A60FB6821
:1026B000143BFB607A68FB681A60FB68203BFB6098
:1026C000FB6818461437BD4680BC7047D126000809
:1026D00080B483B000AF0C4B1B68B3F1FF3F09D04F
:1026E0004FF0500383F31188BFF36F8FBFF34F8F09
:1026F0007B60FEE74FF0500383F31188BFF36F8FC9
:10270000BFF34F8F3B60FEE7140000200000000085
:10271000074B19680868B0E8F00F80F30988BFF329
:102720006F8F4FF0000080F311884EF00D0E704750
:102730003022002000BF00BF06480068006880F318
:10274000088862B661B6BFF34F8FBFF36F8F00DFAB
:1027500000BF00BF08ED00E080B584B000AF284B9B
:10276000FB60FB681B78DBB2BB60FB68FF221A7062
:10277000FB681B78DBB2FB71FB79DBB203F0500323
:10278000DAB2204B1A70204B07221A6009E01E4B68
:102790001B68013B1C4A1360FB79DBB25B00DBB2B8
:1027A000FB71FB79DBB203F08003802BEFD0164B7B
:1027B0001B681B02144A1360134B1B6803F4E0638D
:1027C000114A1360BB68DAB2FB681A700F4A0F4BEC
:1027D0001B6843F4700313600C4A0C4B1B6843F0F6
:1027E0007043136000F0B0F8094B00221A60FFF745
:1027F000A3FFFFF76DFF002318461037BD4680BDCD
:1028000000E400E0120200201402002020ED00E0AD
:102810001400002080B483B000AF4FF0500383F366
:102820001188BFF36F8FBFF34F8F7B600E4B1B6818
:1028300001330D4A13600C4B1B68012B0ED10B4B5F
:102840001B68DBB2002B09D04FF0500383F31188D3
:10285000BFF36F8FBFF34F8F3B60FEE700BF0C37B6
:10286000BD4680BC704700BF1400002004ED00E0AE
:1028700080B483B000AF104B1B68002B09D14FF020
:10288000500383F31188BFF36F8FBFF34F8F7B60CB
:10289000FEE7094B1B68013B074A1360064B1B68A8
:1028A000002B04D100233B603B6883F3118800BFF9
:1028B0000C37BD4680BC70471400002000000000AB
:1028C000EFF30980BFF36F8F0D4B1A6820E9F00F0B
:1028D00010602DE908404FF0500080F3118801F09E
:1028E0006FFA4FF0000080F31188BDE808401968C6
:1028F0000868B0E8F00F80F30988BFF36F8F704766
:102900003022002000BF00BF80B582B000AF4FF082
:10291000500383F31188BFF36F8FBFF34F8F7B603A
:1029200001F092F90346002B03D0064B4FF0805282
:102930001A6000233B603B6883F3118800BF0837AF
:10294000BD4680BD04ED00E080B400AF074A084BEF
:102950001B680849A1FB03139B09013B1360064B4D
:1029600007221A6000BFBD4680BC704714E000E03B
:1029700018000020D34D621010E000E080B58AB04E
:1029800000AF78600023FB6100F0D4FF574B1B6859
:10299000002B01D100F016F9554B1A687B681340E3
:1029A000002B40F08C807B68002B1CD008227B68B9
:1029B00013447B607B6803F00703002B13D07B6814
:1029C00023F0070308337B607B6803F00703002BC9
:1029D00009D04FF0500383F31188BFF36F8FBFF31B
:1029E0004F8F7B61FEE77B68002B68D0414B1B68F3
:1029F0007A689A4263D8404B3B623F4B1B687B62CC
:102A000004E07B6A3B627B6A1B687B627B6A5A6874
:102A10007B689A4203D27B6A1B68002BF1D1334B4F
:102A20001B687A6A9A424AD03B6A1B6808221344A0
:102A3000FB617B6A1A683B6A1A607B6A5A687B682A
:102A4000D21A08235B009A421ED97A6A7B68134423
:102A5000BB61BB6903F00703002B09D04FF05003A3
:102A600083F31188BFF36F8FBFF34F8F3B61FEE796
:102A70007B6A5A687B68D21ABB695A607B6A7A683B
:102A80005A60B86900F000F91A4B1A687B6A5B68F3
:102A9000D31A184A1360174B1A68184B1B689A42CE
:102AA00003D2144B1B68154A13607B6A5A68104B9B
:102AB0001B681A437B6A5A607B6A00221A6000F026
:102AC00047FFFB6903F00703002B09D04FF05003C9
:102AD00083F31188BFF36F8FBFF34F8FFB60FEE767
:102AE000FB6918462837BD4680BD00BF2022002064
:102AF0002C2200202422002018220020282200203E
:102B000080B586B000AF78607B687B617B68002B06
:102B100046D008235B427A6913447B617B693B6141
:102B20003B695A68204B1B681340002B09D14FF0BA
:102B3000500383F31188BFF36F8FBFF34F8FFB6098
:102B4000FEE73B691B68002B09D04FF0500383F36D
:102B50001188BFF36F8FBFF34F8FBB60FEE73B69F8
:102B60005A68114B1B681340002B19D03B691B6836
:102B7000002B15D13B695A680B4B1B68DB431A408D
:102B80003B695A6000F0D6FE3B695A68074B1B68E8
:102B90001344064A1360386900F076F800F0D8FE56
:102BA00000BF1837BD4680BD2C2200202422002003
:102BB00080B400AF024B1B681846BD4680BC70470E
:102BC0002422002080B485B000AF4FF40053BB60D6
:102BD000274BFB60FB6803F00703002B0CD0FB685E
:102BE0000733FB60FB6823F00703FB60BA68FB68F0
:102BF000D31A1F4A1344BB60FB687B601D4A7B6885
:102C000013601C4B00225A607A68BB681344FB6057
:102C10000822FB689B1AFB60FB6823F00703FB603C
:102C2000FB68154A1360144B1B6800225A60124B54
:102C30001B6800221A607B683B603B68FA68D21A06
:102C40003B685A600C4B1A683B681A603B685B68CB
:102C50000A4A13603B685B68094A1360094B4FF0EE
:102C600000421A6000BF1437BD4680BC704700BFE9
:102C700018020020182200202022002028220020F4
:102C8000242200202C22002080B485B000AF786080
:102C9000274BFB6002E0FB681B68FB60FB681A685F
:102CA0007B689A42F7D3FB68BB60FB685B68BA68D5
:102CB0001A447B689A4208D1FB685A687B685B6853
:102CC0001A44FB685A60FB687B607B68BB607B686A
:102CD0005B68BA681A44FB681B689A4218D1FB68A3
:102CE0001A68144B1B689A420DD07B685A68FB68BF
:102CF0001B685B681A447B685A60FB681B681A682B
:102D00007B681A6008E00B4B1A687B681A6003E066
:102D1000FB681A687B681A60FA687B689A4202D07E
:102D2000FB687A681A6000BF1437BD4680BC7047E4
:102D3000182200202022002080B584B000AF7860E7
:102D400039607B68FB60FB68002B09D14FF05003B2
:102D500083F31188BFF36F8FBFF34F8FBB60FEE724
:102D6000FFF758FDFB681A68FB68DB6BF968096CB4
:102D700001FB03F31A44FB685A60FB6800229A6364
:102D8000FB681A68FB689A60FB681A68FB68DB6B73
:102D9000013BF968096C01FB03F31A44FB68DA6034
:102DA000FB68FF2283F84420FB68FF2283F845205C
:102DB0003B68002B14D1FB681B69002B1AD0FB6801
:102DC0001033184601F08AF80346002B12D00D4B41
:102DD0004FF080521A60BFF34F8FBFF36F8F09E03F
:102DE000FB6810331846FFF798FBFB68243318463E
:102DF000FFF793FBFFF73CFD012318461037BD4654
:102E000080BD00BF04ED00E080B58AB002AFF8607D
:102E1000B9601346FB71FB68002B09D14FF05003DA
:102E200083F31188BFF36F8FBFF34F8F3B61FEE7D2
:102E3000BB68002B02D10023FB6104E0FB68BA6889
:102E400002FB03F3FB61FB6948331846FFF796FD6D
:102E5000B861BB69002B0BD0BB6948337B61FA7941
:102E6000BB69009313467A69B968F86800F005F801
:102E7000BB6918462037BD4680BD80B584B000AF21
:102E8000F860B9607A60FB70BB68002B03D1BB6946
:102E9000BA691A6002E0BB697A681A60BB69FA68AD
:102EA000DA63BB69BA681A640121B869FFF744FFA5
:102EB00000BF1037BD4680BD80B58EB000AFF86052
:102EC000B9607A603B6000237B63FB683B633B6BCC
:102ED000002B09D14FF0500383F31188BFF36F8F9C
:102EE000BFF34F8FBB62FEE7BB68002B03D13B6B88
:102EF0001B6C002B01D1012300E00023002B09D122
:102F00004FF0500383F31188BFF36F8FBFF34F8FE0
:102F10007B62FEE73B68022B03D13B6BDB6B012B33
:102F200001D1012300E00023002B09D14FF0500311
:102F300083F31188BFF36F8FBFF34F8F3B62FEE7C0
:102F400001F0BAF90346002B02D17B68002B01D1B6
:102F5000012300E00023002B09D14FF0500383F33D
:102F60001188BFF36F8FBFF34F8FFB61FEE7FFF751
:102F700051FC3B6B9A6B3B6BDB6B9A4202D33B6819
:102F8000022B29D13A68B968386B00F0BEF9F862B3
:102F90003B6B5B6A002B10D03B6B2433184600F070
:102FA0009DFF0346002B13D03F4B4FF080521A6019
:102FB000BFF34F8FBFF36F8F0AE0FB6A002B07D080
:102FC000394B4FF080521A60BFF34F8FBFF36F8FB2
:102FD000FFF74EFC012363E07B68002B03D1FFF772
:102FE00047FC00235CE07B6B002B06D107F1140348
:102FF000184600F0D5FF01237B63FFF739FC00F092
:1030000099FCFFF707FC3B6B93F844305BB2B3F1DC
:10301000FF3F03D13B6B002283F844203B6B93F8C6
:1030200045305BB2B3F1FF3F03D13B6B002283F825
:103030004520FFF71DFC3A1D07F114031146184601
:1030400000F0D0FF0346002B24D1386B00F055FA76
:103050000346002B18D03B6B10337A681146184694
:1030600000F018FF386B00F0E0F900F071FC034647
:10307000002B7FF47CAF0C4B4FF080521A60BFF3F3
:103080004F8FBFF36F8F72E7386B00F0CEF900F00F
:103090005FFC6CE7386B00F0C8F900F059FC0023C6
:1030A00018463837BD4680BD04ED00E080B58EB0CF
:1030B00000AFF860B9607A603B6000237B63FB6817
:1030C0003B633B6B002B09D14FF0500383F3118816
:1030D000BFF36F8FBFF34F8F7B62FEE7BB68002BA0
:1030E00003D13B6B1B6C002B01D1012300E00023BB
:1030F000002B09D14FF0500383F31188BFF36F8F7A
:10310000BFF34F8F3B62FEE701F0D6F80346002B7A
:1031100002D17B68002B01D1012300E00023002BAA
:1031200009D14FF0500383F31188BFF36F8FBFF3C2
:103130004F8FFB61FEE7FFF76DFB3B6B9B6BFB6209
:10314000FB6A002B46D03B6BDB68BB62B968386B0F
:1031500000F045F93B68002B21D1FB6A5A1E3B6BFE
:103160009A633B6B1B68002B04D101F0BDF902464A
:103170003B6B5A603B6B1B69002B27D03B6B1033BA
:10318000184600F0ABFE0346002B1FD04F4B4FF00C
:1031900080521A60BFF34F8FBFF36F8F16E03B6B07
:1031A000BA6ADA603B6B5B6A002B0FD03B6B24334F
:1031B000184600F093FE0346002B07D0434B4FF018
:1031C00080521A60BFF34F8FBFF36F8FFFF750FB32
:1031D000012377E07B68002B03D1FFF749FB002335
:1031E00070E07B6B002B06D107F11403184600F04A
:1031F000D7FE01237B63FFF73BFB00F09BFBFFF750
:1032000009FB3B6B93F844305BB2B3F1FF3F03D152
:103210003B6B002283F844203B6B93F845305BB254
:10322000B3F1FF3F03D13B6B002283F84520FFF74A
:103230001FFB3A1D07F114031146184600F0D2FE99
:103240000346002B31D1386B00F041F90346002BC7
:1032500025D03B6B1B68002B08D1FFF7DBFA3B6BDB
:103260005B68184601F046F8FFF702FB3B6B24331E
:103270007A681146184600F00DFE386B00F0D5F85C
:1032800000F066FB0346002B7FF455AF0F4B4FF069
:1032900080521A60BFF34F8FBFF36F8F4BE7386BCD
:1032A00000F0C3F800F054FB45E7386B00F0BDF8C0
:1032B00000F04EFB386B00F00AF90346002B3FF498
:1032C0003AAF002318463837BD4680BD04ED00E014
:1032D00080B584B000AF78607B68002B09D14FF0D7
:1032E000500383F31188BFF36F8FBFF34F8FBB6021
:1032F000FEE7FFF78FFA7B689B6BFB60FFF7B8FA7E
:10330000FB6818461037BD4680BD80B586B000AF5B
:10331000F860B9607A6000237B61FB689B6B3B615E
:10332000FB681B6C002B0DD1FB681B68002B4DD17B
:10333000FB685B68184601F053F87861FB6800226F
:103340005A6043E07B68002B19D1FB689868FB68E2
:103350001B6C1A46B96802F071FFFB689A68FB683B
:103360001B6C1A44FB689A60FB689A68FB685B6890
:103370009A422BD3FB681A68FB689A6026E0FB68C8
:10338000D868FB681B6C1A46B96802F057FFFB68E7
:10339000DA68FB681B6C5B421A44FB68DA60FB6806
:1033A000DA68FB681B689A4207D2FB685A68FB68B8
:1033B0001B6C5B421A44FB68DA607B68022B05D108
:1033C0003B69002B02D03B69013B3B613B695A1CC6
:1033D000FB689A637B6918461837BD4680BD80B587
:1033E00082B000AF786039607B681B6C002B18D00E
:1033F0007B68DA687B681B6C1A447B68DA607B68E0
:10340000DA687B685B689A4203D37B681A687B68DA
:10341000DA607B68D9687B681B6C1A46386802F0F2
:103420000DFF00BF0837BD4680BD80B584B000AF3A
:103430007860FFF7EFF97B6893F84530FB7311E094
:103440007B685B6A002B12D07B682433184600F03F
:1034500045FD0346002B01D000F022FEFB7B013B23
:10346000DBB2FB7397F90F30002BE9DC00E000BF03
:103470007B68FF2283F84520FFF7FAF9FFF7CAF9C6
:103480007B6893F84430BB7311E07B681B69002BA9
:1034900012D07B681033184600F020FD0346002B45
:1034A00001D000F0FDFDBB7B013BDBB2BB7397F9A4
:1034B0000E30002BE9DC00E000BF7B68FF2283F8C0
:1034C0004420FFF7D5F900BF1037BD4680BD80B559
:1034D00084B000AF7860FFF79DF97B689B6B002B91
:1034E00002D10123FB6001E00023FB60FFF7C0F97C
:1034F000FB6818461037BD4680BD80B584B000AF6C
:103500007860FFF787F97B689A6B7B68DB6B9A4280
:1035100002D10123FB6001E00023FB60FFF7A8F963
:10352000FB6818461037BD4680BD80B483B000AF3D
:10353000786039607B68DA683B681B0A9BB25A4046
:103540007B68DA6000BF0C37BD4680BC7047000066
:1035500080B58AB000AF786039603B687B6200F06C
:1035600059FB0346184600F057FE3862154800F034
:10357000EFFA0346184600F04FFEF861124800F0DB
:10358000E7FA0346184600F047FEB8610F4800F01E
:10359000DFFA0346184600F03FFE78610C4800F061
:1035A000D7FA0346184600F037FE3861FFF700FBF4
:1035B0000346FB6007490848FFF7B7FFC82001F042
:1035C0000DF8F7E7E06D0008E46D0008E86D00080D
:1035D000EC6D000820002004000C014080B58CB088
:1035E00004AFF860B9603B601346FB80FB889B002A
:1035F0001846FFF7C3F978617B69002B0ED0542081
:10360000FFF7BCF9F861FB69002B03D0FB697A690D
:103610001A6305E07869FFF773FA01E00023FB61A4
:10362000FB69002B13D0FA8800230393FB690293F4
:10363000FB6A0193BB6A00933B68B968F86800F0C5
:103640000EF8F86900F092F80123BB6102E04FF038
:10365000FF33BB61BB6918462037BD4680BD80B5CE
:1036600088B000AFF860B9607A603B603B6B186B64
:103670007B689B001A46A52102F0EBFD3B6B1A6BA1
:103680007B6803F18043013B9B001344BB61BB6932
:1036900023F00703BB61BB6903F00703002B09D0CC
:1036A0004FF0500383F31188BFF36F8FBFF34F8F39
:1036B0007B61FEE70023FB6112E0BA68FB691344FB
:1036C00019783A6BFB69134434330A461A70BA68A6
:1036D000FB6913441B78002B06D0FB690133FB61A7
:1036E000FB690F2BE9D900E000BF3B6B002283F898
:1036F0004320BB6A062B01D90623BB623B6BBA6A27
:10370000DA623B6BBA6A5A643B6B00229A643B6B89
:1037100004331846FEF720FF3B6B18331846FEF7BC
:103720001BFF3B6B3A6B1A61BB6AC3F107023B6B31
:103730009A613B6B3A6B5A623B6B0022DA643B6BDB
:10374000002283F850203A68F968B869FEF794FFC0
:1037500002463B6B1A60FB6A002B02D0FB6A3A6B95
:103760001A6000BF2037BD4680BD000080B582B022
:1037700000AF7860FFF74EF82A4B1B680133294AE7
:103780001360294B1B68002B09D1274A7B68136003
:10379000244B1B68012B10D100F0A6FC0DE0234B3D
:1037A0001B68002B09D1204B1B68DA6A7B68DB6A37
:1037B0009A4202D81C4A7B6813601D4B1B68013378
:1037C0001B4A13607B68DB6A01229A40194B1B6815
:1037D0001343184A13607B68DA6A13469B0013444C
:1037E0009B00154A1A447B68043319461046FEF7BD
:1037F000BFFEFFF73DF80D4B1B68002B0ED00A4BA8
:103800001B68DA6A7B68DB6A9A4207D20B4B4FF07F
:1038100080521A60BFF34F8FBFF36F8F00BF08371E
:10382000BD4680BD30230020302200203C230020F4
:103830004C230020382300203422002004ED00E037
:1038400080B584B000AF78600023FB607B68002BFC
:1038500016D0134B1B68002B09D04FF0500383F395
:103860001188BFF36F8FBFF34F8FBB60FEE700F08F
:1038700061F80021786800F04BFE00F069F8F8600C
:10388000FB68002B07D1074B4FF080521A60BFF343
:103890004F8FBFF36F8F00BF1037BD4680BD00BF95
:1038A0005823002004ED00E080B586B002AF1B4B2A
:1038B00001930023009300234FF4807218491948A4
:1038C000FFF78CFEF860FB68012B15D14FF0500319
:1038D00083F31188BFF36F8FBFF34F8FBB60124B21
:1038E0004FF0FF321A60114B01221A60104B002278
:1038F0001A60FEF731FF0DE0FB68B3F1FF3F09D11D
:103900004FF0500383F31188BFF36F8FBFF34F8FD6
:103910007B60FEE700BF1037BD4680BD542300200A
:10392000F46D0008B9400008502300203C2300201B
:103930003423002080B400AF044B1B680133034ADA
:10394000136000BFBD4680BC704700BF58230020F5
:1039500080B584B000AF0023FB600023BB60414B07
:103960001B68002B09D14FF0500383F31188BFF37C
:103970006F8FBFF34F8F3B60FEE7FEF74BFF394B76
:103980001B68013B374A1360364B1B68002B61D123
:10399000354B1B68002B5DD02EE0344BDB68DB68B9
:1039A000FB60FB6818331846FEF73DFEFB680433E6
:1039B0001846FEF738FEFB68DB6A01229A402C4B62
:1039C0001B6813432A4A1360FB68DA6A13469B009C
:1039D00013449B00274A1A44FB68043319461046D7
:1039E000FEF7C6FDFB68DA6A234B1B68DB6A9A4266
:1039F00002D3224B01221A601C4B1B68002BCCD136
:103A0000FB68002B01D000F033FC1D4B1B687B6072
:103A10007B68002B10D000F017F90346002B02D072
:103A2000164B01221A607B68013B7B607B68002B90
:103A3000F1D1134B00221A60104B1B68002B09D0E8
:103A40000123BB600F4B4FF080521A60BFF34F8FC2
:103A5000BFF36F8FFEF70CFFBB6818461037BD46EB
:103A600080BD00BF5823002030230020F02200201A
:103A7000382300203422002030220020442300205C
:103A80004023002004ED00E080B48BB000AF7860EC
:103A9000396000237B627B681B68002B52D07B68F7
:103AA000FB61FB695B685A68FB695A60FB695A688D
:103AB000FB6908339A4204D1FB695B685A68FB6969
:103AC0005A60FB695B68DB68BB617B687B617B6913
:103AD0005B685A687B695A607B695A687B690833FE
:103AE0009A4204D17B695B685A687B695A607B693A
:103AF0005B68DB683B6100233B6215E03A693B6A27
:103B0000134434331B78FB733A683B6A13441B78C5
:103B1000FA7B9A420CD1FB7B002B02D13B697B6282
:103B200007E03B6A01333B623B6A0F2BE6D900E0BA
:103B300000BF7B6A002B04D13A69BB699A42C4D1A9
:103B400000E000BF7B6A18462C37BD4680BC70473A
:103B500080B586B000AF786007237B617868FCF79A
:103B6000F7FA03460F2B09D94FF0500383F311885E
:103B7000BFF36F8FBFF34F8FFB60FEE7FFF7DAFEF7
:103B80007B69013B7B617A6913469B0013449B0070
:103B90001B4A134479681846FFF776FF38613B6982
:103BA000002B03D17B69002BEAD100E000BF3B6909
:103BB000002B06D1134B1B6879681846FFF764FF8A
:103BC00038613B69002B06D10F4B1B68796818469A
:103BD000FFF75AFF38613B69002B04D179680B4825
:103BE000FFF752FF38613B69002B04D17968084820
:103BF000FFF74AFF38613B6918461837BD4680BD5C
:103C000034220020E8220020EC2200201C23002087
:103C10000423002080B483B000AF0A4B1B68002B44
:103C200009D14FF0500383F31188BFF36F8FBFF3B7
:103C30004F8F7B60FEE7034B1B6818460C37BD4671
:103C400080BC70475423002080B586B000AF0023AD
:103C50007B61504B1B68002B40F08C804E4B1B68E7
:103C600001333B614C4A3B6913603B69002B1FD118
:103C70004A4B1B681B68002B09D04FF0500383F39D
:103C80001188BFF36F8FBFF34F8F3B60FEE7434B4D
:103C90001B68FB60424B1B68404A1360404AFB684C
:103CA0001360404B1B6801333E4A136000F0E0FA9A
:103CB0003D4B1B683A699A424DD3384B1B681B68D1
:103CC000002B01D1012300E00023002B04D0364B50
:103CD0004FF0FF321A603EE0304B1B68DB68DB6858
:103CE000BB60BB685B687B603A697B689A4203D2C1
:103CF0002D4A7B6813602EE0BB6804331846FEF73C
:103D000092FCBB689B6A002B04D0BB681833184632
:103D1000FEF789FCBB68DB6A01229A40234B1B68D3
:103D20001343224A1360BB68DA6A13469B001344AC
:103D30009B001F4A1A44BB68043319461046FEF71D
:103D400017FCBB68DA6A1B4B1B68DB6A9A42B4D368
:103D500001237B61B1E7174B1B68DA6A14491346EC
:103D60009B0013449B000B441B68012B07D90123C4
:103D70007B6104E0104B1B6801330F4A13600F4B4B
:103D80001B68002B01D001237B617B691846183723
:103D9000BD4680BD5823002034230020E8220020A7
:103DA000EC2200204823002050230020382300204C
:103DB0003422002030220020402300204423002011
:103DC00080B586B000AF2E4B1B68002B03D02D4B67
:103DD00001221A604FE02B4B00221A602A4B1B680D
:103DE0001A68294B1B681B6B9A4208D8264B1A6825
:103DF000254B1B68343319461046FFF7A9FB234BAC
:103E00001B68FB60FB68B3FA83F3FB72FB7AC3F1B8
:103E10001F037B611E497A6913469B0013449B0074
:103E20000B441B68002B09D14FF0500383F311881A
:103E3000BFF36F8FBFF34F8F7B60FEE77A69134646
:103E40009B0013449B00124A13443B613B695B682F
:103E50005A683B695A603B695A683B6908339A4221
:103E600004D13B695B685A683B695A603B695B688F
:103E7000DB68054A136000BF1837BD4680BD00BF30
:103E80005823002044230020302200203823002023
:103E90003422002080B584B000AF786039607B6840
:103EA000002B09D14FF0500383F31188BFF36F8FBC
:103EB000BFF34F8FFB60FEE7074B1B6818331946B3
:103EC0007868FEF778FB0121386800F021FB00BF1D
:103ED0001037BD4680BD00BF3022002080B586B0BF
:103EE00000AF78607B68DB68DB683B613B69002B77
:103EF00009D14FF0500383F31188BFF36F8FBFF3E5
:103F00004F8FFB60FEE73B6918331846FEF78BFBCB
:103F10001D4B1B68002B1CD13B6904331846FEF770
:103F200082FB3B69DB6A01229A40184B1B681343F2
:103F3000164A13603B69DA6A13469B0013449B00E0
:103F4000134A1A443B69043319461046FEF710FB26
:103F500005E03B69183319460E48FEF709FB3B693B
:103F6000DA6A0D4B1B68DB6A9A4205D901237B6133
:103F70000A4B01221A6001E000237B617B6918462D
:103F80001837BD4680BD00BF5823002038230020CD
:103F900034220020F0220020302200204423002080
:103FA00080B485B000AF78607B68002B09D14FF0FA
:103FB000500383F31188BFF36F8FBFF34F8FFB6004
:103FC000FEE7064B1A687B681A60054B1A687B6827
:103FD0005A6000BF1437BD4680BC7047482300209C
:103FE0003423002080B586B000AF786039607B68EC
:103FF000002B09D14FF0500383F31188BFF36F8F6B
:10400000BFF34F8FFB60FEE73B68002B09D14FF0F9
:10401000500383F31188BFF36F8FBFF34F8FBB60E3
:10402000FEE7FEF7F7FB1C4B1B683B613B681B6818
:10403000B3F1FF3F02D100237B6126E07B681A6861
:10404000164B1B689A4207D07B685A683B699A42B4
:1040500002D801237B6118E07B685B683A69D21A59
:104060003B681B689A420ED23B681A687B685968A5
:104070003B69CB1A1A443B681A607868FFF790FFD7
:1040800000237B6101E001237B61FEF7F1FB7B698B
:1040900018461837BD4680BD342300204823002031
:1040A00080B400AF034B01221A6000BFBD4680BC44
:1040B000704700BF4423002080B582B000AF786015
:1040C00000F052F8064B1B68012BF9D9054B4FF055
:1040D00080521A60BFF34F8FBFF36F8FF0E700BFBE
:1040E0003422002004ED00E080B582B000AF002350
:1040F0007B600CE07A6813469B0013449B00124AD5
:1041000013441846FEF709FA7B6801337B607B682D
:10411000062BEFD90D48FEF700FA0D48FEF7FDF922
:104120000C48FEF7FAF90C48FEF7F7F90B48FEF7D2
:10413000F4F90B4B054A1A600A4B054A1A6000BF96
:104140000837BD4680BD00BF34220020C0220020B9
:10415000D4220020F0220020042300201C23002071
:10416000E8220020EC22002080B582B000AF28E0D9
:10417000FFF7E0FB174B1B68002B0CBF012300234C
:10418000DBB27B60FFF7E4FB7B68002B19D1FEF705
:1041900041FB104BDB68DB683B603B68043318462F
:1041A000FEF741FA0C4B1B68013B0B4A13600B4BAB
:1041B0001B68013B094A1360FEF75AFB386800F0A0
:1041C00047F8064B1B68002BD2D100BF0837BD460D
:1041D00080BD00BF042300203023002018230020CE
:1041E00080B485B000AF78600023FB6005E07B6899
:1041F00001337B60FB680133FB607B681B78A52B78
:10420000F5D0FB689B08FB60FB689BB2184614372F
:10421000BD4680BC7047000080B586B000AF7860B6
:104220007B68002B02D1094B1B6800E07B687B6137
:104230007B691B6B3B613869FFF7D2FF0346FB606C
:10424000FB6818461837BD4680BD00BF30220020ED
:1042500080B582B000AF78607B681B6B1846FEF7B4
:104260004FFC7868FEF74CFC00BF0837BD4680BDA8
:1042700080B483B000AF0E4B1B681B68002B01D1CC
:10428000012300E00023002B04D00A4B4FF0FF3243
:104290001A6008E0064B1B68DB68DB687B607B68A4
:1042A0005B68044A136000BF0C37BD4680BC704792
:1042B000E82200205023002080B483B000AF0B4BD5
:1042C0001B68002B02D101237B6008E0084B1B68B0
:1042D000002B02D102237B6001E000237B607B681E
:1042E00018460C37BD4680BC704700BF3C230020F9
:1042F0005823002080B584B000AF78607B68FB60F5
:104300007B68002B62D0FB68DA6A324B1B68DB6A81
:104310009A425BD2FB689B69002B06DB2D4B1B6826
:10432000DB6AC3F10702FB689A61FB685969FB68A5
:10433000DA6A13469B0013449B00274A13449942B0
:1043400001D1012300E00023002B3AD0FB680433A5
:104350001846FEF768F90346002B15D1FB68DA6AA8
:104360001D4913469B0013449B000B441B68002B04
:104370000AD1FB68DB6A012202FA03F3DA43174B26
:104380001B681340154A1360124B1B68DA6AFB68FE
:10439000DA62FB68DB6A01229A40104B1B68134308
:1043A0000E4A1360FB68DA6A13469B0013449B00B5
:1043B000094A1A44FB68043319461046FEF7D8F838
:1043C00004E0044B1B68DA6AFB68DA6200BF10374E
:1043D000BD4680BD3022002034220020382300203A
:1043E00080B586B000AF78607B683B6100237B615D
:1043F0007B68002B6CD0394B1B683A699A4209D014
:104400004FF0500383F31188BFF36F8FBFF34F8FCB
:10441000FB60FEE73B699B6C002B09D14FF050031A
:1044200083F31188BFF36F8FBFF34F8FBB60FEE73D
:104430003B699B6C5A1E3B699A643B69DA6A3B692B
:104440005B6C9A4244D03B699B6C002B40D13B692A
:1044500004331846FEF7E7F80346002B15D13B69F5
:10446000DA6A1F4913469B0013449B000B441B68E8
:10447000002B0AD13B69DB6A012202FA03F3DA431B
:10448000184B1B681340174A13603B695A6C3B6911
:10449000DA623B69DB6AC3F107023B699A613B69F7
:1044A000DB6A01229A400F4B1B6813430D4A1360CD
:1044B0003B69DA6A13469B0013449B00084A1A447E
:1044C0003B69043319461046FEF752F801237B611D
:1044D0007B6918461837BD4680BD00BF30220020DA
:1044E000342200203823002080B400AF074B1B6823
:1044F000002B04D0054B1B689A6C01329A64034B65
:104500001B681846BD4680BC704700BF30220020A3
:1045100080B584B000AF78603960294B1B68FB60C0
:10452000284B1B6804331846FEF77DF80346002B22
:104530000BD1244B1B68DB6A012202FA03F3DA4336
:10454000214B1B681340204A13607B68B3F1FF3F87
:104550000AD13B68002B07D01A4B1B68043319465D
:104560001A48FEF705F826E0FA687B681344BB603A
:10457000144B1B68BA685A60BA68FB689A4209D241
:10458000134B1A680F4B1B68043319461046FEF78D
:1045900012F810E00F4B1A680A4B1B6804331946D7
:1045A0001046FEF708F80C4B1B68BA689A4202D214
:1045B000094ABB68136000BF1037BD4680BD00BF0D
:1045C0003423002030220020382300201C23002028
:1045D000EC220020E82200205023002080B582B089
:1045E00000AF0346FB80FB881846FDF70BFF00BFBA
:1045F0000837BD4680BD000080B400AF024B9B6809
:104600001846BD4680BC704710E000E080B400AFA3
:10461000044BDB681B0A03F007031846BD4680BC49
:10462000704700BF00ED00E080B483B000AF0346E8
:10463000FB71084997F907305B09FA7902F01F020C
:10464000012000FA02F241F8232000BF0C37BD46DA
:1046500080BC704700E100E080B483B000AF034647
:104660003960FB7197F90730002B0BDA0D49FB79A4
:1046700003F00F03043B3A68D2B21201D2B20B44EA
:104680001A7609E0084997F907303A68D2B2120160
:10469000D2B20B4483F8002300BF0C37BD4680BC68
:1046A000704700BF00ED00E000E100E080B489B099
:1046B00000AFF860B9607A60FB6803F00703FB6144
:1046C000FB69C3F10703042B28BF0423BB61FB690B
:1046D0000433062B02D9FB69033B00E000237B6116
:1046E0000122BB6902FA03F35A1EBB681A407B69B8
:1046F0009A4001217B6901FA03F3591E7B680B4044
:10470000134318462437BD4680BC704780B483B03D
:1047100000AF7860034A7B68536100BF0C37BD4629
:1047200080BC70470004014080B483B000AF786063
:104730007B689B6818460C37BD4680BC70470000FC
:1047400090B484B000AF78603960114C3B68DBB244
:104750000F493A68D2B2023251F822103A68120C6C
:10476000D24311403A68120CFA60FA6892FAA2F247
:10477000BA60BA68B2FA82F2786800FA02F20A43C2
:10478000023344F8232000BF1037BD4690BC704769
:104790000000014080B588B000AF07F11803002287
:1047A0001A605A600223BB6101233B7700237B77A9
:1047B0000123BB7707F118031846FCF7C7FF4FF436
:1047C0008063BB6101233B7700237B770223BB77A8
:1047D00007F118031846FCF7B9FF4FF470010120E8
:1047E000FFF7AEFF1D490120FFF7AAFF3B1D002286
:1047F0001A605A609A60DA601A61194B7B6008236C
:10480000BB600323FB6000237B613B1D19461548F9
:10481000FDF7C7F8FFF7FAFE034600220821184605
:10482000FFF744FF034619460720FFF715FF07204F
:10483000FFF7FAFEFFF7EAFE0346002208211846BA
:10484000FFF734FF034619462820FFF705FF28200D
:10485000FFF7EAFE00BF2037BD4680BD0200000F13
:104860000E020C04000C014080B500AF0220FFF7DF
:104870004DFF024B01221A7000BF80BD5C23002057
:1048800080B500AF4FF48060FFF740FF0D4B012271
:104890001A700A2000F05CF80346002B14BF0123B5
:1048A0000023DAB2084B1A700B2000F051F80346CF
:1048B000002B14BF01230023DAB2044B1A7000BF8F
:1048C00080BD00BF5D2300205E2300205F23002009
:1048D00080B400AF024B1B781846BD4680BC7047C1
:1048E0005C23002080B400AF034B00221A7000BF8D
:1048F000BD4680BC704700BF5C23002080B400AF81
:10490000024B1B781846BD4680BC70475D230020D3
:1049100080B400AF034B00221A7000BFBD4680BCBC
:10492000704700BF5D23002080B400AF024B1B78AE
:104930001846BD4680BC70475E23002080B400AF9F
:10494000024B1B781846BD4680BC70475F23002091
:1049500080B584B000AF0346FB710A48FFF7E4FE60
:104960000346FB81FA89FB7942FA03F303F0010362
:10497000002B14BF01230023DBB218461037BD46BD
:1049800080BD00BF000C014080B500AF00220421B3
:104990000220FEF739FA0246014B1A6000BF80BDC3
:1049A0001430002080B584B000AF03460A46FB8077
:1049B00013467B716423FB6097F90520084B9A70BE
:1049C000B7F90620064B1A80064B18680023FA68D0
:1049D0000349FEF771FA00BF1037BD4680BD00BF26
:1049E000183000201430002080B582B000AF0A4B90
:1049F0001868394600230022FEF758FB3B687B60AD
:104A00000023BA8862F30F03FA8862F31F43184643
:104A10000837BD4680BD00BF1430002080B500AF10
:104A2000064B1B681846FEF753FC0346002B01D0CB
:104A3000012300E00023184680BD00BF1430002091
:104A400080B582B000AF7860FBF744FEFBF748FE0C
:104A50000346032B28D801A252F823F0A94A0008E4
:104A6000894A0008994A00086D4A0008124B1B78D1
:104A70000133DAB2104B1A700F4B1B78042B15D987
:104A80000D4B00221A7011E00B4B1B7819464FF6A4
:104A90001840FFF787FF0AE0074B1B7819464FF4D1
:104AA0007A70FFF77FFF02E000BF00E000BF052043
:104AB000FDF71FFDCAE700BF6023002080B582B06C
:104AC00002AF002301930023009300234FF4807270
:104AD00003490448FEF782FD00BFBD4680BD00BF0C
:104AE000FC6D0008414A000880B582B000AF7860D4
:104AF00012E0164B1B780133DAB2144B1A70FBF735
:104B00005FFB6420FFF76AFD104B1B781A467B6839
:104B10009A4201DB002314E0FBF7D4FB0346002B91
:104B2000E7D00120FFF714FF0346002B05D1FBF768
:104B3000C1FB07490748FBF7CDFB5020FBF73EFCC4
:104B4000012318460837BD4680BD00BF6123002001
:104B5000046E0008106E000880B5A4B000AF786045
:104B6000002387F88F3000F011FEFBF721FB0520B2
:104B7000FFF7BAFF0346002B02D000F02FFE01E042
:104B800000F038FEFBF772FD03461846FBF7E0FA2B
:104B90000346012B28D997F88F30002B24D101230D
:104BA00087F88F30FBF762FD024607F10C031146D0
:104BB000184601F07BFBFBF783FD024607F14C032F
:104BC0001146184601F072FBFBF77CFB07F14C0223
:104BD00007F10C0311461846FBF7BEFB0346002BFA
:104BE00002D1002387F88F30042204490448FCF7DF
:104BF00061F80A20FDF77DFCC4E700BF3C6E0008A9
:104C00000000002080B582B002AF00230193012391
:104C1000009300234FF4807203490448FEF7DEFC42
:104C200000BFBD4680BD00BF106E0008594B000894
:104C300080B400AF044BDB681B0A03F0070318467F
:104C4000BD4680BC704700BF00ED00E080B483B07B
:104C500000AF0346FB71084997F907305B09FA7901
:104C600002F01F02012000FA02F241F8232000BFE7
:104C70000C37BD4680BC704700E100E080B483B0D3
:104C800000AF03463960FB7197F90730002B0BDA50
:104C90000D49FB7903F00F03043B3A68D2B21201CD
:104CA000D2B20B441A7609E0084997F907303A68FE
:104CB000D2B21201D2B20B4483F8002300BF0C37EA
:104CC000BD4680BC704700BF00ED00E000E100E0A1
:104CD00080B489B000AFF860B9607A60FB6803F017
:104CE0000703FB61FB69C3F10703042B28BF0423FF
:104CF000BB61FB690433062B02D9FB69033B00E06F
:104D000000237B610122BB6902FA03F35A1EBB68D0
:104D10001A407B699A4001217B6901FA03F3591E0D
:104D20007B680B40134318462437BD4680BC704750
:104D300090B486B000AFF860B9607A60FB682C333D
:104D40001946BB6803F440724FF440737B617B6982
:104D500093FAA3F33B613B69B3FA83F322FA03F3BB
:104D60009B000B441C462268BB6803F01F031F21F5
:104D700001FA03F3DB431A407B6803F01F01BB68B1
:104D800003F01F0301FA03F31343236000BF183736
:104D9000BD4690BC704790B48AB000AFF860B9606F
:104DA0007A60FB680C331946BB6803F000724FF061
:104DB00000737B617B6993FAA3F33B613B69B3FAB0
:104DC00083F322FA03F39B000B441C462268BB6862
:104DD00003F0F8714FF0F873FB61FB6993FAA3F3EA
:104DE000BB61BB69B3FA83F321FA03F3072101FA2C
:104DF00003F3DB431A40BB6803F0F8714FF0F8731C
:104E00007B627B6A93FAA3F33B623B6AB3FA83F358
:104E100021FA03F3796801FA03F31343236000BF17
:104E20002837BD4690BC704780B483B000AF78602F
:104E30007B689B6843F001027B689A6000BF0C3777
:104E4000BD4680BC704780B483B000AF78607B689B
:104E50009B6803F00103012B0CBF01230023DBB28D
:104E600018460C37BD4680BC704780B483B000AF95
:104E700078607B689B6843F004027B689A6000BF9F
:104E80000C37BD4680BC704780B483B000AF7860FB
:104E90007B689B6803F00403042B0CBF01230023F1
:104EA000DBB218460C37BD4680BC704780B483B077
:104EB00000AF78607B68DB6C9BB218460C37BD4650
:104EC00080BC704780B483B000AF78607B681B689B
:104ED00003F00203022B0CBF01230023DBB21846B0
:104EE0000C37BD4680BC704780B483B000AF78609B
:104EF0007B686FF002021A6000BF0C37BD4680BCB1
:104F0000704780B483B000AF78607B685B6843F023
:104F100020027B685A6000BF0C37BD4680BC7047DA
:104F200080B485B000AF78600849084B9A697B6807
:104F300013438B61054B9A697B681340FB60FB68E8
:104F400000BF1437BD4680BC704700BF0010024050
:104F500080B58EB000AF07F1300300221A605A60AE
:104F60000023FB6207F1180300221A605A609A605E
:104F7000DA601A613B1D00221A605A609A60DA609A
:104F80001A614FF40070FFF7CBFF0420FFF7C8FF52
:104F900041F210037B600023BB603B1D194628488B
:104FA000FCF7FFFC00233B6300237B6307F1300326
:104FB00019462448FCF7CCFA0023FB6207F12C03C6
:104FC00019462048FCF792FA4FF46023BB61002396
:104FD000FB6100233B6200237B620023BB6207F17D
:104FE000180319461748FCF7DAFA174A4FF400710C
:104FF0001448FFF79DFE002213491248FFF7CBFE2D
:10500000FFF716FE0346002200211846FFF760FE58
:10501000034619461220FFF731FE1220FFF716FE55
:105020000848FFF76EFF0748FFF70DFF0346002B08
:1050300002D10448FFF7F8FE00BF3837BD4680BDF7
:1050400000080140002401400400C00280B500AF08
:105050000E48FFF7F8FE0346012B14D100220C493D
:105060000A48FFF798FE0948FFF7DEFE0120FDF72A
:10507000C9F90648FFF7F9FE00BF0448FFF704FF2F
:105080000346002BF9D100BF80BD00BF00240140C2
:105090000400C00280B500AF0848FFF713FF0346C5
:1050A000002B09D00548FFF71FFF0448FFF7FEFE5D
:1050B00003461A46024B1A8000BF80BD00240140FF
:1050C0006223002080B400AF024B1B881846BD4607
:1050D00080BC70476223002080B500AF002202210F
:1050E0000220FDF791FE0246014B1A6000BF80BD11
:1050F0001C30002080B584B000AF0346FB806423E1
:10510000FB60054B1868B91D0023FA68FDF7D4FE53
:1051100000BF1037BD4680BD1C30002080B582B076
:1051200000AF064B1868B91D00230022FDF7BEFF33
:10513000FB8818460837BD4680BD00BF1C300020E4
:1051400080B500AF064B1B681846FEF7C1F8034652
:10515000002B01D0012300E00023184680BD00BFD2
:105160001C30002080B584B000AF7860FBF7E2FA15
:10517000FBF7E6FA0346FB81FB891846FFF7BAFF07
:105180006420FDF7B6F9F3E780B582B002AF0023E3
:1051900001930023009300234FF4807203490448D5
:1051A000FEF71CFA00BFBD4680BD00BF146E0008AC
:1051B0006551000880B485B000AF78600849084B9D
:1051C000DA697B681343CB61054BDA697B6813406E
:1051D000FB60FB6800BF1437BD4680BC704700BF52
:1051E0000010024080B485B000AF78600849084BD9
:1051F0009A697B6813438B61054B9A697B681340FE
:10520000FB60FB6800BF1437BD4680BC704700BF21
:105210000010024080B483B000AF78607B681B68E8
:1052200043F001027B681A6000BF0C37BD4680BCAA
:10523000704780B483B000AF78607B681B6843F030
:1052400080027B681A6000BF0C37BD4680BC704787
:1052500080B483B000AF78607B68DB6A18460C3797
:10526000BD4680BC704780B483B000AF78603960C1
:105270007B681A6A3B681A437B681A6200BF0C3766
:10528000BD4680BC70470000B0B483B000AF78600A
:1052900039603B68012B1CD03B68042B17D03B685E
:1052A000102B12D03B68402B0DD03B68B3F5807FAC
:1052B00007D03B68B3F5806F01D105230AE00623D0
:1052C00008E0042306E0032304E0022302E00123B4
:1052D00000E000231D467B6818331A462946094B17
:1052E0005B5C13441C4622682946074B5B5C1946ED
:1052F00004238B40DB431340236000BF0C37BD46C3
:10530000B0BC7047407200084872000880B483B097
:1053100000AF786039607B683A685A6300BF0C3729
:10532000BD4680BC704780B483B000AF7860396000
:105330007B683A689A6300BF0C37BD4680BC7047F3
:1053400080B483B000AF786039607B683A68DA6314
:1053500000BF0C37BD4680BC704780B483B000AF3F
:10536000786039607B685B6823F070023B681A43A1
:105370007B685A6000BF0C37BD4680BC704780B464
:1053800083B000AF78607B689B6823F080027B6805
:105390009A6000BF0C37BD4680BC704780B483B0B4
:1053A00000AF78607B685B6943F001027B685A61FB
:1053B00000BF0C37BD4680BC7047000080B592B07E
:1053C00000AF07F1340300221A605A609A60DA6075
:1053D0001A6107F1140320220021184600F039FF5A
:1053E0003B4600221A605A609A60DA601A61042013
:1053F000FFF7E0FE0023BB860023BB634FF480531E
:10540000FB6300233B6407F1340319463A48FCF779
:105410009FFC3948FFF70DFF60237B610023BB61D0
:105420000023FB613448FFF713FF03463B62002370
:105430007B620023BB620023FB6200233B6307F116
:1054400014031A4601212C48FCF7E2FC01212A48EA
:10545000FFF71AFF0023BB610023FB6107F1140370
:105460001A4610212448FCF7D3FC10212248FFF7EC
:105470000BFF0023BB610023FB6107F114031A46F5
:105480004FF480711C48FCF7C3FC4FF480711A483C
:10549000FFF7FAFE00211848FFF75FFF1648FFF7F5
:1054A0006EFF0820FFF79EFE144B3B6009237B60D4
:1054B0000323BB600023FB603B4619461048FCF702
:1054C00070FA40F211110C48FFF7CDFE0A48FFF7C1
:1054D000A1FE0948FFF762FF00210748FFF716FF0A
:1054E00000210548FFF71FFF00210348FFF728FFB1
:1054F00000BF4837BD4680BD00080040C1C0010460
:10550000000C014080B582B000AF0346FB80FB88F1
:1055100019460348FFF7FAFE00BF0837BD4680BDB5
:105520000008004080B582B000AF0346FB80FB88D6
:1055300019460348FFF7F7FE00BF0837BD4680BD98
:105540000008004080B582B000AF0346FB80FB88B6
:1055500019460348FFF7F4FE00BF0837BD4680BD7B
:105560000008004080B483B000AF78607B68B3F57A
:10557000805F02DD4FF480537B607B68002B01DA93
:1055800000237B607B689BB218460C37BD4680BC0D
:1055900070470000B0B586B000AF7860FBF700F947
:1055A0004FF48053FB824FF48053BB82FFF736FAEF
:1055B0000346002B72D0FFF717FA0346BB600020AA
:1055C000FBF760F903467B820120FBF75BF903469A
:1055D0003B820220FBF756F90346FB8197F90A301C
:1055E000042B5AD801A252F823F000BF9B560008A2
:1055F000015600081D560008395600085556000887
:10560000B7F91230B7F9082013441846FFF7AAFF7C
:10561000034619460020FBF703F93FE0B7F91030C5
:10562000B7F9082013441846FFF79CFF03461946B4
:105630000120FBF7F5F831E0B7F90E30B7F9082093
:1056400013441846FFF78EFF034619460220FBF766
:10565000E7F823E0B7F91230B7F9082013441846E9
:10566000FFF780FF03461C46B7F91030B7F9082052
:1056700013441846FFF776FF03461D46B7F90E3070
:10568000B7F9082013441846FFF76CFF03461A4683
:1056900029462046FBF79CF800E000BFFFF750FDCD
:1056A0000346002B18D0FFF739FD0346FB8213E0B9
:1056B000BA8AFB8A9A4206D9BB8A5A1EBA8218460F
:1056C000FBF716F905E0BB8A5A1CBA821846FBF7AD
:1056D0000FF90120FCF70DFFBA8AFB8A9A42E7D145
:1056E000FB8ABB820A20FCF704FF5FE780B582B02B
:1056F00002AF002301930023009300234FF4807234
:1057000003490448FDF76AFF00BFBD4680BD00BFE6
:10571000186E00089555000880B485B000AF786019
:105720000849084B9A697B6813438B61054B9A695A
:105730007B681340FB60FB6800BF1437BD4680BC2C
:10574000704700BF0010024080B483B000AF7860A3
:1057500039603B681B0A9AB27B681A6100BF0C373C
:10576000BD4680BC704780B483B000AF78603960BC
:105770007B68DA683B681B0A9BB25A407B68DA6038
:1057800000BF0C37BD4680BC7047000080B586B0B6
:1057900000AF0420FFF7C0FF0820FFF7BDFF3B1D4F
:1057A00000221A605A609A60DA601A61094B7B60C5
:1057B0000123BB600323FB6000233B6100237B616B
:1057C0003B1D19460448FCF7ECF800BF1837BD46EE
:1057D00080BD00BF20002004000C014080B500AF58
:1057E00002490348FFF7B0FF00BF80BD200020043E
:1057F000000C014080B500AF03490448FFF7B3FF38
:10580000C820FEF7EBFEF7E720002004000C014063
:1058100080B400AF044BDB681B0A03F00703184693
:10582000BD4680BC704700BF00ED00E080B483B08F
:1058300000AF0346FB71084997F907305B09FA7915
:1058400002F01F02012000FA02F241F8232000BFFB
:105850000C37BD4680BC704700E100E080B483B0E7
:1058600000AF0346FB71094997F907305B09FA79E4
:1058700002F01F02012000FA02F2203341F8232037
:1058800000BF0C37BD4680BC704700BF00E100E0A0
:1058900080B483B000AF03463960FB7197F90730DD
:1058A000002B0BDA0D49FB7903F00F03043B3A6838
:1058B000D2B21201D2B20B441A7609E0084997F924
:1058C00007303A68D2B21201D2B20B4483F80023F7
:1058D00000BF0C37BD4680BC704700BF00ED00E044
:1058E00000E100E080B489B000AFF860B9607A6090
:1058F000FB6803F00703FB61FB69C3F10703042B9B
:1059000028BF0423BB61FB690433062B02D9FB6962
:10591000033B00E000237B610122BB6902FA03F331
:105920005A1EBB681A407B699A4001217B6901FAC3
:1059300003F3591E7B680B40134318462437BD46BA
:1059400080BC704780B485B000AF78600849084BD0
:105950009A697B6813438B61054B9A697B68134096
:10596000FB60FB6800BF1437BD4680BC704700BFBA
:105970000010024080B483B000AF78607B68DB68C1
:1059800043F400527B68DA6000BF0C37BD4680BC30
:10599000704780B483B000AF78607B681B6923F4E4
:1059A00090427B681A617B685B6923F02A027B68FE
:1059B0005A6100BF0C37BD4680BC704780B483B0CD
:1059C00000AF78607B681B6803F02003202B0CBFBE
:1059D00001230023DBB218460C37BD4680BC70475C
:1059E00080B483B000AF78607B681B6803F040032D
:1059F000402B0CBF01230023DBB218460C37BD46F9
:105A000080BC704780B483B000AF78607B68DB688F
:105A100043F020027B68DA6000BF0C37BD4680BCD3
:105A2000704780B483B000AF78607B685B6943F0F7
:105A300001027B685A6100BF0C37BD4680BC7047CD
:105A400080B483B000AF78607B68DB6803F020032C
:105A5000202B0CBF01230023DBB218460C37BD46B8
:105A600080BC704780B483B000AF78607B685B68AF
:105A7000DBB218460C37BD4680BC704780B483B09B
:105A800000AF78600B46FB70FA787B685A6000BF05
:105A90000C37BD4680BC704780B483B000AF7860DF
:105AA00039603B681B0A9AB27B681A6100BF0C37E9
:105AB000BD4680BC704780B483B000AF7860396069
:105AC0003B681B0A9AB27B685A6100BF0C37BD461F
:105AD00080BC704780B582B000AF0346FB71FB7994
