:020000040800F2
:10000000005000208D730008897200089572000866
:100010009B720008A1720008A7720008000000008F
:10002000000000000000000000000000B1300008E7
:10003000AD7200080000000061320008A93200081B
:10004000D5730008D5730008D5730008D573000870
:10005000D5730008D5730008E16600083D5000081C
:10006000D5730008D5730008D5730008D573000850
:10007000D5730008D5730008D5730008D573000840
:10008000D5730008D5730008115E0008D573000809
:10009000D5730008D5730008D5730008D573000820
:1000A000D5730008B9720008D5730008D57300082D
:1000B000D5730008D5730008D5730008D573000800
:1000C000D5730008D5730008D5730008D5730008F0
:1000D000D5730008896D0008D5730008D573000832
:1000E00055500008D5730008D573000800000000C3
:1000F0000000000000000000000000000000000000
:0C01000000000000000000005FF808F1A3
:1001100010B5054C237833B9044B13B10448AFF341
:1001200000800123237010BD680200200000000041
:100130003C7E000808B5034B1BB103490348AFF3ED
:10014000008008BD000000006C0200203C7E00081A
:10015000034613F8012B002AFBD1181A0138704707
:1001600080B584B000AF78600B467B8004F02EFE33
:1001700002467B881344BB6004F028FEF8600EE062
:10018000FB680133FB60786800F0C6F90346002B7A
:1001900001D0012308E000BF012004F009FEBA6885
:1001A000FB689A42ECD8002318461037BD4680BD44
:1001B00080B500AF06F014FE01F004F900BF80BD69
:1001C00080B500AF06F0F8FD4FF4FA610248FFF782
:1001D000C7FF0346002B80BD547E000880B500AFEA
:1001E00040F201420021024807F02BF900BF80BD18
:1001F0004024002080B500AF40F2014200210248B7
:1002000007F01FF900BF80BD4428002080B582B0F0
:1002100000AF7860FFF7E2FF7B68012B02D07B68BC
:10022000032B03D10C21164806F062FD7A681549AC
:10023000154807F00FF901F029F91348FFF788FF77
:1002400003461946104806F053FD14210F48FFF7E6
:1002500087FF0346002B0ED008210D4806F048FD0D
:100260004FF4FA610B48FFF77BFF0346002B01D0E8
:10027000012301E000BF002318460837BD4680BDBA
:100280005C7E00086C7E0008402400207C7E000814
:10029000807E0008547E000880B500AF0120FFF783
:1002A000B5FF0346184680BD80B500AF0220FFF7BA
:1002B000ADFF0346184680BD80B500AF0320FFF7B1
:1002C000A5FF0346184680BD80B582B000AF7860B8
:1002D00039607B68002B2AD03B68002B27D0FFF7C2
:1002E0007DFF3B687A681449144807F0B3F801F0C1
:1002F000CDF81248FFF72CFF034619460F4806F0C9
:10030000F7FC14210E48FFF72BFF0346002B0ED0FD
:1003100008210C4806F0ECFC4FF4FA610A48FFF79C
:100320001FFF0346002B01D0012301E000BF002383
:1003300018460837BD4680BDA47E00084024002032
:100340007C7E0008807E0008547E000880B582B064
:1003500000AF786039607B68002B1ED03B68002BB3
:100360001BD0FFF73BFF3B687A680E490E4807F049
:1003700071F801F08BF80C48FFF7EAFE03461946C6
:10038000094806F0B5FC42F210710848FFF7E8FE94
:100390000346002B01D0012300E000231846083754
:1003A000BD4680BDC07E0008402400207C7E000841
:1003B00080B582B000AF0346FB801B4B1B78002B3F
:1003C0002DD10D21194806F093FC64211848FFF740
:1003D000C7FE034683F00103DBB2002B01D00023EC
:1003E0001EE0FFF7FBFEFB881A461249124807F091
:1003F00031F801F04BF81048FFF7AAFE0346194602
:100400000D4806F075FC14210948FFF7A9FE0346C4
:10041000002B04D0044B01221A70012300E00023BA
:1004200018460837BD4680BD84020020F07E0008D3
:100430007C7E0008007F00084024002080B582B048
:1004400000AF0346FB80134B1B78002B1DD0FFF73A
:10045000C5FEFB881A461049104806F0FBFF01F064
:1004600015F80E48FFF774FE034619460B4806F0D0
:100470003FFC084B00221A7014210948FFF770FE58
:100480000346002B01D0012300E000231846083763
:10049000BD4680BD84020020147F00084024002057
:1004A0007C7E000890B585B000AFFFF7A3FE002367
:1004B000FB600BE0FC68631CFB6000F0B5FF0346CB
:1004C0001A46134B1A55012004F072FC00F0CAFFC3
:1004D0000346002B03D1FB68B3F5806FEADB0D49BF
:1004E0000B4806F0DBFFB860BB68002B0BD0BB6885
:1004F0000533BB600A220021B86807F06BF8034699
:10050000FB71FB7900E0642318461437BD4690BDAB
:1005100044280020287F000890B585B000AF78609F
:10052000FFF768FE0023FB8112E0FC8900F07CFFEE
:1005300003461A461A4B1A55FB89194AD35C002BFD
:1005400003D1FB89164A3021D154FB890133FB8149
:1005500000F088FF0346002B03D1FB89B3F5806FC1
:10056000E3D30F4B002283F800247B68002B12D0CA
:100570000B48FFF7EDFD04467868FFF7E9FD0346F9
:100580009C4208D37968064806F088FF0346002B92
:1005900001D0012300E0002318461437BD4690BD6A
:1005A0004428002080B584B000AF78600B467B8083
:1005B00013467B70FFF712FE214B1B781A467B789F
:1005C000002B02D07B88023300E07B881D491E4847
:1005D00006F040FF1C48FFF7BBFD034619461A48CA
:1005E00006F086FBC8211948FFF7BAFD0346002B29
:1005F0001BD07B68002B18D00023FB6009E0FB6850
:100600007A6813441B78184606F05AFBFB680133DE
:10061000FB607A88FB689A42F1DC7B78002B06D07D
:1006200002210B4806F064FB01E0002303E0642094
:1006300004F0BEFB002318461037BD4680BD00BF46
:10064000452C0020307F000840240020447F000813
:10065000487F000880B483B000AF0346FB71044AB2
:10066000FB79137000BF0C37BD4680BC704700BFDC
:10067000452C002080B400AF024B1846BD4680BC1C
:10068000704700BF44280020B0B483B000AF78604A
:100690000B4B7A68156854689068D1681D605C607F
:1006A0009860D960156954699069D1691D615C6170
:1006B0009861D96100BF0C37BD46B0BC704700BF20
:1006C000F023002080B400AF024B1846BD4680BC2A
:1006D000704700BFF0230020B0B483B000AF786053
:1006E0000B4B7A68156854689068D1681D605C602F
:1006F0009860D960156954699069D1691D615C6120
:100700009861D96100BF0C37BD46B0BC704700BFCF
:100710002024002080B400AF024B1846BD4680BCA8
:10072000704700BF20240020B0B582B000AFFFF7B3
:1007300055FD264A264B15461C460FCC286069609D
:10074000AA60EB6023782B7400F0A0FE1F48FFF72F
:10075000FFFC034619461D4806F0CAFA0023FB8039
:1007600012E0FC8800F060FE03461A46194B1A5549
:10077000FB88184AD35C002B03D1FB88154A302133
:10078000D154FB880133FB8000F06CFE0346002B44
:1007900003D1FB88B3F5806FE3D30F490D4806F012
:1007A0007DFE38603B68002B0CD03B681A1D0B4B5C
:1007B0001468506891681C60586099609189927BB8
:1007C00099819A7300BF0837BD46B0BD4024002010
:1007D0004C7F000844280020607F0008102400207F
:1007E00080B400AF024B1846BD4680BC704700BFC6
:1007F0001024002080B500AF05F0F2FF06F08EF85F
:10080000642004F0D5FA06F07DF8AE2006F050F82A
:10081000A82006F04DF83F2006F04AF8D32006F055
:1008200047F8002006F044F8402006F041F8A120E7
:1008300006F03EF8C82006F03BF8DA2006F038F85B
:10084000122006F035F8D52006F032F8302006F0F8
:100850002FF8A42006F02CF88D2006F029F814209B
:1008600006F026F8D92006F023F8F12006F020F84B
:10087000B02006F01DF8DB2006F01AF8402006F044
:1008800017F8202006F014F8222006F011F82E2088
:1008900006F00EF8AF2006F00BF800BF80BD80B563
:1008A00082B000AF0346FB7106F02CF8FB79503B99
:1008B000DBB2184605F0FCFF00BF0837BD4680BD1F
:1008C00080B582B000AF0346FB7106F00FF8FB79EC
:1008D000184605F0EDFF00BF0837BD4680BD80B566
:1008E00082B000AF0346FB7106F00CF8FB791846A6
:1008F00005F0DEFFFB791B09DBB21033DBB21846D3
:1009000005F0D6FF00BF0837BD4680BD80B582B078
:1009100000AF0346FB7105F0F5FF812005F0C8FF2D
:10092000FB79184605F0C4FF00BF0837BD4680BDFF
:1009300080B582B000AF00237B601FE005F0E2FFCE
:100940007B68DBB2503BDBB2184605F0B1FF0020FC
:1009500005F0AEFF102005F0ABFF05F0C7FF002348
:100960003B6005E0002005F0A3FF3B6801333B60DE
:100970003B687F2BF6DD7B6801337B607B68072B50
:10098000DCDD00BF0837BD4680BD000080B584B007
:1009900000AF0346FB710B46BB7113467B71BB79FD
:1009A0001846FFF77CFF7B79002B02D10020FFF770
:1009B00096FFFA791346DB009B1AFB6009E00B4AAD
:1009C000FB6813441B781846FFF77AFFFB68013376
:1009D000FB60FB795A1C1346DB009A1AFB689A42AB
:1009E000EDDC00BF1037BD4680BD00BF0000002019
:1009F00080B584B000AFFFF79BFF002000F06EFAD7
:100A000003461A46642303FB02F3002B01DA03F6C4
:100A1000FF731B13FB80012000F060FA03461A46A7
:100A2000642303FB02F3002B01DA03F6FF731B13AD
:100A3000BB80022000F052FA03461A46642303FBEF
:100A400002F3002B01DA03F6FF731B137B800022F5
:100A500000210E20FFF79AFF012200210B20FFF753
:100A600095FFFB88754AA2FB03235B099AB2744B7E
:100A7000A3FB0213D9080B469B000B445B00D31A5F
:100A80009BB2DBB2032200211846FFF77FFFFB88F1
:100A90006B4AA2FB0323DB089AB2694BA3FB021348
:100AA000D9080B469B000B445B00D31A9BB2DBB208
:100AB000042200211846FFF769FFFA88604BA3FB68
:100AC0000213D9080B469B000B445B00D31A9BB260
:100AD000DBB2052200211846FFF758FF0022022151
:100AE0000F20FFF753FF012202210B20FFF74EFFDB
:100AF000BB88524AA2FB03235B099AB2504BA3FB6B
:100B00000213D9080B469B000B445B00D31A9BB21F
:100B1000DBB2032202211846FFF738FFBB88484AA0
:100B2000A2FB0323DB089AB2454BA3FB0213D908AF
:100B30000B469B000B445B00D31A9BB2DBB2042232
:100B400002211846FFF722FFBA883D4BA3FB021390
:100B5000D9080B469B000B445B00D31A9BB2DBB257
:100B6000052202211846FFF711FF00220421102060
:100B7000FFF70CFF012204210B20FFF707FF7B8802
:100B80002E4AA2FB03235B099AB22D4BA3FB02134F
:100B9000D9080B469B000B445B00D31A9BB2DBB217
:100BA000032204211846FFF7F1FE7B88244AA2FBAA
:100BB0000323DB089AB2224BA3FB0213D9080B468E
:100BC0009B000B445B00D31A9BB2DBB204220421CE
:100BD0001846FFF7DBFE7A88194BA3FB0213D908EE
:100BE0000B469B000B445B00D31A9BB2DBB2052281
:100BF00004211846FFF7CAFE0023FB6017E0FFF749
:100C0000EFFD0246FB6813441B78303BBB60BB68BA
:100C1000002B01DA0A23BB60BB68DBB2FA68D2B2F0
:100C200006211846FFF7B2FEFB680133FB60FB6844
:100C30000E2BE4DD00BF1037BD4680BD1F85EB5194
:100C4000CDCCCCCC80B500AF04F08EF900BF80BD18
:100C500090B583B000AF0023FB7104F023FA034684
:100C6000002B05D00323FB7104F026FAFB7915E075
:100C700004F02EFA0346002B0DD004F049FA034687
:100C80001C4604F03BFA03469C4202D10223FB714E
:100C900001E00123FB7104F025FAFB7918460C37BB
:100CA000BD4690BD80B500AF04F028FD04F04CF8BF
:100CB00000BF80BD80B582B000AF3B4600221A6005
:100CC0005A6000F029F903461B883B8000F024F9A4
:100CD00003465B887B8000F01FF903469B88BB803E
:100CE0003B460221184604F037F802460A4B1A60C8
:100CF00000F012F9034606221946002004F052FDC6
:100D0000052004F055F8042203492A2004F04AFD86
:100D100000BF0837BD4680BD8802002080B586B080
:100D200000AF07F10C0300221A605A603B1D00223D
:100D30001A605A6007F10C0306221946002004F0DD
:100D400099FD052004F034F83B1D042219462A20A1
:100D500004F090FD07F10C030221184603F0FCFF9C
:100D600078617A687B699A4206D1BB89F9893A8AA7
:100D7000184600F059F804E000220021002000F09D
:100D800053F800BF1837BD4680BD80B500AF04F0F2
:100D90009DFF00BF80BD000080B584B000AF002380
:100DA000FB6000237B8100237B6015E005F00CF8DD
:100DB00005F046F803467B817B89B3F5805F02D955
:100DC0004FF480537B817B89FA68D31A03F58053F3
:100DD000FB607B6801337B607B68092BE6DDFB6889
:100DE000044AA2FB0323DB087B817B89184610376A
:100DF000BD4680BDCDCCCCCC80B500AF05F09CF914
:100E000000BF80BD80B483B000AF0346FB80FB8889
:100E1000B3F5805F02D94FF4805300E0FB88184699
:100E20000C37BD4680BC704780B582B000AF03462A
:100E3000FB800B46BB8013467B80FB881846FFF780
:100E4000E1FF03461A460B4B1A80BB881846FFF792
:100E5000D9FF03461A46074B5A807B881846FFF78E
:100E6000D1FF03461A46034B9A8000BF0837BD46A0
:100E700080BD00BF8C02002080B582B000AF034669
:100E80000A46FB711346BB80FB79012B0DD0022B68
:100E900014D0002B00D01AE0BB881846FFF7B2FF31
:100EA00003461A460C4B1A8011E0BB881846FFF720
:100EB000A9FF03461A46084B5A8008E0BB8818462B
:100EC000FFF7A0FF03461A46034B9A8000BF00BFFE
:100ED0000837BD4680BD00BF8C02002080B483B0BF
:100EE00000AF0346FB71FB79012B09D0022B0AD01E
:100EF000002B02D000BF002307E0064B1B8804E054
:100F0000044B5B8801E0034B9B8818460C37BD46B9
:100F100080BC70478C02002080B400AF024B1846A2
:100F2000BD4680BC704700BF8C02002080B485B0F5
:100F300000AF03460A46FB801346BB80FB88BA8895
:100F400002FB03F3002B01DA03F6FF731B13FB8193
:100F5000FB8918461437BD4680BC704780B582B007
:100F600000AF0346FB80124B1B88FA8811461846D7
:100F7000FFF7DCFF0346184605F082F90C4B5B884F
:100F8000FA8811461846FFF7D1FF0346184605F0C8
:100F900087F9074B9B88FA8811461846FFF7C6FF6A
:100FA0000346184605F08CF900BF0837BD4680BDE2
:100FB0008C02002080B588B000AF012240210E488D
:100FC000FFF7F0FA40F2DE23FB613B1DFA690B49A3
:100FD000184606F03FFA3B1D012216211846FFF77E
:100FE000E1FA012240F2DE210548FFF7DBFA00BFFB
:100FF0002037BD4680BD00BFB8840008A47F00082C
:10100000D881000880B594B000AF07F120032022FA
:101010000021184606F015FA3B462022002118460A
:1010200006F00FFAFFF726FB03463F49184606F085
:1010300035FA38643B6C002B3ED03B6C05333B6487
:101040000023FB640023BB6431E0FB6C3A6C134467
:101050001B78262B2FD0FB6C3A6C13441B78252B66
:1010600015D1FB6C01333A6C13441B78332B0ED132
:10107000FB6C02333A6C13441B78462B07D1FB6C94
:101080000233FB64FB6C3A6C134420221A70FB6C35
:101090003A6C1344197807F12002BB6C13440A46DA
:1010A0001A70FB6C0133FB64BB6C0133BB64FB6CDB
:1010B0001F2BCADD00E000BF07F120031846FFF731
:1010C000E3FAFFF7D7FA03461849184606F0E6F99F
:1010D00038643B6C002B20D03B6C06333B64002310
:1010E0007B6411E07B6C3A6C13441B78262B0FD089
:1010F0007B6C3A6C134419783A467B6C13440A466D
:101100001A707B6C01337B647B6C1F2BEADD00E083
:1011100000BF3B461846FFF7DFFAFFF74BFF00BF63
:101120005037BD4680BD00BFBC7F0008C47F0008AB
:10113000B0B58CB002AF002387F8223001224021E5
:101140002C48FFF72FFA40F29B137B623B1D7A6A13
:101150002949184606F07EF93B1D01221621184642
:10116000FFF720FA0020FFF7B9FE03461A461346A0
:101170001B029B1A002B01DA03F6FF731B131C469C
:101180000120FFF7ABFE03461A4613461B029B1ACB
:10119000002B01DA03F6FF731B131D460220FFF735
:1011A0009DFE03461A4613461B029B1A002B01DACA
:1011B00003F6FF731B1307F11C0000932B46224616
:1011C0000E4906F047F900224FF497710C48FFF7DB
:1011D000E9F907F11C03002206211846FFF7E2F99E
:1011E000012267210748FFF7DDF900BF2837BD4618
:1011F000B0BD00BFB8840008A47F0008CC7F000801
:10120000408000087081000890B589B000AFFFF7FA
:1012100031FA03463549184606F040F978617B6992
:10122000002B5FD00023BB730023BB800023FB8017
:1012300000233B810023FB610023BB612EE07C691E
:10124000FFF718FA0346E31A03F10802FB69134497
:101250003B61FFF70FFA02463B6913441B783B736F
:10126000FFF708FA02463B69013313441B787B738E
:1012700007F10C0310220021184606F0ABF90346D3
:101280009AB2BB695B0007F120010B4423F81C2CC8
:10129000FB690233FB61BB690133BB61FB69052B51
:1012A000CDDDBB881B03124A82FB03121A44D21104
:1012B000DB17D31A98B2FB881B030D4A82FB03127B
:1012C0001A44D211DB17D31A99B23B891B03084A7F
:1012D00082FB03421A44D211DB17D31A9BB21A467F
:1012E000FFF7A2FD00BF2437BD4690BDDC7F00089C
:1012F0008180808080B500AFFFF786FFFFF778FB25
:10130000FFF716FF00BF80BD80B582B000AF7860E8
:10131000FFF7B0F903467968184606F0BFF80346B0
:10132000002B01D0012301E000BF0023184608373D
:10133000BD4680BD80B586B000AFF860B960134689
:10134000FB71FFF7AFF80346FB74FB7C1846FFF711
:1013500081F9FB7C042B2DD8FB68002B20D0BB68C7
:10136000002B1DD000237B6116E07B699B00FA688F
:1013700013441B681846FFF7C7FF0346002B08D02D
:101380007B699B00BA6813441B68984700F07EF89D
:1013900010E07B6901337B61FA797B699A42E4DC76
:1013A000012216210548FFF7FDF8012253210448C8
:1013B000FFF7F8F81837BD4680BD00BF508500081C
:1013C000FC84000880B400AF054B00221A80044B57
:1013D0001A88044B1A8000BFBD4680BC704700BF0E
:1013E000482C00204C30002080B483B000AF03466E
:1013F000FB710B4B1B885A1C91B2094A118019468C
:10140000084AFB795354064B1B88C3F309039AB26D
:10141000034B1A8000BF0C37BD4680BC704700BF2D
:101420004C3000204C2C002080B483B000AF0B4B1C
:101430001B885A1C91B2094A11801A46084B9B5CC2
:10144000FB71064B1B88C3F309039AB2034B1A8046
:10145000FB7918460C37BD4680BC7047482C0020ED
:101460004C2C002080B400AF064B1A88064B1B881A
:101470009A4201D1012300E000231846BD4680BCFA
:10148000704700BF4C300020482C002080B400AFD3
:10149000054B00221A80044B1A88044B1A8000BFA7
:1014A000BD4680BC704700BF4C300020482C002057
:1014B00080B500AF084A084B1B6843F01003136067
:1014C000032000F0C1F8002005F088FE05F04EFE74
:1014D0000023184680BD00BF0020024080B400AF4A
:1014E000054B1B781A46054B1B681344034A1360CF
:1014F00000BFBD4680BC70478800002050300020EF
:1015000080B485B000AF78607B6803F00703FB60B0
:101510000C4BDB68BB60BA684FF6FF031340BB603F
:10152000FB681A02BB68134343F0BF6343F4003304
:10153000BB60044ABB68D36000BF1437BD4680BCA3
:10154000704700BF00ED00E080B400AF044BDB68E3
:101550001B0A03F007031846BD4680BC704700BF56
:1015600000ED00E080B483B000AF0346FB71084992
:1015700097F907305B09FA7902F01F02012000FA9F
:1015800002F241F8232000BF0C37BD4680BC7047F3
:1015900000E100E080B483B000AF03463960FB7126
:1015A00097F90730002B0BDA0D49FB7903F00F0395
:1015B000043B3A68D2B21201D2B20B441A7609E067
:1015C000084997F907303A68D2B21201D2B20B44F7
:1015D00083F8002300BF0C37BD4680BC704700BFB6
:1015E00000ED00E000E100E080B489B000AFF860F9
:1015F000B9607A60FB6803F00703FB61FB69C3F124
:101600000703042B28BF0423BB61FB690433062BAB
:1016100002D9FB69033B00E000237B610122BB6927
:1016200002FA03F35A1EBB681A407B699A400121F3
:101630007B6901FA03F3591E7B680B40134318467C
:101640002437BD4680BC704780B582B000AF78605B
:101650007868FFF755FF00BF0837BD4680BD80B5ED
:1016600086B000AF0346B9607A60FB7300237B61EC
:10167000FFF76AFF78617A68B9687869FFF7B4FFA5
:10168000024697F90F3011461846FFF783FF00BF57
:101690001837BD4680BD80B582B000AF0346FB71F0
:1016A00097F907301846FFF75DFF00BF0837BD46C2
:1016B00080BD000080B400AF024B1B681846BD46D9
:1016C00080BC70479400002080B500AFFFF7F2FFA8
:1016D0000146054B5B68DB0A03F00703034AD35C52
:1016E00021FA03F3184680BD0010024088850008E7
:1016F00080B483B000AF786039607B680F221A60D5
:10170000114B5B6803F003027B685A600E4B5B6809
:1017100003F0F0027B689A600B4B5B6803F4E062B5
:101720007B68DA60084B5B68DB0803F4E0627B6887
:101730001A61064B1B6803F007023B681A6000BF82
:101740000C37BD4680BC70470010024000200240AC
:1017500080B582B000AF78607B68002B01D1012397
:101760001DE07B6893F83D30DBB2002B06D17B682F
:10177000002283F83C20786800F015F87B6802228C
:1017800083F83D207B681A687B680433194610464D
:1017900000F058F97B68012283F83D2000231846A9
:1017A0000837BD4680BD80B483B000AF786000BF0D
:1017B0000C37BD4680BC704780B483B000AF786002
:1017C0007B681B687A681268D26842F00102DA60AE
:1017D0007B681B687A681268126842F001021A601E
:1017E000002318460C37BD4680BC704780B582B0D8
:1017F00000AF78607B681B681B6903F00203022B53
:1018000022D17B681B68DB6803F00203022B1BD12B
:101810007B681B686FF002021A617B6801221A77ED
:101820007B681B689B6903F00303002B03D0786877
:1018300000F0EDF805E0786800F0E0F8786800F076
:10184000EFF87B6800221A777B681B681B6903F03E
:101850000403042B22D17B681B68DB6803F00403BC
:10186000042B1BD17B681B686FF004021A617B6834
:1018700002221A777B681B689B6903F44073002B74
:1018800003D0786800F0C3F805E0786800F0B6F897
:10189000786800F0C5F87B6800221A777B681B68BF
:1018A0001B6903F00803082B22D17B681B68DB68E7
:1018B00003F00803082B1BD17B681B686FF008023C
:1018C0001A617B6804221A777B681B68DB6903F066
:1018D0000303002B03D0786800F099F805E07868DE
:1018E00000F08CF8786800F09BF87B6800221A778B
:1018F0007B681B681B6903F01003102B22D17B68E7
:101900001B68DB6803F01003102B1BD17B681B687E
:101910006FF010021A617B6808221A777B681B68D7
:10192000DB6903F44073002B03D0786800F06FF894
:1019300005E0786800F062F8786800F071F87B687C
:1019400000221A777B681B681B6903F00103012BD7
:101950000ED17B681B68DB6803F00103012B07D104
:101960007B681B686FF001021A61786805F0E6FB7E
:101970007B681B681B6903F08003802B0ED17B689A
:101980001B68DB6803F08003802B07D17B681B6832
:101990006FF080021A61786800F0C3F87B681B68FA
:1019A0001B6903F04003402B0ED17B681B68DB688A
:1019B00003F04003402B07D17B681B686FF04002A7
:1019C0001A61786800F035F87B681B681B6903F0C2
:1019D0002003202B0ED17B681B68DB6803F02003FB
:1019E000202B07D17B681B686FF020021A61786892
:1019F00000F08EF800BF0837BD4680BD80B483B0CC
:101A000000AF786000BF0C37BD4680BC704780B423
:101A100083B000AF786000BF0C37BD4680BC704714
:101A200080B483B000AF786000BF0C37BD4680BC87
:101A3000704780B483B000AF786000BF0C37BD46FC
:101A400080BC704780B485B000AF786039600023F7
:101A5000FB607B681B68FB607B682A4A93420BD063
:101A60007B68B3F1804F07D07B68274A934203D04D
:101A70007B68264A934208D1FB6823F07003FB6021
:101A80003B685B68FA681343FB607B681D4A9342BE
:101A90000BD07B68B3F1804F07D07B681A4A934222
:101AA00003D07B68194A934208D1FB6823F4407342
:101AB000FB603B68DB68FA681343FB60FB6823F05C
:101AC0008003FB603B685B69FA681343FB607B68DB
:101AD000FA681A603B689A687B68DA623B681A6841
:101AE0007B689A627B68074A934203D13B681A6914
:101AF0007B681A637B6801225A6100BF1437BD46B8
:101B000080BC7047002C01400004004000080040E9
:101B100080B483B000AF786000BF0C37BD4680BC96
:101B2000704780B483B000AF786000BF0C37BD460B
:101B300080BC704780B483B000AF786039607B6848
:101B4000DB6A23F470023B681A437B68DA6200BFE9
:101B50000C37BD4680BC704780B483B000AF78605E
:101B60007B689B6803F00103012B0CBF012300235A
:101B7000DBB218460C37BD4680BC704790B585B0C7
:101B800000AF786039600123FB731348FFF7E4FF6F
:101B900004461248FFF7E0FF03462343002B14D10D
:101BA0003B681B68002B09D07B685B6823F47022BC
:101BB0003B681B681A437B685A6008E07B685B6877
:101BC00023F470227B685A6001E00023FB73FB7BE7
:101BD00018461437BD4690BD00240140002801403E
:101BE00080B584B000AF786039600123FB737868FA
:101BF000FFF7B2FF0346002B12D17B685B6823F42A
:101C000080723B685B681A437B685A607B689B689C
:101C100023F400623B681B681A437B689A6001E00A
:101C20000023FB73FB7B18461037BD4680BD80B593
:101C300084B000AF786039600123FB737868FFF7E8
:101C40008BFF0346002B31D13B685B68002B0CD027
:101C50007B685B6823F468423B6859683B689B6813
:101C60000B431A437B685A6008E07B685B6823F487
:101C700068423B685B681A437B685A607B689B6874
:101C800023F4602323F481733A6811683A68D268B8
:101C900011433A6812690A431A437B689A603B68A9
:101CA0005B6819467868FFF745FF01E00023FB7386
:101CB000FB7B18461037BD4680BD000080B483B062
:101CC00000AF78600549054B1A687B6813430B60C9
:101CD00000BF0C37BD4680BC704700BF0004014008
:101CE00080B483B000AF78600549054B1A687B6803
:101CF000DB4313400B6000BF0C37BD4680BC704710
:101D00000004014080B483B000AF78600549054B02
:101D10005A687B6813434B6000BF0C37BD4680BCDC
:101D2000704700BF0004014080B483B000AF78600A
:101D30000549054B5A687B68DB4313404B6000BF85
:101D40000C37BD4680BC70470004014080B483B0AE
:101D500000AF78600549054B9A687B6813438B6038
:101D600000BF0C37BD4680BC704700BF0004014077
:101D700080B483B000AF78600549054B9A687B68F2
:101D8000DB4313408B6000BF0C37BD4680BC7047FF
:101D90000004014080B483B000AF78600549054B72
:101DA000DA687B681343CB6000BF0C37BD4680BC4C
:101DB000704700BF0004014080B483B000AF78607A
:101DC0000549054BDA687B68DB431340CB6000BFF5
:101DD0000C37BD4680BC70470004014080B584B01C
:101DE00000AF78600123FB737B681B79002B60D008
:101DF0007B681B68002B66D07B685B79012B0ED05B
:101E0000022B17D0002B20D17B681B681846FFF7E8
:101E10008BFF7B681B681846FFF750FF18E07B6854
:101E20001B681846FFF75CFF7B681B681846FFF7C6
:101E300069FF0DE07B681B681846FFF73FFF7B6872
:101E40001B681846FFF75EFF02E00023FB7300BF2C
:101E50007B689B79002B36D07B689B79022B0ED058
:101E6000032B17D0012B20D17B681B681846FFF786
:101E7000A3FF7B681B681846FFF768FF23E07B68B9
:101E80001B681846FFF774FF7B681B681846FFF74E
:101E900081FF18E07B681B681846FFF757FF7B68D7
:101EA0001B681846FFF776FF0DE00023FB7300BFA9
:101EB00009E07B681B681846FFF712FF7B681B6808
:101EC0001846FFF731FFFB7B18461037BD4680BD33
:101ED00090B488B000AFF860B9607A60FB681A46C9
:101EE000BB681B0E13441C462268BB687B617B6980
:101EF00093FAA3F33B613B69B3FA83F39B000F2191
:101F000001FA03F3DB431A40BB68FB61FB6993FAF8
:101F1000A3F3BB61BB69B3FA83F39B00796801FA51
:101F200003F31343236000BF2037BD4690BC7047C6
:101F300090B488B000AFF860B9607A60FB681A4668
:101F4000BB681B0E13441C462268BB687B617B691F
:101F500093FAA3F33B613B69B3FA83F39B0003213C
:101F600001FA03F3DB431A40BB68FB61FB6993FA98
:101F7000A3F3BB61BB69B3FA83F39B00796801FAF1
:101F800003F31343236000BF2037BD4690BC704766
:101F900090B488B000AFF860B9607A60FB681A4608
:101FA000BB681B0E13441C462268BB687B617B69BF
:101FB00093FAA3F33B613B69B3FA83F39B000421DB
:101FC00001FA03F3DB431A40BB68FB61FB6993FA38
:101FD000A3F3BB61BB69B3FA83F39B00796801FA91
:101FE00003F31343236000BF2037BD4690BC704706
:101FF00080B487B000AFF860B9607A60FB68DA68D7
:10200000BB681B0ADB431A40BB681B0A7B617B6908
:1020100093FAA3F33B613B69B3FA83F3796801FA5E
:1020200003F31A43FB68DA6000BF1C37BD4680BC6F
:10203000704780B588B000AF786039603B681B6836
:102040001B021B0C7B617B693B613B6993FAA3F329
:10205000FB60FB68B3FA83F3FB6140E00122FB699C
:102060009A407B691340002B36D0FB69072B06D8BA
:1020700040F20112FB6902FA03F3BB6108E0FB695D
:10208000083B4FF0011202FA03F343F08063BB6197
:102090003B685B681A46B9697868FFF719FF3B68C7
:1020A0001B691A46B9697868FFF7A2FF3B685B684D
:1020B000012B03D03B685B68092B0DD13B689B6803
:1020C0001A46B9697868FFF733FF3B68DB681A4640
:1020D000B9697868FFF75CFFFB690133FB617A69D6
:1020E000FB6922FA03F3002BB8D1012318462037ED
:1020F000BD4680BD80B483B000AF78607B681B684C
:1021000043F001027B681A6000BF0C37BD4680BCFB
:10211000704780B483B000AF78607B681B6823F0A1
:1021200001027B681A6000BF0C37BD4680BC704757
:1021300080B485B000AFF860B9607A60FB689B68D6
:1021400023F4034323F0FF03B9687A680A431A4370
:10215000FB689A6000BF1437BD4680BC7047000022
:1021600090B484B000AFF860B9607A603B6000243E
:102170000024BB683F4AA2FB03239C0CFB685B68FE
:1021800023F03F0343EA0402FB685A60FB681B6AC2
:1021900023F03F027B6838498B4201D8631C08E07A
:1021A0004FF4967303FB04F33449A1FB03139B091B
:1021B00001331A43FB681A627B682F4A934239D96C
:1021C0003B68002B17D17A6813465B001344BA684A
:1021D000B2FBF3F3C3F30B03002B09D07A68134669
:1021E0005B001344BA68B2FBF3F343F400431DE011
:1021F00048F201031AE07A6813469B0013449A00E0
:102200001344BA68B2FBF3F3C3F30B03002B0BD0F8
:102210007A6813469B0013449A001344BA68B2FBD1
:10222000F3F343F4004301E048F201033A6843EA60
:10223000020410E07B685B00BA68B2FBF3F3C3F3FF
:102240000B03032B05D97B685B00BA68B2FBF3F381
:1022500000E004231C46FB68DB6923F44F4323F0B2
:10226000FF0343EA0402FB68DA6100BF1037BD4692
:1022700090BC704783DE1B43A0860100D34D6210E3
:1022800080B483B000AF786039607B681B6823F04E
:102290001A023B681A437B681A6000BF0C37BD46C0
:1022A00080BC704780B483B000AF786039607B68D1
:1022B0001B6823F480623B681A437B681A6000BF86
:1022C0000C37BD4680BC704780B586B000AF7860E3
:1022D00039607868FFF71DFF07F10803184600F022
:1022E0007BF839693B685A683B689B687868FFF7F8
:1022F00037FF3B68D9683B685B691A467868FFF727
:1023000017FF3B681B6819467868FFF7B9FF7868C4
:10231000FFF7F0FE3B681B6919467868FFF7C2FFBC
:10232000012318461837BD4680BD000080B400AFB9
:10233000034B5B6803F00C031846BD4680BC704736
:102340000010024080B400AF034B5B6803F0F00361
:102350001846BD4680BC70470010024080B400AFF4
:10236000034B5B6803F4E0631846BD4680BC7047CE
:102370000010024080B400AF034B5B6803F460536D
:102380001846BD4680BC70470010024080B400AFC4
:10239000034B5B6803F480331846BD4680BC70472E
:1023A0000010024080B400AF034B5B6803F470136D
:1023B0001846BD4680BC70470010024080B400AF94
:1023C000044B5B685B0C03F001031846BD4680BC00
:1023D000704700BF0010024080B582B000AF786047
:1023E00000F020F802467B681A607B681B6818467C
:1023F00000F03AF802467B685A607B685B681846D2
:1024000000F048F802467B689A607B685B68184673
:1024100000F054F802467B68DA6000BF0837BD461A
:1024200080BD000080B582B000AF00237B60FFF765
:102430007DFF0346042B06D0082B07D0002B09D1C3
:10244000084B7B6009E0074B7B6006E000F04AF830
:10245000786002E0034B7B6000BF7B68184608375A
:10246000BD4680BD00127A0080B582B000AF7860B2
:10247000FFF768FF03461B0903F00F03044AD35C10
:102480001A467B68D34018460837BD4680BD00BF5A
:102490007885000880B582B000AF7860FFF75EFFF6
:1024A00003461B0A044AD35C1A467B68D34018468D
:1024B0000837BD4680BD00BF8885000880B582B062
:1024C00000AF7860FFF756FF0346DB0A044AD35C8F
:1024D0001A467B68D34018460837BD4680BD00BF0A
:1024E0008885000880B582B000AF00237B600023A0
:1024F0003B60FFF74BFF38603B68002B03D0B3F520
:10250000803F03D00BE00D4B7B600BE0FFF756FFE5
:10251000034601330A4AB2FBF3F37B6002E0074B48
:102520007B6000BFFFF73EFF03469B0C02337A68D7
:1025300002FB03F318460837BD4680BD00093D0085
:1025400000127A0080B483B000AF78607B681B68AB
:1025500003F04003402B0CBF01230023DBB21846DD
:102560000C37BD4680BC704780B483B000AF786044
:1025700039603B689BB21A467B681A6100BF0C3712
:10258000BD4680BC704780B584B000AF78603960CC
:102590000023FB737868FFF7D5FF0346002B39D182
:1025A0007B681B6823F47F4323F0BF033A681168FC
:1025B0003A68526811433A68926811433A68D2689F
:1025C00011433A68126911433A68526911433A68F3
:1025D000926911433A68D26911433A68126A0A4310
:1025E0001A437B681A607B685B6823F004023B68CF
:1025F0005B691B0C1A437B685A603B681B6AB3F526
:10260000005F05D13B685B6A19467868FFF7ACFF4D
:102610000123FB73FB7B18461037BD4680BD80B499
:1026200083B000AF786039607B683A689A6200BF17
:102630000C37BD4680BC704780B483B000AF786073
:1026400039607B683A68DA6200BF0C37BD4680BCEF
:10265000704780B483B000AF786039607B683A68B7
:102660001A6300BF0C37BD4680BC704780B483B08E
:1026700000AF786039607B683A685A6300BF0C37F6
:10268000BD4680BC704780B483B000AF78603960CD
:102690007B683A689A6300BF0C37BD4680BC7047C0
:1026A00080B483B000AF786039607B683A68DA63E1
:1026B00000BF0C37BD4680BC704780B483B000AF0C
:1026C000786039607B683A681A6400BF0C37BD4691
:1026D00080BC704780B483B000AF78607B685B6972
:1026E00043F001027B685A6100BF0C37BD4680BCD5
:1026F0007047000080B584B000AF78603960002377
:10270000FB607B681B68FB607B68274A93420BD0A9
:102710007B68B3F1804F07D07B68244A934203D093
:102720007B68234A934206D1FB6823F070023B6822
:102730005B681343FB607B681B4A93420BD07B684A
:10274000B3F1804F07D07B68184A934203D07B686F
:10275000174A934206D1FB6823F440723B68DB685A
:102760001343FB607B68FA681A603B689B681946F4
:102770007868FFF761FF3B681B8819467868FFF7A8
:102780004EFF7B68084A934205D13B681B7C194683
:102790007868FFF75EFF7868FFF79CFF0123184613
:1027A0001037BD4680BD00BF002C01400004004032
:1027B0000008004080B586B000AFF860B9607A606C
:1027C0000023FB75BB68102B12D0102B02D8012BF5
:1027D00007D022E0B3F5807F11D0B3F5805F15D02C
:1027E0001BE07968F86800F01DF80346FB7514E0FB
:1027F0007968F86800F082F80346FB750DE07968A7
:10280000F86800F0EBF80346FB7506E07968F868B5
:1028100000F054F90346FB7500BFFB7D18461837DE
:10282000BD4680BD80B586B000AF786039600023BA
:10283000FB6000237B6100233B617B681B6A23F004
:1028400001027B681A627B681B6A7B617B685B683C
:102850003B617B689B69FB60FB6823F00303FB60C3
:10286000FB6823F070023B681B681343FB607B69C5
:1028700023F002023B681B6913437B617B6923F0F1
:1028800001023B685B6813437B617B681A4A934291
:102890001ED17B6923F008023B685B699B001343F0
:1028A0007B617B6923F004023B689B689B001343B8
:1028B0007B613B6923F480723B689B6913433B61F6
:1028C0003B6923F400723B68DB695B0013433B61A7
:1028D0007B683A695A607B68FA689A613B68DB6892
:1028E00019467868FFF7C2FE7B687A691A6201238D
:1028F00018461837BD4680BD002C014080B586B013
:1029000000AF786039600023FB6000237B61002307
:102910003B617B681B6A23F010027B681A627B684C
:102920001B6A7B617B685B683B617B689B69FB60C2
:10293000FB6823F44073FB60FB6823F4E0423B68D0
:102940001B681B021343FB607B6923F020023B687A
:102950001B691B0113437B617B6923F010023B68F9
:102960005B681B0113437B617B681B4A93421FD149
:102970007B6923F080023B685B699B0113437B61A9
:102980007B6923F040023B689B689B0113437B619A
:102990003B6923F480623B689B699B0013433B6166
:1029A0003B6923F400623B68DB69DB0013433B6156
:1029B0007B683A695A607B68FA689A613B68DB68B1
:1029C00019467868FFF75FFE7B687A691A6201230F
:1029D00018461837BD4680BD002C014080B586B032
:1029E00000AF786039600023FB6000237B61002327
:1029F0003B617B681B6A23F480727B681A627B6888
:102A00001B6A7B617B685B683B617B68DB69FB60A1
:102A1000FB6823F00303FB60FB6823F070023B6854
:102A20001B681343FB607B6923F400723B681B69DE
:102A30001B0213437B617B6923F480723B685B68F4
:102A40001B0213437B617B681B4A93421FD17B6946
:102A500023F400623B685B699B0213437B617B69E3
:102A600023F480623B689B689B0213437B613B6954
:102A700023F480523B689B691B0113433B613B6914
:102A800023F400523B68DB695B0113433B617B68C5
:102A90003A695A607B68FA68DA613B68DB68194614
:102AA0007868FFF7FDFD7B687A691A620123184692
:102AB0001837BD4680BD00BF002C014080B586B0F0
:102AC00000AF7860396000233B610023FB60002386
:102AD0007B617B681B6A23F480527B681A627B6887
:102AE0001B6AFB607B685B687B617B68DB693B61C1
:102AF0003B6923F440733B613B6923F4E0423B684C
:102B00001B681B0213433B61FB6823F400523B68C4
:102B10001B691B031343FB60FB6823F480523B6873
:102B20005B681B031343FB607B680F4A934207D12A
:102B30007B6923F480423B689B699B0113437B6163
:102B40007B687A695A607B683A69DA613B68DB685E
:102B500019467868FFF7B1FD7B68FA681A620123AD
:102B600018461837BD4680BD002C014080B483B0A4
:102B700000AF78607B68DB6803F40053B3F5005F57
:102B80000CBF01230023DBB218460C37BD4680BCC6
:102B9000704780B483B000AF786039607B681B6990
:102BA00023F440523B681A437B681A6100BF0C371C
:102BB000BD4680BC704780B483B000AF7860396098
:102BC0007B685B6923F440723B681A437B685A61F7
:102BD00000BF0C37BD4680BC7047000080B485B094
:102BE00000AFF860B9607A60BA6813469B0013447E
:102BF0009A001A447B689B00B2FBF3F3254AA2FBC0
:102C000003235B099BB21B0199B2BA6813469B0070
:102C100013449A001A447B689B00B2FBF3F21D4BED
:102C2000A3FB02035B09642000FB03F3D31A1B011F
:102C30003233184AA2FB03235B099BB203F0F00373
:102C40009BB20B4499B2BA6813469B0013449A0096
:102C50001A447B689B00B2FBF3F20E4BA3FB02030A
:102C60005B09642000FB03F3D31A1B013233094ACA
:102C7000A2FB03235B099BB203F00F039BB20B443F
:102C80009BB21A46FB689A6000BF1437BD4680BCF1
:102C9000704700BF1F85EB5180B588B000AF7860EA
:102CA00039600023FB770023BB617868FFF75EFF84
:102CB0000346002B45D17B68DB6823F4B05323F037
:102CC0000C033A6851683A68D26811433A6812694D
:102CD0000A431A437B68DA603B689B681946786848
:102CE000FFF757FF3B685B6919467868FFF763FF9A
:102CF00007F108031846FFF76FFB7B68134A9342FE
:102D000002D17B69BB610CE07B68114A934202D11E
:102D10003B69BB6105E07B680E4A934201D13B6988
:102D2000BB61BB69002B0CD03B681B68002B08D033
:102D30000123FB773B681B681A46B9697868FFF77F
:102D40004DFFFB7F18462037BD4680BD003801404F
:102D5000004400400048004080B483B000AF786079
:102D6000396009497A683B68B2FBF3F3013B4B6079
:102D7000054B00229A60044B05221A6000BF0C37F5
:102D8000BD4680BC704700BF10E000E080B582B057
:102D900000AF78604FF47A717868FFF7DDFF00BF0D
:102DA0000837BD4680BD000080B485B000AF7860B4
:102DB0000E4B1B68FB60FB687B68B3F1FF3F0CD0D8
:102DC0007B6801337B6008E0084B1B6803F48033A9
:102DD000002B02D07B68013B7B607B68002BF3D12A
:102DE00000BF1437BD4680BC704700BF10E000E054
:102DF00080B483B000AF7860034A7B68136000BF83
:102E00000C37BD4680BC70479400002080B485B06C
:102E100000AF0346FB800023FB60B7F90630842B2C
:102E200005D0B7F90620FB6813440333FB60FB6849
:102E300018461437BD4680BC704780B500AF01F01E
:102E4000C5F90023184680BDF0B587B002AF7860A1
:102E500039607B685C687B681D687B681B699EB213
:102E60007B68B3F908301846FFF7D0FF024607F138
:102E70000C03019300923B6832462946204601F03C
:102E80003FF80346012B01D0002300E0FB68184601
:102E90001437BD46F0BD80B584B000AF78607B6864
:102EA000FB60FB68002B01D0FB6800E001231846A3
:102EB00001F058F9002318461037BD4680BD80B494
:102EC00083B000AF78607B6803F108027B685A60CA
:102ED0007B684FF0FF329A607B6803F108027B68E1
:102EE000DA607B6803F108027B681A617B68002264
:102EF0001A6000BF0C37BD4680BC704780B483B0F9
:102F000000AF78607B6800221A6100BF0C37BD46B5
:102F100080BC704780B485B000AF786039607B6852
:102F20005B68FB603B68FA685A60FB689A683B68BC
:102F30009A60FB689B683A685A60FB683A689A60D6
:102F40003B687A681A617B681B685A1C7B681A6048
:102F500000BF1437BD4680BC704780B485B000AF59
:102F6000786039603B681B68BB60BB68B3F1FF3FAA
:102F700003D17B681B69FB600CE07B680833FB6056
:102F800002E0FB685B68FB60FB685B681A68BB6813
:102F90009A42F6D9FB685A683B685A603B685B689E
:102FA0003A689A603B68FA689A60FB683A685A60C7
:102FB0003B687A681A617B681B685A1C7B681A60D8
:102FC00000BF1437BD4680BC704780B485B000AFE9
:102FD00078607B681B69FB607B685B687A689268D5
:102FE0009A607B689B687A6852685A60FB685A6886
:102FF0007B689A4203D17B689A68FB685A607B6859
:1030000000221A61FB681B685A1EFB681A60FB6885
:103010001B6818461437BD4680BC704780B485B025
:1030200000AFF860B9607A60FB68043BFB60FB6846
:103030004FF080721A60FB68043BFB60BB6823F0B2
:103040000102FB681A60FB68043BFB60084AFB68EE
:103050001A60FB68143BFB607A68FB681A60FB68C7
:10306000203BFB60FB6818461437BD4680BC7047A8
:103070007530000880B483B000AF0C4B1B68B3F10F
:10308000FF3F09D04FF0500383F31188BFF36F8FD8
:10309000BFF34F8F7B60FEE74FF0500383F311883F
:1030A000BFF36F8FBFF34F8F3B60FEE78C000020B4
:1030B000074B19680868B0E8F00F80F30988BFF380
:1030C0006F8F4FF0000080F311884EF00D0E7047A7
:1030D000B022002000BF00BF06480068006880F3EF
:1030E000088862B661B6BFF34F8FBFF36F8F00DF02
:1030F00000BF00BF08ED00E080B584B000AF284BF2
:10310000FB60FB681B78DBB2BB60FB68FF221A70B8
:10311000FB681B78DBB2FB71FB79DBB203F0500379
:10312000DAB2204B1A70204B07221A6009E01E4BBE
:103130001B68013B1C4A1360FB79DBB25B00DBB20E
:10314000FB71FB79DBB203F08003802BEFD0164BD1
:103150001B681B02144A1360134B1B6803F4E063E3
:10316000114A1360BB68DAB2FB681A700F4A0F4B42
:103170001B6843F4700313600C4A0C4B1B6843F04C
:103180007043136000F0B0F8094B00221A60FFF79B
:10319000A3FFFFF76FFF002318461037BD4680BD21
:1031A00000E400E0920200209402002020ED00E004
:1031B0008C00002080B483B000AF4FF0500383F345
:1031C0001188BFF36F8FBFF34F8F7B600E4B1B686F
:1031D00001330D4A13600C4B1B68012B0ED10B4BB6
:1031E0001B68DBB2002B09D04FF0500383F311882A
:1031F000BFF36F8FBFF34F8F3B60FEE700BF0C370D
:10320000BD4680BC704700BF8C00002004ED00E08C
:1032100080B483B000AF104B1B68002B09D14FF076
:10322000500383F31188BFF36F8FBFF34F8F7B6021
:10323000FEE7094B1B68013B074A1360064B1B68FE
:10324000002B04D100233B603B6883F3118800BF4F
:103250000C37BD4680BC70478C0000200000000089
:10326000EFF30980BFF36F8F0D4B1A6820E9F00F61
:1032700010602DE908404FF0500080F3118801F0F4
:1032800051F94FF0000080F31188BDE8084019683B
:103290000868B0E8F00F80F30988BFF36F8F7047BC
:1032A000B022002000BF00BF80B582B000AF4FF059
:1032B000500383F31188BFF36F8FBFF34F8F7B6091
:1032C00001F074F80346002B03D0064B4FF08052F8
:1032D0001A6000233B603B6883F3118800BF083706
:1032E000BD4680BD04ED00E080B400AF074A084B46
:1032F0001B680849A1FB03139B09013B1360064BA4
:1033000007221A6000BFBD4680BC704714E000E091
:1033100094000020D34D621010E000E080B58AB028
:1033200000AF78600023FB6100F096FF574B1B68ED
:10333000002B01D100F00CF9554B1A687B68134043
:10334000002B40F08C807B68002B1CD008227B680F
:1033500013447B607B6803F00703002B13D07B686A
:1033600023F0070308337B607B6803F00703002B1F
:1033700009D04FF0500383F31188BFF36F8FBFF371
:103380004F8F7B61FEE77B68002B68D0414B1B6849
:103390007A689A4263D8404B3B623F4B1B687B6222
:1033A00004E07B6A3B627B6A1B687B627B6A5A68CB
:1033B0007B689A4203D27B6A1B68002BF1D1334BA6
:1033C0001B687A6A9A424AD03B6A1B6808221344F7
:1033D000FB617B6A1A683B6A1A607B6A5A687B6881
:1033E000D21A08235B009A421ED97A6A7B6813447A
:1033F000BB61BB6903F00703002B09D04FF05003FA
:1034000083F31188BFF36F8FBFF34F8F3B61FEE7EC
:103410007B6A5A687B68D21ABB695A607B6A7A6891
:103420005A60B86900F0F6F81A4B1A687B6A5B6854
:10343000D31A184A1360174B1A68184B1B689A4224
:1034400003D2144B1B68154A13607B6A5A68104BF1
:103450001B681A437B6A5A607B6A00221A6000F07C
:1034600009FFFB6903F00703002B09D04FF050035D
:1034700083F31188BFF36F8FBFF34F8FFB60FEE7BD
:10348000FB6918462837BD4680BD00BFA02200203A
:10349000AC220020A422002098220020A822002094
:1034A00080B586B000AF78607B687B617B68002B5D
:1034B00046D008235B427A6913447B617B693B6198
:1034C0003B695A68204B1B681340002B09D14FF011
:1034D000500383F31188BFF36F8FBFF34F8FFB60EF
:1034E000FEE73B691B68002B09D04FF0500383F3C4
:1034F0001188BFF36F8FBFF34F8FBB60FEE73B694F
:103500005A68114B1B681340002B19D03B691B688C
:10351000002B15D13B695A680B4B1B68DB431A40E3
:103520003B695A6000F098FE3B695A68074B1B687C
:103530001344064A1360386900F06CF800F09AFEF4
:1035400000BF1837BD4680BDAC220020A422002059
:1035500080B485B000AF4FF40053BB60274BFB60D5
:10356000FB6803F00703002B0CD0FB680733FB60FC
:10357000FB6823F00703FB60BA68FB68D31A1F4A95
:103580001344BB60FB687B601D4A7B6813601C4B67
:1035900000225A607A68BB681344FB600822FB680B
:1035A0009B1AFB60FB6823F00703FB60FB68154A6E
:1035B0001360144B1B6800225A60124B1B680022D8
:1035C0001A607B683B603B68FA68D21A3B685A60B5
:1035D0000C4B1A683B681A603B685B680A4A1360C8
:1035E0003B685B68094A1360094B4FF000421A6060
:1035F00000BF1437BD4680BC704700BF9802002052
:1036000098220020A0220020A8220020A42200202E
:10361000AC22002080B485B000AF7860274BFB60FF
:1036200002E0FB681B68FB60FB681A687B689A42D3
:10363000F7D3FB68BB60FB685B68BA681A447B68B9
:103640009A4208D1FB685A687B685B681A44FB6839
:103650005A60FB687B607B68BB607B685B68BA68AC
:103660001A44FB681B689A4218D1FB681A68144B0D
:103670001B689A420DD07B685A68FB681B685B68C0
:103680001A447B685A60FB681B681A687B681A607A
:1036900008E00B4B1A687B681A6003E0FB681A6845
:1036A0007B681A60FA687B689A4202D0FB687A6885
:1036B0001A6000BF1437BD4680BC704798220020B6
:1036C000A022002080B584B000AF786039607B68AC
:1036D000FB60FB68002B09D14FF0500383F3118886
:1036E000BFF36F8FBFF34F8FBB60FEE7FFF762FD45
:1036F000FB681A68FB68DB6BF968096C01FB03F374
:103700001A44FB685A60FB6800229A63FB681A68D7
:10371000FB689A60FB681A68FB68DB6B013BF96821
:10372000096C01FB03F31A44FB68DA60FB68FF22B3
:1037300083F84420FB68FF2283F845203B68002B78
:1037400014D1FB681B69002B1AD0FB681033184694
:1037500000F076FF0346002B12D00D4B4FF0805245
:103760001A60BFF34F8FBFF36F8F09E0FB68103310
:103770001846FFF7A4FBFB6824331846FFF79FFBAE
:10378000FFF746FD012318461037BD4680BD00BF38
:1037900004ED00E080B58AB002AFF860B96013466E
:1037A000FB71FB68002B09D14FF0500383F31188A4
:1037B000BFF36F8FBFF34F8F3B61FEE7BB68002BFA
:1037C00002D10023FB6104E0FB68BA6802FB03F34B
:1037D000FB61FB6948331846FFF7A0FDB861BB6980
:1037E000002B0BD0BB6948337B61FA79BB6900932E
:1037F00013467A69B968F86800F005F8BB6918469D
:103800002037BD4680BD80B584B000AFF860B96098
:103810007A60FB70BB68002B03D1BB69BA691A6080
:1038200002E0BB697A681A60BB69FA68DA63BB694F
:10383000BA681A640121B869FFF744FF00BF103766
:10384000BD4680BD80B58EB000AFF860B9607A60CB
:103850003B6000237B63FB683B633B6B002B09D120
:103860004FF0500383F31188BFF36F8FBFF34F8F77
:10387000BB62FEE7BB68002B03D13B6B1B6C002BCC
:1038800001D1012300E00023002B09D14FF05003A8
:1038900083F31188BFF36F8FBFF34F8F7B62FEE717
:1038A0003B68022B03D13B6BDB6B012B01D1012366
:1038B00000E00023002B09D14FF0500383F311885F
:1038C000BFF36F8FBFF34F8F3B62FEE701F06EF8DF
:1038D0000346002B02D17B68002B01D1012300E0BD
:1038E0000023002B09D14FF0500383F31188BFF35D
:1038F0006F8FBFF34F8FFB61FEE7FFF75BFC3B6B06
:103900009A6B3B6BDB6B9A4202D33B68022B29D14B
:103910003A68B968386B00F0BEF9F8623B6B5B6AD5
:10392000002B10D03B6B2433184600F089FE034671
:10393000002B13D03F4B4FF080521A60BFF34F8FD4
:10394000BFF36F8F0AE0FB6A002B07D0394B4FF0B3
:1039500080521A60BFF34F8FBFF36F8FFFF758FC91
:10396000012363E07B68002B03D1FFF751FC0023A8
:103970005CE07B6B002B06D107F11403184600F0C6
:10398000C1FE01237B63FFF743FC00F065FCFFF7FA
:1039900011FC3B6B93F844305BB2B3F1FF3F03D1B2
:1039A0003B6B002283F844203B6B93F845305BB2BD
:1039B000B3F1FF3F03D13B6B002283F84520FFF7B3
:1039C00027FC3A1D07F114031146184600F0BCFE0F
:1039D0000346002B24D1386B00F055FA0346002B28
:1039E00018D03B6B10337A681146184600F004FE7D
:1039F000386B00F0E0F900F03DFC0346002B7FF44B
:103A00007CAF0C4B4FF080521A60BFF34F8FBFF367
:103A10006F8F72E7386B00F0CEF900F02BFC6CE78B
:103A2000386B00F0C8F900F025FC00231846383741
:103A3000BD4680BD04ED00E080B58EB000AFF860FB
:103A4000B9607A603B6000237B63FB683B633B6B40
:103A5000002B09D14FF0500383F31188BFF36F8F10
:103A6000BFF34F8F7B62FEE7BB68002B03D13B6B3C
:103A70001B6C002B01D1012300E00023002B09D196
:103A80004FF0500383F31188BFF36F8FBFF34F8F55
:103A90003B62FEE700F08AFF0346002B02D17B6801
:103AA000002B01D1012300E00023002B09D14FF0AE
:103AB000500383F31188BFF36F8FBFF34F8FFB6108
:103AC000FEE7FFF777FB3B6B9B6BFB62FB6A002B10
:103AD00046D03B6BDB68BB62B968386B00F045F9D8
:103AE0003B68002B21D1FB6A5A1E3B6B9A633B6BF0
:103AF0001B68002B04D101F071F802463B6B5A6041
:103B00003B6B1B69002B27D03B6B1033184600F032
:103B100097FD0346002B1FD04F4B4FF080521A6089
:103B2000BFF34F8FBFF36F8F16E03B6BBA6ADA605B
:103B30003B6B5B6A002B0FD03B6B2433184600F0C5
:103B40007FFD0346002B07D0434B4FF080521A6095
:103B5000BFF34F8FBFF36F8FFFF75AFB012377E05F
:103B60007B68002B03D1FFF753FB002370E07B6BD6
:103B7000002B06D107F11403184600F0C3FD012302
:103B80007B63FFF745FB00F067FBFFF713FB3B6B25
:103B900093F844305BB2B3F1FF3F03D13B6B00229B
:103BA00083F844203B6B93F845305BB2B3F1FF3FA1
:103BB00003D13B6B002283F84520FFF729FB3A1D18
:103BC00007F114031146184600F0BEFD0346002B12
:103BD00031D1386B00F041F90346002B25D03B6B07
:103BE0001B68002B08D1FFF7E5FA3B6B5B681846B2
:103BF00000F0FAFEFFF70CFB3B6B24337A681146AA
:103C0000184600F0F9FC386B00F0D5F800F032FBF4
:103C10000346002B7FF455AF0F4B4FF080521A60D4
:103C2000BFF34F8FBFF36F8F4BE7386B00F0C3F8D4
:103C300000F020FB45E7386B00F0BDF800F01AFB00
:103C4000386B00F00AF90346002B3FF43AAF00232B
:103C500018463837BD4680BD04ED00E080B584B01D
:103C600000AF78607B68002B09D14FF0500383F3DD
:103C70001188BFF36F8FBFF34F8FBB60FEE7FFF775
:103C800099FA7B689B6BFB60FFF7C2FAFB681846EA
:103C90001037BD4680BD80B586B000AFF860B96012
:103CA0007A6000237B61FB689B6B3B61FB681B6C4C
:103CB000002B0DD1FB681B68002B4DD1FB685B68A6
:103CC000184600F007FF7861FB6800225A6043E065
:103CD0007B68002B19D1FB689868FB681B6C1A463F
:103CE000B96803F0A3FBFB689A68FB681B6C1A4475
:103CF000FB689A60FB689A68FB685B689A422BD302
:103D0000FB681A68FB689A6026E0FB68D868FB6865
:103D10001B6C1A46B96803F089FBFB68DA68FB681C
:103D20001B6C5B421A44FB68DA60FB68DA68FB686C
:103D30001B689A4207D2FB685A68FB681B6C5B429F
:103D40001A44FB68DA607B68022B05D13B69002BC3
:103D500002D03B69013B3B613B695A1CFB689A639B
:103D60007B6918461837BD4680BD80B582B000AF6C
:103D7000786039607B681B6C002B18D07B68DA6830
:103D80007B681B6C1A447B68DA607B68DA687B6846
:103D90005B689A4203D37B681A687B68DA607B6849
:103DA000D9687B681B6C1A46386803F03FFB00BF7C
:103DB0000837BD4680BD80B584B000AF7860FFF79E
:103DC000F9F97B6893F84530FB7311E07B685B6A17
:103DD000002B12D07B682433184600F031FC0346D8
:103DE000002B01D000F00EFDFB7B013BDBB2FB732F
:103DF00097F90F30002BE9DC00E000BF7B68FF2261
:103E000083F84520FFF704FAFFF7D4F97B6893F8AD
:103E10004430BB7311E07B681B69002B12D07B68B8
:103E20001033184600F00CFC0346002B01D000F0C4
:103E3000E9FCBB7B013BDBB2BB7397F90E30002B77
:103E4000E9DC00E000BF7B68FF2283F84420FFF735
:103E5000DFF900BF1037BD4680BD80B584B000AF2C
:103E60007860FFF7A7F97B689B6B002B02D10123D9
:103E7000FB6001E00023FB60FFF7CAF9FB6818460E
:103E80001037BD4680BD80B584B000AF7860FFF7C5
:103E900091F97B689A6B7B68DB6B9A4202D10123B4
:103EA000FB6001E00023FB60FFF7B2F9FB681846F6
:103EB0001037BD4680BD80B483B000AF78603960F4
:103EC0007B68DA683B681B0A9BB25A407B68DA6001
:103ED00000BF0C37BD4680BC7047000080B582B083
:103EE00000AF7860396004490448FFF7E4FFC82058
:103EF00000F05EFFF7E700BF20002004000C014047
:103F000080B58CB004AFF860B9603B601346FB80AD
:103F1000FB889B001846FFF701FA78617B69002B4C
:103F20000ED05420FFF7FAF9F861FB69002B03D09B
:103F3000FB697A691A6305E07869FFF7B1FA01E075
:103F40000023FB61FB69002B13D0FA880023039345
:103F5000FB690293FB6A0193BB6A00933B68B968F3
:103F6000F86800F00EF8F86900F092F80123BB61E0
:103F700002E04FF0FF33BB61BB6918462037BD46F6
:103F800080BD80B588B000AFF860B9607A603B60F2
:103F90003B6B186B7B689B001A46A52103F051FA16
:103FA0003B6B1A6B7B6803F18043013B9B0013441E
:103FB000BB61BB6923F00703BB61BB6903F0070367
:103FC000002B09D04FF0500383F31188BFF36F8F9C
:103FD000BFF34F8F7B61FEE70023FB6112E0BA68FD
:103FE000FB69134419783A6BFB69134434330A466E
:103FF0001A70BA68FB6913441B78002B06D0FB6962
:104000000133FB61FB690F2BE9D900E000BF3B6B7B
:10401000002283F84320BB6A062B01D90623BB622A
:104020003B6BBA6ADA623B6BBA6A5A643B6B00223A
:104030009A643B6B04331846FEF760FF3B6B183302
:104040001846FEF75BFF3B6B3A6B1A61BB6AC3F124
:1040500007023B6B9A613B6B3A6B5A623B6B0022E7
:10406000DA643B6B002283F850203A68F968B8693B
:10407000FEF7D4FF02463B6B1A60FB6A002B02D0AE
:10408000FB6A3A6B1A6000BF2037BD4680BD000056
:1040900080B582B000AF7860FFF78CF82A4B1B68C0
:1040A0000133294A1360294B1B68002B09D1274A89
:1040B0007B681360244B1B68012B10D100F0C6FBFA
:1040C0000DE0234B1B68002B09D1204B1B68DA6ADB
:1040D0007B68DB6A9A4202D81C4A7B6813601D4BDE
:1040E0001B6801331B4A13607B68DB6A01229A401C
:1040F000194B1B681343184A13607B68DA6A13462E
:104100009B0013449B00154A1A447B6804331946EC
:104110001046FEF7FFFEFFF77BF80D4B1B68002BE8
:104120000ED00A4B1B68DA6A7B68DB6A9A4207D2B8
:104130000B4B4FF080521A60BFF34F8FBFF36F8F5E
:1041400000BF0837BD4680BDB0230020B02200204C
:10415000BC230020CC230020B8230020B422002060
:1041600004ED00E080B584B000AF78600023FB6010
:104170007B68002B16D0134B1B68002B09D04FF027
:10418000500383F31188BFF36F8FBFF34F8FBB6072
:10419000FEE700F061F80021786800F033FD00F0E0
:1041A00069F8F860FB68002B07D1074B4FF080528D
:1041B0001A60BFF34F8FBFF36F8F00BF1037BD463C
:1041C00080BD00BFD823002004ED00E080B586B09C
:1041D00002AF1B4B01930023009300234FF4807226
:1041E00018491948FFF78CFEF860FB68012B15D1C0
:1041F0004FF0500383F31188BFF36F8FBFF34F8FDE
:10420000BB60124B4FF0FF321A60114B01221A6053
:10421000104B00221A60FEF76FFF0DE0FB68B3F150
:10422000FF3F09D14FF0500383F31188BFF36F8F25
:10423000BFF34F8F7B60FEE700BF1037BD4680BDE8
:10424000D4230020E87F00081D480008D023002068
:10425000BC230020B423002080B400AF044B1B68B3
:104260000133034A136000BFBD4680BC704700BFE6
:10427000D823002080B584B000AF0023FB6000236A
:10428000BB60414B1B68002B09D14FF0500383F3F7
:104290001188BFF36F8FBFF34F8F3B60FEE7FEF7D0
:1042A00089FF394B1B68013B374A1360364B1B684B
:1042B000002B61D1354B1B68002B5DD02EE0344BB9
:1042C000DB68DB68FB60FB6818331846FEF77DFE91
:1042D000FB6804331846FEF778FEFB68DB6A0122B0
:1042E0009A402C4B1B6813432A4A1360FB68DA6A16
:1042F00013469B0013449B00274A1A44FB6804336F
:1043000019461046FEF706FEFB68DA6A234B1B6867
:10431000DB6A9A4202D3224B01221A601C4B1B68B3
:10432000002BCCD1FB68002B01D000F01BFB1D4BF8
:104330001B687B607B68002B10D000F037F80346C9
:10434000002B02D0164B01221A607B68013B7B6078
:104350007B68002BF1D1134B00221A60104B1B68B5
:10436000002B09D00123BB600F4B4FF080521A6025
:10437000BFF34F8FBFF36F8FFEF74AFFBB6818463E
:104380001037BD4680BD00BFD8230020B0230020D9
:1043900070230020B8230020B4220020B022002087
:1043A000C4230020C023002004ED00E080B586B0C7
:1043B00000AF00237B61504B1B68002B40F08C80CA
:1043C0004E4B1B6801333B614C4A3B6913603B69B0
:1043D000002B1FD14A4B1B681B68002B09D04FF0E4
:1043E000500383F31188BFF36F8FBFF34F8F3B6090
:1043F000FEE7434B1B68FB60424B1B68404A13605F
:10440000404AFB681360404B1B6801333E4A13600F
:1044100000F0A8FA3D4B1B683A699A424DD3384BDD
:104420001B681B68002B01D1012300E00023002B37
:1044300004D0364B4FF0FF321A603EE0304B1B6821
:10444000DB68DB68BB60BB685B687B603A697B6884
:104450009A4203D22D4A7B6813602EE0BB68043376
:104460001846FEF7B2FDBB689B6A002B04D0BB6800
:1044700018331846FEF7A9FDBB68DB6A01229A4093
:10448000234B1B681343224A1360BB68DA6A134646
:104490009B0013449B001F4A1A44BB68043319460F
:1044A0001046FEF737FDBB68DA6A1B4B1B68DB6AF8
:1044B0009A42B4D301237B61B1E7174B1B68DA6AD8
:1044C000144913469B0013449B000B441B68012BAB
:1044D00007D901237B6104E0104B1B6801330F4AAD
:1044E00013600F4B1B68002B01D001237B617B699C
:1044F00018461837BD4680BDD8230020B4230020BD
:10450000682300206C230020C8230020D023002033
:10451000B8230020B4220020B0220020C0230020B5
:10452000C423002080B586B000AF2E4B1B68002B43
:1045300003D02D4B01221A604FE02B4B00221A6052
:104540002A4B1B681A68294B1B681B6B9A4208D8B8
:10455000264B1A68254B1B68343319461046FFF763
:10456000BDFC234B1B68FB60FB68B3FA83F3FB7253
:10457000FB7AC3F11F037B611E497A6913469B00D6
:1045800013449B000B441B68002B09D14FF05003D0
:1045900083F31188BFF36F8FBFF34F8F7B60FEE70C
:1045A0007A6913469B0013449B00124A13443B61F3
:1045B0003B695B685A683B695A603B695A683B696A
:1045C00008339A4204D13B695B685A683B695A6078
:1045D0003B695B68DB68054A136000BF1837BD465E
:1045E00080BD00BFD8230020C4230020B0220020BB
:1045F000B8230020B422002080B584B000AF7860DA
:1046000039607B68002B09D14FF0500383F3118888
:10461000BFF36F8FBFF34F8FFB60FEE7074B1B6845
:10462000183319467868FEF798FC0121386800F0C5
:10463000E9FA00BF1037BD4680BD00BFB0220020A0
:1046400080B586B000AF78607B68DB68DB683B6173
:104650003B69002B09D14FF0500383F31188BFF35E
:104660006F8FBFF34F8FFB60FEE73B69183318462F
:10467000FEF7ABFC1D4B1B68002B1CD13B690433C0
:104680001846FEF7A2FC3B69DB6A01229A40184BF0
:104690001B681343164A13603B69DA6A13469B0092
:1046A00013449B00134A1A443B69043319461046CD
:1046B000FEF730FC05E03B69183319460E48FEF75B
:1046C00029FC3B69DA6A0D4B1B68DB6A9A4205D903
:1046D00001237B610A4B01221A6001E000237B6108
:1046E0007B6918461837BD4680BD00BFD82300201F
:1046F000B8230020B422002070230020B022002024
:10470000C423002080B485B000AF78607B68002BA4
:1047100009D14FF0500383F31188BFF36F8FBFF3BC
:104720004F8FFB60FEE7064B1A687B681A60054BEB
:104730001A687B685A6000BF1437BD4680BC70475A
:10474000C8230020B423002080B586B000AF786075
:1047500039607B68002B09D14FF0500383F3118837
:10476000BFF36F8FBFF34F8FFB60FEE73B68002BFB
:1047700009D14FF0500383F31188BFF36F8FBFF35C
:104780004F8FBB60FEE7FEF715FD1C4B1B683B61BE
:104790003B681B68B3F1FF3F02D100237B6126E039
:1047A0007B681A68164B1B689A4207D07B685A6868
:1047B0003B699A4202D801237B6118E07B685B6801
:1047C0003A69D21A3B681B689A420ED23B681A6853
:1047D0007B6859683B69CB1A1A443B681A60786851
:1047E000FFF790FF00237B6101E001237B61FEF76F
:1047F0000FFD7B6918461837BD4680BDB4230020E5
:10480000C823002080B400AF034B01221A6000BF10
:10481000BD4680BC704700BFC423002080B582B075
:1048200000AF786000F052F8064B1B68012BF9D9F5
:10483000054B4FF080521A60BFF34F8FBFF36F8F5D
:10484000F0E700BFB422002004ED00E080B582B0A4
:1048500000AF00237B600CE07A6813469B00134492
:104860009B00124A13441846FEF729FB7B6801336C
:104870007B607B68062BEFD90D48FEF720FB0D48C7
:10488000FEF71DFB0C48FEF71AFB0C48FEF717FB62
:104890000B48FEF714FB0B4B054A1A600A4B054AFE
:1048A0001A6000BF0837BD4680BD00BFB42200209B
:1048B0004023002054230020702300208423002064
:1048C0009C230020682300206C23002080B582B048
:1048D00000AF28E0FFF7C0FC174B1B68002B0CBF94
:1048E00001230023DBB27B60FFF7C4FC7B68002B55
:1048F00019D1FEF75FFC104BDB68DB683B603B685F
:1049000004331846FEF761FB0C4B1B68013B0B4A56
:1049100013600B4B1B68013B094A1360FEF778FCE0
:10492000386800F00FF8064B1B68002BD2D100BF8F
:104930000837BD4680BD00BF84230020B02300207F
:104940009823002080B582B000AF78607B681B6B35
:104950001846FEF7A5FD7868FEF7A2FD00BF0837F0
:10496000BD4680BD80B483B000AF0E4B1B681B6892
:10497000002B01D1012300E00023002B04D00A4BBF
:104980004FF0FF321A6008E0064B1B68DB68DB68FB
:104990007B607B685B68044A136000BF0C37BD46D0
:1049A00080BC704768230020D023002080B483B0EF
:1049B00000AF0B4B1B68002B02D101237B6008E08A
:1049C000084B1B68002B02D102237B6001E000230F
:1049D0007B607B6818460C37BD4680BC704700BFC3
:1049E000BC230020D823002080B584B000AF7860BD
:1049F0007B68FB607B68002B62D0FB68DA6A324B15
:104A00001B68DB6A9A425BD2FB689B69002B06DB62
:104A10002D4B1B68DB6AC3F10702FB689A61FB68D8
:104A20005969FB68DA6A13469B0013449B00274AC6
:104A30001344994201D1012300E00023002B3AD016
:104A4000FB6804331846FEF7C0FA0346002B15D165
:104A5000FB68DA6A1D4913469B0013449B000B4414
:104A60001B68002B0AD1FB68DB6A012202FA03F300
:104A7000DA43174B1B681340154A1360124B1B682F
:104A8000DA6AFB68DA62FB68DB6A01229A40104B43
:104A90001B6813430E4A1360FB68DA6A13469B00D7
:104AA00013449B00094A1A44FB6804331946104614
:104AB000FEF730FA04E0044B1B68DA6AFB68DA623E
:104AC00000BF1037BD4680BDB0220020B4220020B8
:104AD000B823002080B586B000AF78607B683B616A
:104AE00000237B617B68002B6CD0394B1B683A69D3
:104AF0009A4209D04FF0500383F31188BFF36F8FB0
:104B0000BFF34F8FFB60FEE73B699B6C002B09D125
:104B10004FF0500383F31188BFF36F8FBFF34F8FB4
:104B2000BB60FEE73B699B6C5A1E3B699A643B691C
:104B3000DA6A3B695B6C9A4244D03B699B6C002B00
:104B400040D13B6904331846FEF73FFA0346002B79
:104B500015D13B69DA6A1F4913469B0013449B0039
:104B60000B441B68002B0AD13B69DB6A012202FA65
:104B700003F3DA43184B1B681340174A13603B6971
:104B80005A6C3B69DA623B69DB6AC3F107023B6935
:104B90009A613B69DB6A01229A400F4B1B68134301
:104BA0000D4A13603B69DA6A13469B0013449B006D
:104BB000084A1A443B69043319461046FEF7AAF91D
:104BC00001237B617B6918461837BD4680BD00BF55
:104BD000B0220020B4220020B823002080B400AF0F
:104BE000074B1B68002B04D0054B1B689A6C0132E5
:104BF0009A64034B1B681846BD4680BC704700BFD3
:104C0000B022002080B584B000AF78603960294BB5
:104C10001B68FB60284B1B6804331846FEF7D5F968
:104C20000346002B0BD1244B1B68DB6A012202FADE
:104C300003F3DA43214B1B681340204A13607B685F
:104C4000B3F1FF3F0AD13B68002B07D01A4B1B681A
:104C5000043319461A48FEF75DF926E0FA687B68C6
:104C60001344BB60144B1B68BA685A60BA68FB688F
:104C70009A4209D2134B1A680F4B1B68043319462A
:104C80001046FEF76AF910E00F4B1A680A4B1B68D2
:104C9000043319461046FEF760F90C4B1B68BA68DE
:104CA0009A4202D2094ABB68136000BF1037BD4662
:104CB00080BD00BFB4230020B0220020B823002014
:104CC0009C2300206C23002068230020D023002098
:104CD00080B483B000AF78607B6801229A6000BF27
:104CE0000C37BD4680BC704780B483B000AF78609D
:104CF00039607B683A681A6000BF0C37BD4680BCDB
:104D0000704780B483B000AF78607B681B6818463A
:104D10000C37BD4680BC704780B485B000AF78606A
:104D20000849084B5A697B6813434B61054B5A6924
:104D30007B681340FB60FB6800BF1437BD4680BC36
:104D4000704700BF0010024080B500AF4020FFF761
:104D5000E3FF00BF80BD000080B586B000AF786083
:104D600039601248FFF7B4FF00237B610EE07B69D6
:104D70009B007A6813441B683B613B691BBA194668
:104D80000A48FFF7B1FF7B6901337B617A693B68B1
:104D90009A42ECD30548FFF7B4FF0346FB60FB687B
:104DA0001BBADB4318461837BD4680BD00300240B1
:104DB00080B582B000AF0346FB80FB881846FDF744
:104DC000F3FF00BF0837BD4680BD000080B400AFD0
:104DD000024B9B681846BD4680BC704710E000E05F
:104DE00080B400AF044BDB681B0A03F007031846CE
:104DF000BD4680BC704700BF00ED00E080B483B0CA
:104E000000AF0346FB71084997F907305B09FA794F
:104E100002F01F02012000FA02F241F8232000BF35
:104E20000C37BD4680BC704700E100E080B483B021
:104E300000AF03463960FB7197F90730002B0BDA9E
:104E40000D49FB7903F00F03043B3A68D2B212011B
:104E5000D2B20B441A7609E0084997F907303A684C
:104E6000D2B21201D2B20B4483F8002300BF0C3738
:104E7000BD4680BC704700BF00ED00E000E100E0EF
:104E800080B489B000AFF860B9607A60FB6803F065
:104E90000703FB61FB69C3F10703042B28BF04234D
:104EA000BB61FB690433062B02D9FB69033B00E0BD
:104EB00000237B610122BB6902FA03F35A1EBB681F
:104EC0001A407B699A4001217B6901FA03F3591E5C
:104ED0007B680B40134318462437BD4680BC70479F
:104EE00080B483B000AF7860034A7B68536100BF31
:104EF0000C37BD4680BC70470004014080B483B0CD
:104F000000AF78607B689B6818460C37BD4680BC54
:104F10007047000090B484B000AF78603960114CE5
:104F20003B68DBB20F493A68D2B2023251F8221024
:104F30003A68120CD24311403A68120CFA60FA68CF
:104F400092FAA2F2BA60BA68B2FA82F2786800FA0B
:104F500002F20A43023344F8232000BF1037BD4653
:104F600090BC70470000014080B588B000AF07F1E9
:104F7000180300221A605A600223BB6101233B77A9
:104F800000237B770123BB7707F118031846FCF752
:104F900025FF4FF48043BB6101233B7700237B77E0
:104FA0000223BB7707F118031846FCF717FF4FF4ED
:104FB00070010120FFF7AEFF1D490120FFF7AAFF96
:104FC0003B1D00221A605A609A60DA601A61194B20
:104FD0007B600823BB600323FB6000237B613B1DD8
:104FE00019461548FDF725F8FFF7FAFE034600229B
:104FF00008211846FFF744FF034619460720FFF72C
:1050000015FF0720FFF7FAFEFFF7EAFE034600222E
:1050100008211846FFF734FF034619462820FFF7FA
:1050200005FF2820FFF7EAFE00BF2037BD4680BD00
:105030000300000FC202C004000C014080B500AFA5
:105040000220FFF74DFF024B01221A7000BF80BD06
:10505000DC23002080B500AF4FF48040FFF740FF15
:105060000D4B01221A700E2000F05CF80346002B55
:1050700014BF01230023DAB2084B1A700F2000F08E
:1050800051F80346002B14BF01230023DAB2044B6E
:105090001A7000BF80BD00BFDD230020DE2300208A
:1050A000DF23002080B400AF024B1B781846BD46BA
:1050B00080BC7047DC23002080B400AF034B00228B
:1050C0001A7000BFBD4680BC704700BFDC230020C3
:1050D00080B400AF024B1B781846BD4680BC7047B9
:1050E000DD23002080B400AF034B00221A7000BF04
:1050F000BD4680BC704700BFDD23002080B400AFF8
:10510000024B1B781846BD4680BC7047DE2300204A
:1051100080B400AF024B1B781846BD4680BC704778
:10512000DF23002080B584B000AF0346FB710A483E
:10513000FFF7E4FE0346FB81FA89FB7942FA03F3A9
:1051400003F00103002B14BF01230023DBB2184638
:105150001037BD4680BD00BF000C014080B500AFD8
:10516000002204210220FEF715FB0246014B1A60C3
:1051700000BF80BD5430002080B584B000AF03462E
:105180000A46FB8013467B716423FB6097F9052078
:10519000084B9A70B7F90620064B1A80064B186820
:1051A0000023FA680349FEF74DFB00BF1037BD46E8
:1051B00080BD00BF583000205430002080B582B040
:1051C00000AF0A4B1868394600230022FEF734FC72
:1051D0003B687B600023BA8862F30F03FA8862F3AE
:1051E0001F4318460837BD4680BD00BF543000201D
:1051F00080B500AF064B1B681846FEF72FFD03462F
:10520000002B01D0012300E00023184680BD00BF21
:105210005430002080B582B000AF7860FBF712FDFB
:10522000FBF716FD0346032B27D801A252F823F003
:105230007B5200085D5200086D5200084152000880
:10524000114B1B780133DAB20F4B1A700E4B1B78DF
:10525000042B14D90C4B00221A7010E00A4B1B7857
:1052600019464FF69C70FFF787FF09E0064B1B7845
:1052700019466420FFF780FF02E000BF00E000BF96
:105280000520FDF708FECBE7E023002080B582B0C3
:1052900002AF002301930023009300234FF4807298
:1052A00003490448FEF72CFE00BFBD4680BD00BF89
:1052B000F07F00081552000880B5A2B000AF7860FA
:1052C0000120FFF72FFF0346002B23D10FE03B4BBC
:1052D0001B780133DAB2394B1A70FAF771FF374B8A
:1052E0001B781A467B689A4201DB002361E0FAF7DB
:1052F000DBFF0346002BEAD031493248FAF7E4FFDE
:105300000346002BE3D05020FBF752F80346002B56
:10531000DDD04DE007F1080320221946A02000F05F
:10532000A9FA0520FFF744FD07F14803202219469A
:10533000D02000F09FFA20E007F108032022194650
:10534000A02000F097FA0520FFF732FD07F148038F
:1053500020221946D02000F08DFA184B1B7801331B
:10536000DAB2164B1A70FAF72BFF144B1B781A4659
:105370007B689A4201DB00231BE007F108031B78DE
:10538000002BD9D0FAF788FF0346002BD4D007F1C1
:10539000480207F1080311461846FAF7D7FF0346FB
:1053A000002BC9D05020FBF703F80346002BC3D0D5
:1053B000012318468837BD4680BD00BFE123002089
:1053C000F87F00080480000890B585B000AF7860D1
:1053D0000023FB7301F0DEFAFAF7EAFE0520FFF77F
:1053E0006BFF0346002B01D001F0FCFAFBF76AF9D2
:1053F00003461846FAF7ACFE0346012B34D9FB7B73
:10540000002B31D15020FBF719F80123FB73FAF779
:1054100053FF0346002B12D0FBF754F90446FBF769
:1054200079F9034619462046FAF790FF0346002B08
:1054300005D05020FAF7BCFF0346002B01D1002312
:10544000FB73FBF73FF9034620221946A02000F02A
:10545000A9F90520FFF7ACFCFBF75CF90346202215
:105460001946D02000F09EF9042204490448FBF7B5
:1054700061FF0A20FDF70FFDB8E700BF308000088C
:105480007800002080B582B002AF00230193012391
:10549000009300234FF4807203490448FEF730FD67
:1054A00000BFBD4680BD00BF04800008C95300088E
:1054B00080B483B000AF78607B681B6823F0800203
:1054C0007B681A6000BF0C37BD4680BC704780B453
:1054D00083B000AF78607B681B6823F040027B6874
:1054E0001A6000BF0C37BD4680BC704780B483B0E3
:1054F00000AF786039607B68DB6823F0FE023B68B0
:105500001A437B68DA6000BF0C37BD4680BC704729
:1055100080B483B000AF78607B68DB6823F0010261
:105520007B68DA6000BF0C37BD4680BC704780B432
:1055300083B000AF78607B685B6903F08003802BE9
:105540000CBF01230023DBB218460C37BD4680BCDC
:10555000704780B483B000AF78607B685B6903F00C
:105560004003402B0CBF01230023DBB218460C374D
:10557000BD4680BC704780B483B000AF78607B6864
:105580005B6903F00103012B0CBF01230023DBB295
:1055900018460C37BD4680BC704780B483B000AF5E
:1055A00078607B685B6903F00203022B0CBF012368
:1055B0000023DBB218460C37BD4680BC704780B470
:1055C00085B000AF78607B685B69FB60FB687B68D7
:1055D0009B69FB60FB6800BF1437BD4680BC704709
:1055E00080B483B000AF786039607B681B6823F4B7
:1055F00080623B681A437B681A6000BF0C37BD4667
:1056000080BC704780B483B000AF78607B681B6853
:1056100043F480727B681A6000BF0C37BD4680BCC3
:10562000704780B483B000AF78607B681B6843F438
:1056300000727B681A6000BF0C37BD4680BC7047A3
:1056400080B483B000AF78607B681B6823F400628D
:105650007B681A6000BF0C37BD4680BC704780B4C1
:1056600083B000AF78607B681B69DBB218460C37EB
:10567000BD4680BC704780B483B000AF78600B46F5
:10568000FB707B681B6923F0FF02FB781A437B6881
:105690001A6100BF0C37BD4680BC704780B485B02E
:1056A00000AF78600849084BDA697B681343CB6127
:1056B000054BDA697B681340FB60FB6800BF143759
:1056C000BD4680BC704700BF0010024080B485B06A
:1056D00000AF78600849084B9A697B6813438B6177
:1056E000054B9A697B681340FB60FB6800BF143769
:1056F000BD4680BC704700BF0010024080B58CB032
:1057000000AF07F1180300221A605A609A60DA604D
:105710001A615A613B1D00221A605A609A60DA6071
:105720001A610820FFF7D2FF4FF48000FFF7B6FFA1
:10573000184B7B600923BB600323FB6004233B61A0
:105740003B1D19461448FCF774FC1448FFF7E0FEB3
:105750001248FFF7BCFE1148FFF7AAFE0023BB6109
:105760000F4BFB6100233B6200237B624FF480639D
:10577000BB624FF48043FB6207F1180319460748E8
:10578000FCF7A2FD00210548FFF7B0FE00BF30374F
:10579000BD4680BD0C000C04000C014000580040C8
:1057A000A086010080B586B000AF0346B9607A607C
:1057B000FB812F48FFF744FF4FF480612C48FFF72F
:1057C0000FFF2B48FFF71EFF00BF2948FFF7D3FE4E
:1057D0000346002BF9D0264B5B69A0212448FFF734
:1057E0004AFF00BF2248FFF7D8FE0346002BF9D03E
:1057F0001F48FFF7E4FEFB891B0A9BB2DBB2194688
:105800001B48FFF738FF00BF1948FFF790FE03461B
:10581000002BF9D0FB89DBB219461548FFF72BFFA7
:1058200000BF1348FFF783FE0346002BF9D0002387
:105830007B6111E07B69BA6813441B7819460C48F8
:10584000FFF719FF00BF0A48FFF771FE0346002B60
:10585000F9D07B6901337B617A697B689A42E9D32D
:105860000348FFF7DEFE012318461837BD4680BD0A
:105870000058004090B587B000AF0346B9607A6029
:10588000FB814948FFF7DCFE4FF480614648FFF793
:10589000A7FE4548FFF7B6FE00BF4348FFF76BFE83
:1058A0000346002BF9D0404B5B69A0213E48FFF72F
:1058B000E2FE00BF3C48FFF770FE0346002BF9D024
:1058C0003948FFF77CFEFB891B0A9BB2DBB2194605
:1058D0003548FFF7D0FE00BF3348FFF728FE0346E8
:1058E000002BF9D0FB89DBB219462F48FFF7C3FE26
:1058F00000BF2D48FFF71BFE0346002BF9D02A48B6
:10590000FFF780FE00BF2848FFF735FE0346002B57
:10591000F9D0254B5B69A1212348FFF7ACFE00BFFE
:105920002148FFF73AFE0346002BF9D01E48FFF747
:1059300046FE00237B612DE07B685A1E7B699A42FC
:105940000FD900BF1848FFF704FE0346002BF9D01B
:105950007B69BA68D4181448FFF781FE03462370A8
:1059600015E000211048FFF73BFE0F48FFF759FEF6
:1059700000BF0D48FFF7EDFD0346002BF9D07B6912
:10598000BA68D4180848FFF76AFE034623707B699B
:1059900001337B617A697B689A42CDD30123184633
:1059A0001C37BD4690BD00BF0058004080B400AF1A
:1059B000044BDB681B0A03F007031846BD4680BC96
:1059C000704700BF00ED00E080B483B000AF034635
:1059D000FB71084997F907305B09FA7902F01F0259
:1059E000012000FA02F241F8232000BF0C37BD4627
:1059F00080BC704700E100E080B483B000AF034694
:105A00003960FB7197F90730002B0BDA0D49FB79F0
:105A100003F00F03043B3A68D2B21201D2B20B4436
:105A20001A7609E0084997F907303A68D2B21201AC
:105A3000D2B20B4483F8002300BF0C37BD4680BCB4
:105A4000704700BF00ED00E000E100E080B489B0E5
:105A500000AFF860B9607A60FB6803F00703FB6190
:105A6000FB69C3F10703042B28BF0423BB61FB6957
:105A70000433062B02D9FB69033B00E000237B6162
:105A80000122BB6902FA03F35A1EBB681A407B6904
:105A90009A4001217B6901FA03F3591E7B680B4090
:105AA000134318462437BD4680BC704790B486B077
:105AB00000AFF860B9607A60FB682C331946BB68A8
:105AC00003F440724FF440737B617B6993FAA3F354
:105AD0003B613B69B3FA83F322FA03F39B000B4467
